:0400000000408F4AE3
:20800000FE121E4AA048A846E2030044E2AF0144E2AF00C4E6940001AD14621402001E509C
:20801000C4468346E2AF0344E2AF01C4E2AF00C6E320C2D5E720005176408B47E203004C4D
:208020006F6A064AFF3007468AA9E2AF0044E2AF01C4E6940008AD14633F064A2901FF409F
:208030001E5202001E50064A1E4EBE0129016F140652FF3007468AA9E2AF01C4E694000849
:20804000AD14630406521E4E6F0306521E500650074EFF401E52064E03500FA666EA0650A0
:20805000FF3007468AA90650E2AF00C4FF3007468AA90201E2AF01C40750FF3007468AA9A8
:20806000E2AF0244E32082C4E720005176408B47E203004C6F20064A19011E50064A1901FE
:20807000FF3007468AA9064AE2AF00C41901FF3007468AA9064AE2AF01C4FF3007468AA97E
:20808000E2AF0244E32082C4E720005176408B47E203004C0650FF3007488AA90201E2AF14
:2080900000C40750FF3007488AA90650E2AF01C4FF3007488AA9E7200008E2AF034CE700D1
:2080A0000018E2AF01C4E7100040FE920006FE02A842761F03048A009B0092DC52006002B8
:2080B0009B018A4297CCFE820006761F03048A009B0092DC520060029B0197E4020207005A
:2080C0008AA90ACC8A001BDC01F369022BDC0006FE04A044A8428A44834292C496C5FE8414
:2080D0000006FE0897489647A846E2030044E5A0AD14650792479B00544863029B0197C493
:2080E000FE880006FE04A044A8428A44834292C496C5FE840006FE0897489647A846E203C3
:2080F0000044E5A0AD14650792489B00544763029B0197C4FE880006FE06A846E203014466
:20810000E2030042E2AF0044E2AF0142E71000407700E20300C4FE860006FE04E8020500BD
:20811000E2030044761F0306E2AF0006E5A0AD14600CE590E2030044E2AF0006E88FE000B3
:208120007700E20300066F61E2AF000AE5A0AD14610DE2AF0002E8120000AD146017E2AF68
:20813000000AE8120500AD146311E8020000E2030044E2AF000AE88FE0007700E203000A86
:20814000E801FC00E20300026F40E2AF0004E8120000AD146017E2AF0008E8120500AD1484
:208150006311E801FC00E2030044E2AF0008E88FE0007700E2030008E801FC00E20300046B
:208160006F24E2AF000CE8120500AD14630DE8020200E2030044E2AF000CE88FE00077001F
:20817000E203000C6F12E2AF000EE8120500AD14630CE8020400E2030044E2AF000EE88F82
:20818000E0007700E203000EE2AF0044FE840006FE04761F0306E2AF0008E5A0AD14610D4B
:20819000E2AF0004E811FC00AD146017E2AF0008E8120500AD146311E801FC00E203004432
:2081A000E2AF0008E88FE0007700E2030008E8020000E20300046F3CE2AF0002E811FC0065
:2081B000AD146017E2AF000AE8120500AD146311E8020000E2030044E2AF000AE88FE000A3
:2081C0007700E203000AE8020000E20300026F20E2AF0006E8120500AD14630FE5A0AD14CA
:2081D000650CE590E2030044E2AF0006E88FE0007700E20300066F0CE8020200E2030044A0
:2081E000E2AF000CE88FE0007700E203000CE2AF0044FE840006FE10764080B56F10060E3A
:2081F0001E4806101E4A6F29060A1E48060C1E4A6F2406061E4806081E4A6F1F761F03075B
:20820000E2AF0000E68C000077007700BFA90F12520161E6520261E96FED061A1E44061CAC
:208210001E466F1806161E4406181E466F1306121E4406141E466F0EE2AF0002E68C000067
:2082200077007700BFA90F12520161E8520261EB6FEF761F01C41A0140001A1900101A011A
:20823000200040196CFFF60B77009208FFC30EA9BDA90F127700770077007700E68B0000EB
:20824000761F0305E2030008761F01C49209FFC30EA9BDA90F127700770077007700E68B52
:208250000000761F0305E203000A761F01C4920AFFC30EA9BDA90F127700770077007700B0
:20826000E68B0000761F0305E203000C761F01C4920BFFC30EA9BDA90F12770077007700A3
:208270007700E68B0000761F0305E203000E761F03079A00E2AF001E761F0305E2AF010A55
:20828000E6940001AD1462029A01964B761F0306E2AF00448F00C162FF69931E764080EB63
:20829000924B931E8F00C163E2AF0046764080D1761F03059A00E2AF0008761F0307E2AFAF
:2082A0000120E6940001AD1462029A01964CE801FC00E2030044761F03069A009318BE00D1
:2082B000530061029A0152006002BE017E4E93199A00BE00530061029A0152006002BE0156
:2082C0007E4F924E9B0052006104924F61029B01974D924D6107924C6005924B600306000B
:2082D0001E44924D6109924C6007924B6105E801FC00E2030044924D6109924C6107924BE1
:2082E0006005E805FC00E2030044924E9B0052006104921961029B01974E924E6109924C1E
:2082F0006007924B6005E805FC00E2030044924E6107924C6005924B610306001E44924E9F
:208300006109924C6107924B6105E801FC00E203004492189B0052006104924F61029B0180
:20831000974E924E6109924C6007924B6005E801FC00E2030044924E6107924C6105924B20
:20832000600306001E44924E6109924C6107924B6105E805FC00E203004492189B005200F6
:208330006104921961029B01974E924E6109924C6007924B6105E805FC00E2030044924E75
:208340006109924C6107924B6005E801FC00E2030044924E6107924C6105924B610306004A
:208350001E44E2AF00449A00E811FC00AD1460029A013B0185A9BDA90F1277007700770033
:208360007700E6890000761F0305E2030016761F030606441E00761F03059A019322761FF7
:2083700003065300E2AF01006006761F0305932360029A0085A9BDA90F1277007700770030
:20838000761F0306E68900008F00C192E3020112764080FC924CE2AF0048931F8F00C164A7
:20839000764080EB924C931F8F00C165E2AF004A764080D19A01761F0305932453006004DF
:2083A000932560029A003B0185A9BDA90F1277007700761F0306E2AF0100E68900008F00FC
:2083B000C194E3004114764080FC761F0307E2AF0026761F0306E2AF0114E70000087700EE
:2083C000E2030048761F0307E2AF0124761F0306E2AF0012E7000009E2AF0348E71000C84F
:2083D0007700E2030048761F03048A0092E461090648761F03051E10060C1E12060E1E1442
:2083E000761F0305E2AF0016E5A0AD146106761F01BF1A0A00046F05761F01BF1A0C00041C
:2083F000924B761F0306961E924C9618924B9619924C961FFE900006FE06761F03061B162C
:2084000001FF67020A16921AFFE000D056BF011A56BF071B2B16E590E2030006E203000883
:20841000E203000AE203000CE203000EE2030004E2030002761F0305E805FC00E203001826
:20842000FFEF00CA92165296680B56BF031BE805FC00761F0305E2030018FFEF00BDE80236
:208430000600761F0305E2030018FFEF00B592165296FFE800B156BF031BE805FC00761F10
:208440000305E2030018FFEF00A756BF051BE805FC00761F0305E2030018FFEF009D921697
:208450005296FFE8009956BF031BE805FC00761F0305E2030018FFEF008F761F0305E2AF43
:208460000014E8121E40AD146307761F030656BF061BFFEF0081E805FC00E20300186F7B52
:20847000761F0305E8022800E2AF0112E8090000E6940001AD14650D761F030656BF011B2B
:208480002B16E8020600761F0305E20300186F63E2AF0012E81223D0AD14630D761F0306E0
:2084900056BF041B2B1676408188761F0305E20300186F51E81223D0AD14644DE8022800CD
:2084A000E8090000E6940001AD146245761F030656BF021B2B167640810D761F0305E20311
:2084B00000186F391B16012C680A56BF051BE805FC00761F0305E20300186F2DE590E2036E
:2084C0000006E2030008E203000AE203000CE203000EE2030004E2030002761F0305E8057C
:2084D000FC00E20300186F17921B5204620E5204FFE1FF775201FFE1FF475202FFE1FF59E9
:2084E0005203FFE1FF646FCF5205FFE1FF78520661886FC9761F03061B1701FF67020A1725
:2084F000921CFFE0009656BF011C56BF021D2B17E8021CB0761F0305E203001CFFEF009DC2
:2085000056BF071D2B17FFEF00981B17012CFFE8009456BF071D2B17FFEF008F761F0305EB
:20851000E8061EF0E2AF0110E80C0000E6940001AD14FFE50082E8061EC8E80C0000E694D5
:208520000001AD146379761F030656BF051D2B17E8021240761F0305E203001EE801FC00C5
:20853000E20300206F69761F0305E2AF0010E8160500AD146510E8120500AD14630C761F13
:20854000030656BF061D2B17E590761F0305E203001E6F52E590E203001C6F4E921752464E
:20855000680956BF011DE590761F0305E20300206F43E8021240761F0305E203001EE801D9
:20856000FC00E20300206F389217520A681356BF031D761F03058F00C1F68F40C1E802063B
:20857000E2AF001876408000761F0305E203001C6F23E590761F0305E203001E6F1D56BF26
:20858000041DE590761F0305E203001C6F15921D5204620D520461A85201FFE1FF73520257
:20859000FFE1FF755203FFE1FF7B6FEA520561B7520661CB6FE5761F0305E2AF0020E5A055
:2085A000AD146106761F01BF1A0300026F05761F01BF1A050002761F0305E2AF0010E2AF66
:2085B000011CE72000087700E2030046761F0308E2AF0146E2AF0006E6940001AD14650726
:2085C000E72000087700E20300466F10E2AF0004E6940001AD146405E590E20300466F061C
:2085D000E72000087700E2030046E2AF0108E70000087700E20300469A00E5A0AD14650268
:2085E0009A013B0185A9BDA90F127700770077007700E6890000761F0305E203001AE5A083
:2085F000AD146106761F01BF1A0300206F05761F01BF1A050020E2AF0046E6950000E20372
:208600000044E801F801E6940001AD14630AE8121380AD146306E8021380E20300446F11AE
:20861000E811F800AD146205E590E20300446F09E8121640AD146405E8021640E203004438
:20862000761F01A1E2AF0244E2C40105E801E118E7000051E80EB850E70000407700E68E56
:20863000000077007700BFA90F12960A761F0305E2AF021E761F01A2E2C40105E801E118FF
:20864000E7000051E80EB850E70000407700E68E000077007700BFA90F12960AFE86000631
:20865000FE02761F03048A00F6052B848F00C148F61D2B848F00C180F61F2B84E590761F42
:208660000306E2030010761F03059200600776408F1E761F030556BF01002B419A03D40073
:20867000D50028A8103276408E1D7622761F01BE1808FFF31A0B0002761A76221808F3FF43
:208680001A0B0020761A761F01A12805FA00CC00C04050309600180300002B041807FFA0BD
:2086900028097D002B0A56BF240B280C0108180DFF3F180EFFF0180FFFC02B102B119219E6
:2086A00090F01AA911019619CC1ACCFC1AA91101961A181EF80076222B12CC14FFF0500F52
:2086B00096141815FFF9761A761F01A22805FA00CC00C04050309600180300002B041807A1
:2086C000FFA028097D002B0A56BF240B280C0108180DFF3F180EFFF0180FFFC02B102B11C2
:2086D000921990F01AA911019619CC1ACCFC1AA91101961A181EF80076222B12CC14FFF0D6
:2086E000500F96141815FFF9761A7622761F01BE1816FFCF1A1A0004761A761F03079204D7
:2086F000761F0306961E761F0308920E761F03069618761F0308920F761F03069619761F69
:2087000003070622761F03061E00761F0308060A761F03061E12761F03079205761F030619
:20871000961F761F0308060C761F03061E14FF698F00C1628F40C210764080E28F00C1638C
:208720008F40C211764080C88F00C1648F40C212764080E28F00C1658F40C213764080C8D3
:208730002B162B1A2B1B2B172B1C2B1DFE8200060006761BFFF0E20000BDE630060029425A
:20874000561676256F00761BFFF0E20000BDE63006002942561676256F00761BFFF0E20025
:2087500000BDE63006002942561676256F00761BFFF0E20000BDE6300600294256167625A2
:208760006F00761BFFF0E20000BDE63006002942561676256F00761BFFF0E20000BDE63039
:2087700006002942561676256F00761BFFF0E20000BDE63006002942561676256F00761B55
:20878000FFF0E20000BDE63006002942561676256F00761BFFF0E20000BDE63006002942A8
:20879000561676256F00761BFFF0E20000BDE63006002942561676256F00761BFFF0E200D5
:2087A00000BDE63006002942561676256F00761BFFF0E20000BDE630060029425616762552
:2087B0006F00761BFFF0E20000BDE63006002942561676256F00761BFFF0E20000BDE630E9
:2087C00006002942561676256F00761BFFF0E20000BDE63006002942561676256F00761B05
:2087D000FFF0E20000BDE63006002942561676256F00761BFFF0E20000BDE6300600294258
:2087E000561676256F00761BFFF0E20000BDE63006002942561676256F00761BFFF0E20085
:2087F00000BDE63006002942561676256F00761BFFF0E20000BDE630060029425616762502
:208800006F00761BFFF0E20000BDE63006002942561676256F00761BFFF0E20000BDE63098
:2088100006002942561676256F00761BFFF0E20000BDE63006002942561676256F00761BB4
:20882000FFF0E20000BDE63006002942561676256F00761BFFF0E20000BDE6300600294207
:20883000561676256F00761BFFF0E20000BDE63006002942561676256F00761BFFF0E20034
:2088400000BDE63006002942561676256F00761BFFF0E20000BDE6300600294256167625B1
:208850006F00761BFFF0E20000BDE63006002942561676256F00761BFFF0E20000BDE63048
:2088600006002942561676256F00761BFFF0E20000BDE63006002942561676256F00761B64
:20887000FFF0E20000BDE63006002942561676256F00761BFFF0E20000BDE63006002942B7
:20888000561676256F00761BFFF0E20000BDE63006002942561676256F00761BFFF0E200E4
:2088900000BDE63006002942561676256F00761BFFF0E20000BDE630060029425616762561
:2088A0006F00761BFFF0E20000BDE63006002942561676256F00761BFFF0E20000BDE630F8
:2088B00006002942561676256F00761BFFF0E20000BDE63006002942561676256F00761B14
:2088C000FFF0E20000BDE63006002942561676256F00761BFFF0E20000BDE6300600294267
:2088D000561676256F00761BFFF0E20000BDE63006002942561676256F00761BFFF0E20094
:2088E00000BDE63006002942561676256F00761BFFF0E20000BDE630060029425616762511
:2088F0006F00761BFFF0E20000BDE63006002942561676256F00761BFFF0E20000BDE630A8
:2089000006002942561676256F00761BFFF0E20000BDE63006002942561676256F00761BC3
:20891000FFF0E20000BDE63006002942561676256F00761BFFF0E20000BDE6300600294216
:20892000561676256F00761BFFF0E20000BDE63006002942561676256F00761BFFF0E20043
:2089300000BDE63006002942561676256F00761BFFF0E20000BDE6300600294256167625C0
:208940006F00761BFFF0E20000BDE63006002942561676256F00761BFFF0E20000BDE63057
:2089500006002942561676256F00761BFFF0E20000BDE63006002942561676256F00761B73
:20896000FFF0E20000BDE63006002942561676256F00761BFFF0E20000BDE63006002942C6
:20897000561676256F00761BFFF0E20000BDE63006002942561676256F00761BFFF0E200F3
:2089800000BDE63006002942561676256F00761BFFF0E20000BDE630060029425616762570
:208990006F00761BFFF0E20000BDE63006002942561676256F00761BFFF0E20000BDE63007
:2089A00006002942561676256F00761BFFF0E20000BDE63006002942561676256F00761B23
:2089B000FFF0E20000BDE63006002942561676256F00761BFFF0E20000BDE6300600294276
:2089C000561676256F00761BFFF0E20000BDE63006002942561676256F00761BFFF0E200A3
:2089D00000BDE63006002942561676256F00761BFFF0E20000BDE630060029425616762520
:2089E0006F00761BFFF0E20000BDE63006002942561676256F00761BFFF0E20000BDE630B7
:2089F00006002942561676256F00761BFFF0E20000BDE63006002942561676256F00761BD3
:208A0000FFF0E20000BDE63006002942561676256F00761BFFF0E20000BDE6300600294225
:208A1000561676256F00761BFFF0E20000BDE63006002942561676256F00761BFFF0E20052
:208A200000BDE63006002942561676256F00761BFFF0E20000BDE6300600294256167625CF
:208A30006F00761BFFF0E20000BDE63006002942561676256F00761BFFF0E20000BDE63066
:208A400006002942561676256F00761BFFF0E20000BDE63006002942561676256F0076405D
:208A50008A629A0A9B0276408A6A76408ABB00067622761F01C056BF552556BFAA25761A3D
:208A6000FF6900067622761F01C056BF6829761AFF690006FE0297429641761F01C043119C
:208A70006C027625CC110180FFC6610576221811FE7F761A0E411EA69221900F80A906A64C
:208A80000FA7611676221A1100409241CD21FFF0900FCAA89621761AFF6976408A629211F1
:208A90009001520160FD76221811FFBF761A9242520161035202600976229003CD11FE7FA8
:208AA000FF86CAA89611761A9242520360127622CC11FE7F1AA9010096118F0005DAFF69BA
:208AB000A8A976408FE4761F01C01A110180761AFE82FF6900067622761F01C056BF011A8E
:208AC00056BF021B761F002CCC35FFF8500196351A3400041834FFF7761F01C01A1C000867
:208AD000FF6976780080761F01C01A1C00101A1C04001A1C08001A1C00201A1C01001A1CD9
:208AE00010001A1C20001A1C40001A1C8000181CFFFB1A1D00011A1D00021A1D00041A1DD3
:208AF00000081A1D00101A1D00201A1C00041A1D04001A1D08001A1D10001A1D20001A1D37
:208B000001001A1D02001A1D40001A1D80001A2001001A2002001A2004001A2008001A20BC
:208B100010001A202000761AFF690006FE027622761F002B2820FFFF2821FFFF2822FFFFB0
:208B20002823FFFF2824FFFF2825FFFF2826FFFF2827FFFF761A761FCFFF9238964192395F
:208B30009641923A9641923B9641923C9641923D9641923E9641923F9641761F002B402F3E
:208B40006D039A016F029A00FE82FF6900063ABDB2BDAABDA2BDFE022901BFA90F12FF58DB
:208B5000615B5CA8917F08A800801E4293A4FFD65CA8BFA90F1661675DA8917F08A80080FB
:208B600059A858A993A5FFD65DA893A471A518A8010097A618A400FF18A500FFDC7F92A48E
:208B70009EA596A7644D08A9FF01623E93A192A0FF3659A858A90642FF35F60E1FA15BA982
:208B800001A3F60A1FA1562D04A22DA336A0FF40F60B1FA1FF339B00FF30FF540CA295A36D
:208B9000FF4008A70001F61FFF770920FF4008A70001F61FFF77FF5A92A7652208A9FF01DE
:208BA0006313A9A9FF46917F5BA85AA925A695A7FF960CA295A3BDA90F12FE8282BE86BE85
:208BB0008BBE8EBE00069B00FF5708A8FF7FFF5A93A660F228A8800071AA92AB6FEDFF20E4
:208BC00000006FEAFF5A93A418A80100FF965CA8A9A908A8FF7F1CA88000CBA46FDDFE02D3
:208BD000761F0304921E0A1E5200610556BF011B0B1E6F295CADDC825CA4764080A776406D
:208BE0008E07764081EB76408E0F761F03040B1E92416109921D0A1D5200610556BF011BAA
:208BF0000B1D6F11921D610F921F600D0A1F76408E07764083FC6F0176408E0F761F030478
:208C00000B1D0B1FFE820006FE0656BF01452842C5AC284137A7E80218B0E203004476406A
:208C10008F5976408C4F761F03048A0002001EC476408650E2AF0042E2AF014476408DE069
:208C2000761F03048A00BE0006C46002BE017E4576408E0776408F529245611B761F0304D1
:208C30008A00B600BE0006C46002BE0192A66002B601761F03047F1A9A00931ABE0053005D
:208C400061029A0152006002BE017E45924560E77640873876408F569A00FE8600067640D8
:208C50008A629A0A9B0276408A6A76408ABB7622761F01C02B1B56BF011A761A7622761F11
:208C6000002C1835FFF81834FFF71834FFFBCC3400C0FFC560FD1834FFFCCC38FFC75018A2
:208C70009638CC38FFF8500396380620900018A8FFBC1AA994A951031E20062C900018A8B5
:208C8000FFBC1AA994A951031E2C062E900018A8FFBC1AA994A951031E2E761AFF697640EE
:208C90008CACF60677003B1076260000762F0000FF6976408E7B76408EC776408CCB764098
:208CA0008F327622761F01BE02001E021E041E121E14761AFF6900067622761F01BE020075
:208CB000C4261AA9FFFF1AA8FFFF1E2606169B00900F1AA8FFFF1AA9FFF01E1602001AA934
:208CC000FFFFC4281E28060891FF1AA8FF001E08761AFF6900068F000C00761F0304A812F0
:208CD0000200761F003019011E022B062B071A0400101A0400200200761F03041E148F0055
:208CE0000C08A8028F000C10A80A761F003019011E0A761F0030020019011E12761F00307C
:208CF0002B0E2B0F761F00302B162B17761F00301A0C0010761F00301A140010761F0030E6
:208D00001A0C0020761F00301A140020761F030402001E041E0C0006FE08E2030146E203F3
:208D10000044A84206441EE48A4206461EF4E2AF0044E2AF0146E70000087700E68800001E
:208D20007700E20300488A428AC406481ED48A428AC42BF48A428AC42BFC8A428AC41AE4A3
:208D300000108A428AC41AE400208A428AC418E4FBFF8A428AC418E4F7FF8A428AC41AE4A7
:208D400040008A4202001ED4FE88000628AD0400FF69561F5616561AE61002002940761FFF
:208D500000002902761B76408F5A52006142762228A98F5D28A800000901611B76C08F5DE6
:208D600029046F0F9B0024A9DF016C04290424A8DF011EA6F7A1248606A781A109011EA713
:208D700024A96303FF5C3B0459A9DF010009FFEC28A9FFFF28A8FFFF090161058F3FFFFF67
:208D800076408EA3761A76408F5C28A9FFFF28A8FFFF0901610E76FFFFFF6F06DF01C3BD5D
:208D90001EA73E67C5BE24A9DF0124A8FF5860F776408F0576408E54761BFFF00005ABBDE0
:208DA000A8BDA0BDC2BDC3BDE20000BDE20300BDE20301BDE20302BDE20303BDE6300600A9
:208DB000FE02FF6929425616761F0033922296411822FFBFF6057700762FFFFE56BF0121CE
:208DC000762300012910FF6976408BCF3B109241761F00339622FE82E2AF03BEE2AF02BE87
:208DD000E2AF01BEE2AF00BEE28000BEC5BEC4BE83BE8ABE87BE00033B30FFF1761776028E
:208DE000FE04E2030144E203004276408CCBE8024BA0E2AF01428F00C112E8092000E30212
:208DF000084476408D0C761F00301804FFEF7622761F00358F008D9CA80C761A761F0033D3
:208E00001A22004076230001FF69FE8400063B10761F00331A2200402910FF6900063B10CB
:208E1000761F00331822FFBFF6057700762FFFFE56BF01212910FF690006FE047D447C430E
:208E200097429641761F01C41800CFFFCC00F0FF1AA9040096001A000080CC18FFE1500676
:208E30009618181C3FFF5603071DFFA6CCA901FFCD1DFE00CAA8961D1800FFBF1A1800C096
:208E40001818FFFE9241900FCD02FFF0CAA896021800FFEF92429603924396041A0140006E
:208E5000FE84000677006F00B2BD761F030459A99220610D28ABFFFF28AAFFFF28A9FFFFF7
:208E600028A8FFFF0FAB6103767FFFFF761F0304C5263E67761F0304062461041EA792A1C4
:208E70003E67761F0304062261031EA73E6776408E528BBE00063B10761F00331820FFFE7E
:208E80002B222B242B262B282B2A2B2C2B2E2B302B322B342B362B382B232B252B272B296E
:208E90002B2B2B2D2B2F2B312B332B352B372B39FF690006761F00331A2000012821FFFF22
:208EA0002910FF690006B2BDAABDA2BDFE0882A4D1005ACB6F155CAD2901560303A107A356
:208EB000DC8809025CA483A9020876408EE7064261068A44834676408EE75ACBD90192A22E
:208EC00054A166EAFE8882BE86BE8BBE0006FE068F00C000A8428F000D00A84476222B4527
:208ED00092455280630D83448A42A0A9C4840902A8421E44C2C50A459245528064F5761A86
:208EE000761F00331A200001FF69FE8600065200A8AB8EA4610880A9DF8188A780857F8081
:208EF000000EFFFE88A90FA6610F5300610D9DFF5CA876BFFFFE92859680000EFFFE92851F
:208F00009680000CFFF8A9A4000628ABFFFF28AAFFFF28A9FFFF28A8FFFF0FAB6004BE00CB
:208F1000D4006F0928ABFFFF28AAFFFFA9A488C409028AA992A676408C0400067622761FCC
:208F200001C01A1C0008FF6976780080761A761F01C456BFE0188F0249E6FF69A8A9764036
:208F30008FE400067622761F01BECC06FF3F50409606CC06F3FF1AA904009606761AFF6961
:208F40000006761F0304A8280006761F0304A82600060006561F7622B9C028290068761A54
:1A8F500000408D4629102920FF6900063B10FF69000600069A01000600069E
:208F5D00FFACC1C0000000004040000040400000000000003F8000003F800000000000004A
:208F6D003F8000003F800000000000003F8000003F800000000000003F8000003F8000006A
:208F7D000000000044FA000044FA00000000A5E33D9BA5E33D9B0000C3DC8000C393000023
:208F8D00C32A0000C220000042AA0000435C000043D700003F8000004000000040400000D1
:208F9D004080000040A0000040C0000040E00000BF8000003F8000003F8000000000000037
:208FAD000000000000000000000000000000FFFFC11A00000000FFFFC11B00000000FFFEF4
:208FBD00C11C000000000000FFFEC11E000000000000FFFFC12000000001FFFEC12200001B
:208FCD0000000000FFFEC124000000000000FFFEC12600008F490000FFFEC12800008F4928
:0E8FDD000000FFFFC140000000000000000087
:088FE400190156C3FFFF00064E
:00000001FF
