:0400000000409066C6
:20800000FE121E4AA048A846E2030044E2AF0144E2AF00C4E6940001AD14621402001E509C
:20801000C4468346E2AF0344E2AF01C4E2AF00C6E320C2D5E720005176408C85E203004C0E
:208020006F6A064AFF3007468AA9E2AF0044E2AF01C4E6940008AD14633F064A2901FF409F
:208030001E5202001E50064A1E4EBE0129016F140652FF3007468AA9E2AF01C4E694000849
:20804000AD14630406521E4E6F0306521E500650074EFF401E52064E03500FA666EA0650A0
:20805000FF3007468AA90650E2AF00C4FF3007468AA90201E2AF01C40750FF3007468AA9A8
:20806000E2AF0244E32082C4E720005176408C85E203004C6F20064A19011E50064A1901BF
:20807000FF3007468AA9064AE2AF00C41901FF3007468AA9064AE2AF01C4FF3007468AA97E
:20808000E2AF0244E32082C4E720005176408C85E203004C0650FF3007488AA90201E2AFD5
:2080900000C40750FF3007488AA90650E2AF01C4FF3007488AA9E7200008E2AF034CE700D1
:2080A0000018E2AF01C4E7100040FE920006FE02A842761F03048A109B0092DC52006002A8
:2080B0009B018A4297CC8A109B0092E4520060029B018A4297D4FE820006761F03048A10F7
:2080C0009B0092DC520060029B0197EC8A1092DC600792E49B00520060029B0197F4020265
:2080D00007108AA90ACC8A101BDC01F369022BDC020207108AA90AD48A101BE413876902AF
:2080E0002BE40006FE04A044A8428A44834292C496C5FE840006FE0897489647A846E2033A
:2080F0000044E5A0AD14650792479B00544863029B0197C4FE880006FE04A044A8428A44E4
:20810000834292C496C5FE840006FE0897489647A846E2030044E5A0AD14650792489B0061
:20811000544763029B0197C4FE880006FE06A846E2030144E2030042E2AF0044E2AF0142E0
:20812000E71000407700E20300C4FE860006FE04E8020500E2030044761F0305E2AF001204
:20813000E5A0AD14600CE590E2030044E2AF0012E88FE0007700E20300126F61E2AF001600
:20814000E5A0AD14610DE2AF000EE8120000AD146017E2AF0016E8120500AD146311E802D5
:208150000000E2030044E2AF0016E88FE0007700E2030016E801FC00E203000E6F40E2AF5E
:208160000010E8120000AD146017E2AF0014E8120500AD146311E801FC00E2030044E2AF45
:208170000014E88FE0007700E2030014E801FC00E20300106F24E2AF0018E8120500AD143E
:20818000630DE8020200E2030044E2AF0018E88FE0007700E20300186F12E2AF001AE812C0
:208190000500AD14630CE8020400E2030044E2AF001AE88FE0007700E203001AE2AF004436
:2081A000FE840006FE04761F0305E2AF0014E5A0AD14610DE2AF0010E811FC00AD14601771
:2081B000E2AF0014E8120500AD146311E801FC00E2030044E2AF0014E88FE0007700E20370
:2081C0000014E8020000E20300106F3CE2AF000EE811FC00AD146017E2AF0016E81205008F
:2081D000AD146311E8020000E2030044E2AF0016E88FE0007700E2030016E8020000E20308
:2081E000000E6F20E2AF0012E8120500AD14630FE5A0AD14650CE590E2030044E2AF001215
:2081F000E88FE0007700E20300126F0CE8020200E2030044E2AF0018E88FE0007700E203BE
:208200000018E2AF0044FE840006FE10764080BD6F1006101E4806121E4A6F29060C1E485D
:20821000060E1E4A6F2406081E48060A1E4A6F1F761F0307E2AF0000E68C00007700770035
:20822000BFA90F12520161E6520261E96FED061C1E44061E1E466F1806181E44061A1E468A
:208230006F1306141E4406161E466F0EE2AF0002E68C000077007700BFA90F12520161E81B
:20824000520261EB6FEF761F01C41A0140001A1900101A01200040196CFFF60B7700920817
:20825000FFC30EA9BDA90F127700770077007700E68B0000761F0306E2030000761F01C4E4
:208260009209FFC30EA9BDA90F127700770077007700E68B0000761F0306E2030002761FFC
:2082700001C4920AFFC30EA9BDA90F127700770077007700E68B0000761F0306E2030004B9
:20828000761F01C4920BFFC30EA9BDA90F127700770077007700E68B0000761F0306E20317
:208290000006761F03079A00E2AF0020761F0306E2AF0102E6940001AD1462029A01964B90
:2082A000761F0305E2AF00448F00C1A2FF69932A76408105924B932A8F00C1A3E2AF004695
:2082B000764080EB761F03069A00E2AF0000761F0307E2AF0122E6940001AD1462029A0136
:2082C000964CE801FC00E2030044761F03059A009324BE00530061029A0152006002BE013E
:2082D0007E4E93259A00BE00530061029A0152006002BE017E4F924E9B0052006104924F0E
:2082E00061029B01974D924D6107924C6005924B6003060A1E44924D6109924C6007924BF4
:2082F0006105E801FC00E2030044924D6109924C6107924B6005E805FC00E2030044924E37
:208300009B0052006104922561029B01974E924E6109924C6007924B6005E805FC00E203D1
:208310000044924E6107924C6005924B6103060A1E44924E6109924C6107924B6105E8010F
:20832000FC00E203004492249B0052006104924F61029B01974E924E6109924C6007924BDF
:208330006005E801FC00E2030044924E6107924C6105924B6003060A1E44924E6109924C54
:208340006107924B6105E805FC00E203004492249B0052006104922561029B01974E924EDD
:208350006109924C6007924B6105E805FC00E2030044924E6109924C6107924B6005E8014E
:20836000FC00E2030044924E6107924C6105924B6103060A1E44E2AF00449A00E811FC0035
:20837000AD1460029A013B0185A9BDA90F127700770077007700E6890000761F0306E20370
:208380000012761F030506441E0A761F03069A019322761F03055300E2AF010A6006761F47
:208390000306932360029A0085A9BDA90F12770077007700761F0305E68900008F00C15E3E
:2083A000E302011E76408116924CE2AF0048932B8F00C1A476408105924C932B8F00C1A536
:2083B000E2AF004A764080EB9A01761F0306932453006004932560029A003B0185A9BDA986
:2083C0000F1277007700761F0305E2AF010AE68900008F00C160E300412076408116761F10
:2083D0000307E2AF0028761F0305E2AF0120E70000087700E2030048761F0307E2AF012691
:2083E000761F0305E2AF001EE7000009E2AF0348E71000C87700E2030048761F03048A10CC
:2083F00092EC61090648761F03061E0806041E0C06061E0E761F0306E2AF0012E5A0AD1480
:208400006106761F01BF1A0A00046F05761F01BF1A0C0004924B761F0305962A924C9624B3
:20841000924B9625924C962BFE900006FE06761F03048A1092F46107761F0305060C761F15
:2084200003061E0A761F0306E2AF000AE2AF0108E72000087700E2030046761F03051B22AD
:2084300001FF67020A229226FFE000D056BF012656BF07272B22E590E2030012E2030014FF
:20844000E2030016E2030018E203001AE2030010E203000E761F0306E805FC00E2030016BB
:20845000FFEF00CA92225296680B56BF0327E805FC00761F0306E2030016FFEF00BDE802EF
:208460000600761F0306E2030016FFEF00B592225296FFE800B156BF0327E805FC00761FC9
:208470000306E2030016FFEF00A756BF0527E805FC00761F0306E2030016FFEF009D922251
:208480005296FFE8009956BF0327E805FC00761F0306E2030016FFEF008F761F0306E2AF07
:20849000000EE8121E40AD146307761F030556BF0627FFEF0081E805FC00E20300166F7B1F
:2084A000761F0306E8022800E2AF010CE8090000E6940001AD14650D761F030556BF0127F5
:2084B0002B22E8020600761F0306E20300166F63E2AF000CE81223D0AD14630D761F0305AC
:2084C00056BF04272B22764081A2761F0306E20300166F51E81223D0AD14644DE80228006C
:2084D000E8090000E6940001AD146245761F030556BF02272B2276408127761F0306E203AF
:2084E00000166F391B22012C680A56BF0527E805FC00761F0306E20300166F2DE590E20329
:2084F0000012E2030014E2030016E2030018E203001AE2030010E203000E761F0306E805F7
:20850000FC00E20300166F1792275204620E5204FFE1FF775201FFE1FF475202FFE1FF59AE
:208510005203FFE1FF646FCF5205FFE1FF78520661886FC9761F03051B2301FF67020A23DD
:208520009228FFE0008F56BF012856BF02292B23E8021CB0761F0306E203001AFFEF009571
:2085300056BF07292B23FFEF00901B23012CFFE8008C56BF07292B23FFEF0087E8061EF038
:20854000E2AF0146E80C0000E6940001AD14657CE8061EC8E80C0000E6940001AD14637457
:2085500056BF05292B23E8021240761F0306E203001CE801FC00E203001E6F66E2AF00460B
:20856000E8160500AD14650EE8120500AD14630A56BF06292B23E590761F0306E203001CF1
:208570006F53E590761F0306E203001A6F4D92235246680956BF0129E590761F0306E20366
:20858000001E6F42E8021240761F0306E203001CE801FC00E203001E6F379223520A681317
:2085900056BF0329761F03068F00C1FA8F40C1EC0206E2AF001676408000761F0306E203BE
:2085A000001A6F22E590761F0306E203001C6F1C56BF0429E590761F0306E203001A6F149A
:2085B00092295204620C520461AA5201FFE1FF7A5202FFE1FF7C520361826FEB520561B86E
:2085C000520661CC6FE6761F0306E2AF001EE5A0AD146106761F01BF1A0300026F05761F4A
:2085D00001BF1A050002761F0306E2AF000AE2AF011AE7100009E2AF0308E72000C87700E3
:2085E000E2030046761F0308E2AF0146E2AF000AE6940001AD146507E72000087700E2032A
:2085F00000466F10E2AF0008E6940001AD146405E590E20300466F06E72000087700E203E8
:208600000046E2AF010CE70000087700E20300469A00E5A0AD1465029A013B0185A9BDA933
:208610000F127700770077007700E6890000761F0306E2030018E5A0AD146106761F01BF41
:208620001A0300206F05761F01BF1A050020E2AF0046E6950000E2030044E801F801E6941E
:208630000001AD14630AE8121380AD146306E8021380E20300446F11E811F800AD14620505
:20864000E590E20300446F09E8121640AD146405E8021640E2030044761F01A1E2AF024413
:20865000E2C40105E801E118E7000051E80EB850E70000407700E68E000077007700BFA9DE
:208660000F12960A761F0306E2AF021C761F01A2E2C40105E801E118E7000051E80EB850F0
:20867000E70000407700E68E000077007700BFA90F12960A761F03048A1092F46105761F0A
:20868000030606081E10FE860006FE02761F01BF920090010EA9BDA90F12770077007700F0
:208690007700E68B0000761F0306E20300208F00C14028A9FFFF76408E0496415200610509
:2086A000761F030606101E14761F03060614761F03051E0CFE820006FE02761F03048A1099
:2086B000F6072B848F00C180F6252B848F00C14AF6212B84E590761F0305E203001C92015E
:2086C00060077640903A761F030556BF01012B419A03D400D50028A8103276408F39761F28
:2086D0000307062A761F03061E0A7622761F01BE1808FFF31A0B0002761A76221808F3FF2B
:2086E0001A0B0020761A761F01A12805FA00CC00C04050309600180300002B041807FFA05D
:2086F00028097D002B0A56BF240B280C0108180DFF3F180EFFF0180FFFC02B102B11921986
:2087000090F01AA911019619CC1ACCFC1AA91101961A181EF80076222B12CC14FFF0500FF1
:2087100096141815FFF9761A761F01A22805FA00CC00C04050309600180300002B04180740
:20872000FFA028097D002B0A56BF240B280C0108180DFF3F180EFFF0180FFFC02B102B1161
:20873000921990F01AA911019619CC1ACCFC1AA91101961A181EF80076222B12CC14FFF075
:20874000500F96141815FFF9761A7622761F01BE1806FFFC180AFFFE761A76221816FFCF13
:208750001A1A0004761A761F030556BF0300761F03079204761F0305962A761F03089212B6
:20876000761F03059624761F03089213761F03059625761F03070624761F03051E0A761FE2
:208770000308060E761F03051E1E761F03079205761F0305962B761F03080610761F03050A
:208780001E20761F0307062A761F03051E0CFF698F00C1A28F40C214764080FC8F00C1A3E1
:208790008F40C215764080E28F00C1A48F40C216764080FC8F00C1A58F40C217764080E289
:2087A0002B222B262B272B232B282B29761F03070606761F03061E14FE8200060006761B3C
:2087B000FFF0E20000BDE63006002942561676256F00761BFFF0E20000BDE6300600294278
:2087C000561676256F00761BFFF0E20000BDE63006002942561676256F00761BFFF0E200A5
:2087D00000BDE63006002942561676256F00761BFFF0E20000BDE630060029425616762522
:2087E0006F00761BFFF0E20000BDE63006002942561676256F00761BFFF0E20000BDE630B9
:2087F00006002942561676256F00761BFFF0E20000BDE63006002942561676256F00761BD5
:20880000FFF0E20000BDE63006002942561676256F00761BFFF0E20000BDE6300600294227
:20881000561676256F00761BFFF0E20000BDE63006002942561676256F00761BFFF0E20054
:2088200000BDE63006002942561676256F00761BFFF0E20000BDE6300600294256167625D1
:208830006F00761BFFF0E20000BDE63006002942561676256F00761BFFF0E20000BDE63068
:2088400006002942561676256F00761BFFF0E20000BDE63006002942561676256F00761B84
:20885000FFF0E20000BDE63006002942561676256F00761BFFF0E20000BDE63006002942D7
:20886000561676256F00761BFFF0E20000BDE63006002942561676256F00761BFFF0E20004
:2088700000BDE63006002942561676256F00761BFFF0E20000BDE630060029425616762581
:208880006F00761BFFF0E20000BDE63006002942561676256F00761BFFF0E20000BDE63018
:2088900006002942561676256F00761BFFF0E20000BDE63006002942561676256F00761B34
:2088A000FFF0E20000BDE63006002942561676256F00761BFFF0E20000BDE6300600294287
:2088B000561676256F00761BFFF0E20000BDE63006002942561676256F00761BFFF0E200B4
:2088C00000BDE63006002942561676256F00761BFFF0E20000BDE630060029425616762531
:2088D0006F00761BFFF0E20000BDE63006002942561676256F00761BFFF0E20000BDE630C8
:2088E00006002942561676256F00761BFFF0E20000BDE63006002942561676256F00761BE4
:2088F000FFF0E20000BDE63006002942561676256F00761BFFF0E20000BDE6300600294237
:20890000561676256F00761BFFF0E20000BDE63006002942561676256F00761BFFF0E20063
:2089100000BDE63006002942561676256F00761BFFF0E20000BDE6300600294256167625E0
:208920006F00761BFFF0E20000BDE63006002942561676256F00761BFFF0E20000BDE63077
:2089300006002942561676256F00761BFFF0E20000BDE63006002942561676256F00761B93
:20894000FFF0E20000BDE63006002942561676256F00761BFFF0E20000BDE63006002942E6
:20895000561676256F00761BFFF0E20000BDE63006002942561676256F00761BFFF0E20013
:2089600000BDE63006002942561676256F00761BFFF0E20000BDE630060029425616762590
:208970006F00761BFFF0E20000BDE63006002942561676256F00761BFFF0E20000BDE63027
:2089800006002942561676256F00761BFFF0E20000BDE63006002942561676256F00761B43
:20899000FFF0E20000BDE63006002942561676256F00761BFFF0E20000BDE6300600294296
:2089A000561676256F00761BFFF0E20000BDE63006002942561676256F00761BFFF0E200C3
:2089B00000BDE63006002942561676256F00761BFFF0E20000BDE630060029425616762540
:2089C0006F00761BFFF0E20000BDE63006002942561676256F00761BFFF0E20000BDE630D7
:2089D00006002942561676256F00761BFFF0E20000BDE63006002942561676256F00761BF3
:2089E000FFF0E20000BDE63006002942561676256F00761BFFF0E20000BDE6300600294246
:2089F000561676256F00761BFFF0E20000BDE63006002942561676256F00761BFFF0E20073
:208A000000BDE63006002942561676256F00761BFFF0E20000BDE6300600294256167625EF
:208A10006F00761BFFF0E20000BDE63006002942561676256F00761BFFF0E20000BDE63086
:208A200006002942561676256F00761BFFF0E20000BDE63006002942561676256F00761BA2
:208A3000FFF0E20000BDE63006002942561676256F00761BFFF0E20000BDE63006002942F5
:208A4000561676256F00761BFFF0E20000BDE63006002942561676256F00761BFFF0E20022
:208A500000BDE63006002942561676256F00761BFFF0E20000BDE63006002942561676259F
:208A60006F00761BFFF0E20000BDE63006002942561676256F00761BFFF0E20000BDE63036
:208A700006002942561676256F00761BFFF0E20000BDE63006002942561676256F00761B52
:208A8000FFF0E20000BDE63006002942561676256F00761BFFF0E20000BDE63006002942A5
:208A9000561676256F00761BFFF0E20000BDE63006002942561676256F00761BFFF0E200D2
:208AA00000BDE63006002942561676256F00761BFFF0E20000BDE63006002942561676254F
:208AB0006F00761BFFF0E20000BDE63006002942561676256F00761BFFF0E20000BDE630E6
:208AC00006002942561676256F0076408AD89A0A9B0276408AE076408B3100067622761F91
:208AD00001C056BF552556BFAA25761AFF6900067622761F01C056BF6829761AFF690006C2
:208AE000FE0297429641761F01C043116C027625CC110180FFC6610576221811FE7F761ABC
:208AF0000E411EA69221900F80A906A60FA7611676221A1100409241CD21FFF0900FCAA83B
:208B00009621761AFF6976408AD892119001520160FD76221811FFBF761A92425201610310
:208B10005202600976229003CD11FE7FFF86CAA89611761A9242520360127622CC11FE7F47
:208B20001AA9010096118F0005DAFF69A8A976409106761F01C01A110180761AFE82FF69DC
:208B300000067622761F01C056BF011A56BF021B761F002CCC35FFF8500196351A340004A8
:208B40001834FFF7761F01C01A1C0008FF6976780080761F01C01A1C00101A1C04001A1C5D
:208B500008001A1C00201A1C01001A1C10001A1C20001A1C40001A1C8000181CFFFB1A1D43
:208B600000011A1D00021A1D00041A1D00081A1D00101A1D00201A1C00041A1D04001A1DF7
:208B700008001A1D10001A1D20001A1D01001A1D02001A1D40001A1D80001A2001001A202B
:208B800002001A2004001A2008001A2010001A202000761AFF690006FE027622761F002B59
:208B90002820FFFF2821FFFF2822FFFF2823FFFF2824FFFF2825FFFF2826FFFF2827FFFF79
:208BA000761A761FCFFF9238964192399641923A9641923B9641923C9641923D9641923E1D
:208BB0009641923F9641761F002B402F6D039A016F029A00FE82FF690006FE04761F030455
:208BC000922C0A2C5200610556BF012B0B2C6F715CADDC835CA4764080A776408F2376402E
:208BD000820576408F2B761F03040B2C56BF01449244520363233B015CADDC830EA4814495
:208BE0008AA992C461178F00C12FA8A981448AA99B0192C495A9520097C4610C761F0304C6
:208BF00056BF012B8F00C12FA8A981448AA90BC46F050A449244520364E056BF014492442C
:208C0000520363378F00C12C3B01A8A981448AA992C4602F8F00C12FA8A981448AA992C461
:208C100061248F00C12CA8A981448AA90AC476408F236F07764084166F09764086856F0650
:208C20009244520161F8520261F976408F2B3B018F00C12FA8A981448AA90BC48F00C12C45
:208C3000A8A981448AA90BC40A449244520364CBFE840006FE0656BF01452842C5AC284139
:208C400037A7E80218B0E20300447640907576408D0D761F03048A1002001EC4764086AC4E
:208C5000E2AF0042E2AF014476408EFC761F03048A10BE0006C46002BE017E4576408F2311
:208C60007640906E9245611B761F03048A10B600BE0006C46002BE0192A66002B601761F72
:208C700003047F2A9A00932ABE00530061029A0152006002BE017E45924560E7764087AE8F
:208C8000764090729A00FE8600063ABDB2BDAABDA2BDFE022901BFA90F12FF58615B5CA802
:208C9000917F08A800801E4293A4FFD65CA8BFA90F1661675DA8917F08A8008059A858A978
:208CA00093A5FFD65DA893A471A518A8010097A618A400FF18A500FFDC7F92A49EA596A7CF
:208CB000644D08A9FF01623E93A192A0FF3659A858A90642FF35F60E1FA15BA901A3F60A1D
:208CC0001FA1562D04A22DA336A0FF40F60B1FA1FF339B00FF30FF540CA295A3FF4008A7E2
:208CD0000001F61FFF770920FF4008A70001F61FFF77FF5A92A7652208A9FF016313A9A9C3
:208CE000FF46917F5BA85AA925A695A7FF960CA295A3BDA90F12FE8282BE86BE8BBE8EBE77
:208CF00000069B00FF5708A8FF7FFF5A93A660F228A8800071AA92AB6FEDFF2000006FEADF
:208D0000FF5A93A418A80100FF965CA8A9A908A8FF7F1CA88000CBA46FDD76408AD89A0A2E
:208D10009B0276408AE076408B317622761F01C02B1B56BF011A761A7622761F002C18357A
:208D2000FFF81834FFF71834FFFBCC3400C0FFC560FD1834FFFCCC38FFC750189638CC3888
:208D3000FFF8500396380620900018A8FFBC1AA994A951031E20062C900018A8FFBC1AA948
:208D400094A951031E2C062E900018A8FFBC1AA994A951031E2E761AFF6976408D6AF606B8
:208D500077003B1076260000762F0000FF6976408F9776408FE376408D897640904E76229C
:208D6000761F01BE02001E021E041E121E14761AFF6900067622761F01BE0200C4261AA960
:208D7000FFFF1AA8FFFF1E2606169B00900F1AA8FFFF1AA9FFF01E1602001AA9FFFFC42836
:208D80001E28060891FF1AA8FF001E08761AFF6900068F000C00761F0304A8220200761F72
:208D9000003019011E022B062B071A0400101A0400200200761F03041E248F000C08A8124D
:208DA0008F000C10A81A761F003019011E0A761F0030020019011E12761F00302B0E2B0FF6
:208DB000761F00302B162B17761F00301A0C0010761F00301A140010761F00301A0C002052
:208DC000761F00301A140020761F030402001E141E1C0006FE08E2030146E2030044A8422B
:208DD00006441EE48A4206461EF4E2AF0044E2AF0146E70000087700E68800007700E20330
:208DE00000488A428AC406481ED48A428AC42BF48A428AC42BFC8A428AC41AE400108A4263
:208DF0008AC41AE400208A428AC418E4FBFF8A428AC418E4F7FF8A428AC41AE440008A42B7
:208E000002001ED4FE880006FE0E9647E2030046A8442B4A92C4FFC1964B92C49003964C9B
:208E1000E5A0AD1465039A016F07E5A0AD1463039A026F029A00964D2901584D8F00C1002E
:208E20005603024C560100A49294964E6F0C56BF3F486F1256BF38486F0F56BF07486F0CFC
:208E30002B486F0A92471BA9FFFF61F5520061F0520161F46FF69248CE4E610E414B6C0335
:208E4000424E6D05444B6C05454E6C039A006F02924E964E6F022B4E5603024E96498A44FF
:208E5000CA4D96C4924E90386104284AFFFF6F08924E9007610456BF014A6F022B4A924A9F
:208E6000FE8E000628AD0400FF69561F5616561AE61002002940761F00002902761B764066
:208E7000907652006142762228A9907928A800000901611B76C0907929046F0F9B0024A9CD
:208E8000DF016C04290424A8DF011EA6F7A1248606A781A109011EA724A96303FF5C3B0438
:208E900059A9DF010009FFEC28A9FFFF28A8FFFF090161058F3FFFFF76408FBF761A7640C9
:208EA000907828A9FFFF28A8FFFF0901610E76FFFFFF6F06DF01C3BD1EA73E67C5BE24A992
:208EB000DF0124A8FF5860F77640902176408F70761BFFF00005ABBDA8BDA0BDC2BDC3BD7E
:208EC000E20000BDE20300BDE20301BDE20302BDE20303BDE6300600FE02FF69294256160A
:208ED000761F0033922296411822FFBFF6057700762FFFFE56BF0121762300012910FF69B1
:208EE00076408BBD3B109241761F00339622FE82E2AF03BEE2AF02BEE2AF01BEE2AF00BE14
:208EF000E28000BEC5BEC4BE83BE8ABE87BE00033B30FFF176177602FE04E2030144E203FB
:208F0000004276408D89E8024BA0E2AF01428F00C122E8092000E302084476408DCA761F44
:208F100000301804FFEF7622761F00358F008EB8A80C761A761F00331A22004076230001AE
:208F2000FF69FE8400063B10761F00331A2200402910FF6900063B10761F00331822FFBF00
:208F3000F6057700762FFFFE56BF01212910FF690006FE047D447C4397429641761F01C4A3
:208F40001800CFFFCC00F0FF1AA9040096001A000080CC18FFE150069618181C3FFF5603E6
:208F5000071DFFA6CCA901FFCD1DFE00CAA8961D1800FFBF1A1800C01818FFFE9241900F4F
:208F6000CD02FFF0CAA896021800FFEF92429603924396041A014000FE84000677006F007E
:208F7000B2BD761F030459A99232610D28ABFFFF28AAFFFF28A9FFFF28A8FFFF0FAB610346
:208F8000767FFFFF761F0304C5383E67761F0304063661041EA792A13E67761F03040634F0
:208F900061031EA73E6776408F6E8BBE00063B10761F00331820FFFE2B222B242B262B2869
:208FA0002B2A2B2C2B2E2B302B322B342B362B382B232B252B272B292B2B2B2D2B2F2B3129
:208FB0002B332B352B372B39FF690006761F00331A2000012821FFFF2910FF690006B2BD4F
:208FC000AABDA2BDFE0882A4D1005ACB6F155CAD2901560303A107A3DC8809025CA483A9B0
:208FD000020876409003064261068A448346764090035ACBD90192A254A166EAFE8882BE61
:208FE00086BE8BBE0006FE068F00C000A8428F000D00A84476222B4592455280630D834431
:208FF0008A42A0A9C4840902A8421E44C2C50A459245528064F5761A761F00331A20000142
:20900000FF69FE8600065200A8AB8EA4610880A9DF8188A780857F80000EFFFE88A90FA671
:20901000610F5300610D9DFF5CA876BFFFFE92859680000EFFFE92859680000CFFF8A9A488
:20902000000628ABFFFF28AAFFFF28A9FFFF28A8FFFF0FAB6004BE00D4006F0928ABFFFFF3
:2090300028AAFFFFA9A488C409028AA992A676408C3A00067622761F01C01A1C0008FF692B
:2090400076780080761A761F01C456BFE0188F0249E6FF69A8A97640910600067622761FB2
:2090500001BECC06FF3F50409606CC06F3FF1AA904009606761AFF690006761F0304A83A62
:209060000006761F0304A83800060006561F7622B9C028290068761A00408E6229102920E1
:12907000FF6900063B10FF69000600069A01000600061A
:20907900FFA8C1C000000000404000004040000000000000000000003F8000003F80000031
:20908900000000003F8000003F800000000000003F8000003F800000000000003F8000000C
:209099003F8000000000000044FA000044FA00000000A5E33D9BA5E33D9B000000000000BC
:2090A900C3DC8000C3930000C32A0000C220000042AA0000435C000043D700003F800000FF
:2090B90040000000404000004080000040A0000040C0000040E00000BF8000003F80000019
:2090C9003F800000000000000000000000000000000000000000FFFFC12A00000000FFFFE1
:2090D900C12B00000000FFFDC12C0000000000000000FFFDC12F0000000000000000FFFFB8
:2090E900C13200000001FFFEC134000000000000FFFEC136000000000000FFFEC138000097
:1A90F90090650000FFFEC13A000090650000FFFFC14100000000000000007B
:08910600190156C3FFFF00062A
:00000001FF
