:0400000000408C4CE4
:20800000FE02A842761F03048A109B0092DC520060029B018A4297CC8A109B0092E45200BB
:2080100060029B018A4297D4FE820006761F03048A109B0092DC520060029B0197EC8A10E9
:2080200092DC600792E49B00520060029B0197F4020207108AA90ACC8A101BDC01F369026B
:208030002BDC020207108AA90AD48A101BE4138769022BE40006FE04A044A8428A448342E7
:2080400092C496C5FE840006FE0897489647A846E2030044E5A0AD14650792479B0054484C
:2080500063029B0197C4FE880006FE04A044A8428A44834292C496C5FE840006FE089748A7
:208060009647A846E2030044E5A0AD14650792489B00544763029B0197C4FE880006FE065E
:20807000A846E2030144E2030042E2AF0044E2AF0142E71000407700E20300C4FE86000627
:20808000FE10764080166F1006101E4806121E4A6F29060C1E48060E1E4A6F2406081E4878
:20809000060A1E4A6F1F761F0305E2AF0000E68C000077007700BFA90F12520161E65202C5
:2080A00061E96FED061C1E44061E1E466F1806181E44061A1E466F1306141E4406161E4605
:2080B0006F0EE2AF0002E68C000077007700BFA90F12520161E8520261EB6FEF761F01C4C3
:2080C0001A0140001A1900101A01200040196CFFF60B77009208FFC30EA9BDA90F1277007A
:2080D000770077007700E68B0000761F0306E203001A761F01C49209FFC30EA9BDA90F1228
:2080E0007700770077007700E68B0000761F0306E203001C761F01C4920AFFC30EA9BDA9BF
:2080F0000F127700770077007700E68B0000761F0306E203001E761F01C4920BFFC30EA9F1
:20810000BDA90F127700770077007700E68B0000761F0306E2030020761F03059A00E2AF20
:208110000020761F0306E2AF011CE6940001AD1462029A01964B9318E2AF00448F00C1B047
:20812000FF697640805E924B93188F00C1B1E2AF0046764080449A00E2AF001A761F030587
:20813000E2AF0122E6940001AD1462029A01964CE801FC00E2030044761F03069A00931471
:20814000BE00530061029A0152006002BE017E4E93159A00BE00530061029A0152006002CC
:20815000BE017E4F924E9B0052006104924F61029B01974D924D6107924C6005924B6003C3
:20816000060A1E44924D6109924C6007924B6105E801FC00E2030044924D6109924C61071F
:20817000924B6005E805FC00E2030044924E9B0052006104921561029B01974E924E610994
:20818000924C6007924B6005E805FC00E2030044924E6107924C6005924B6103060A1E4408
:20819000924E6109924C6107924B6105E801FC00E203004492149B0052006104924F6102B2
:2081A0009B01974E924E6109924C6007924B6005E801FC00E2030044924E6107924C6105D3
:2081B000924B6003060A1E44924E6109924C6107924B6105E805FC00E203004492149B00D7
:2081C00052006104921561029B01974E924E6109924C6007924B6105E805FC00E203004479
:2081D000924E6109924C6107924B6005E801FC00E2030044924E6107924C6105924B6103E2
:2081E000060A1E44E2AF00449A00E811FC00AD1460029A013B0185A9BDA90F12770077000C
:2081F00077007700E68900007700E203002806441E0A9A019330E2AF010A530060049331A7
:2082000060029A0085A9BDA90F127700770077007700E68900008F00C190E30201107640D6
:20821000806F924C9319E2AF00488F00C1B27640805E924C93198F00C1B3E2AF004A764048
:2082200080449A01933253006004933360029A003B0185A9BDA90F12770077007700E2AFBA
:20823000010AE68900008F00C192E30041127640806F761F0305E2AF0028761F0306E2AF72
:208240000112E70000087700E2030048761F0305E2AF0126761F0306E2AF0010E7000009F4
:20825000E2AF0348E71000C87700E2030048761F03048A1092EC61050648761F03061E2289
:20826000761F0306E2AF0028E5A0AD146106761F01BF1A0A00046F05761F01BF1A0C00048A
:20827000924B761F03069618924C9614924B9615924C9619FE900006FE06761F03048A105A
:2082800092F46105761F0306060C1E24761F0306E2AF0022E2AF0124E72000087700E2038E
:208290000046761F0305E2AF0146E2AF002EE6940001AD146507E72000087700E2030046FB
:2082A0006F10E2AF002CE6940001AD146405E590E20300466F06E72000087700E203004617
:2082B000E2AF0130E70000087700E20300469A00E5A0AD1465029A013B0185A9BDA90F1288
:2082C0007700770077007700E6890000761F0306E203002CE5A0AD146106761F01BF1A0385
:2082D00000206F05761F01BF1A050020E2AF0046E6950000E2030044E801F801E69400018E
:2082E000AD14630AE8121380AD146306E8021380E20300446F11E811F800AD146205E590E5
:2082F000E20300446F09E8121640AD146405E8021640E2030044761F01A1E2AF0244E2C436
:208300000105E801E118E7000051E80EB850E70000407700E68E000077007700BFA90F12B6
:20831000960A92F46105761F030606221E26FE860006FE04761F01BFCC010100FFC70EA98B
:20832000BDA90F127700770077007700E68B0000761F0306E203002E8F00C1819A01764096
:2083300089EF964352006105761F030606261E2A761F03069216600856BF011656BF01170B
:20834000284403206F1192175201600DE2AF002AE5A0AD14650556BF02172B446F052844BD
:2083500003206F022B44E2C800447700E203000CFE840006FE02761F03048A10F6072B844A
:208360008F00C19AF6192B848F00C18AF60F2B84E590761F0306E203000E92006007764012
:208370008C25761F030656BF01002B419A03D400D50028A8103276408B24761F0305062A92
:20838000761F03061E247622761F01BE1808F3FF1A0B0020761A761F01A12805FA00CC0000
:20839000C04050309600180300002B041807FFA028097D002B0A56BF240B280C0108180D26
:2083A000FF3F180EFFF0180FFFC02B102B11921990F01AA911019619CC1ACCFC1AA91101DB
:2083B000961A181EF80076222B12CC14FFF0500F96141815FFF9761A7622761F01BE180960
:2083C000FFFC180BFEFF761A76221816FFCF1A1A0004761A761F030656BF0301761F030542
:2083D0009204761F03069618761F03059236761F03069614761F03059237761F030696154F
:2083E000761F03050624761F03061E0A761F03050632761F03061E10761F03059205761F86
:2083F00003069619761F03050634761F03061E12761F0305062A761F03061E0CFF698F0084
:20840000C1B08F40C178764080558F00C1B18F40C1797640803B8F00C1B28F40C17A76401B
:2084100080558F00C1B38F40C17B7640803B761F03050606761F03061E2A2B162B17FE8266
:2084200000060006761BFFF0E20000BDE63006002942561676256F00761BFFF0E20000BDF5
:20843000E63006002942561676256F00761BFFF0E20000BDE63006002942561676256F0013
:20844000761BFFF0E20000BDE63006002942561676256F00761BFFF0E20000BDE6300600C5
:208450002942561676256F00761BFFF0E20000BDE63006002942561676256F00761BFFF08F
:20846000E20000BDE63006002942561676256F00761BFFF0E20000BDE6300600294256164E
:2084700076256F00761BFFF0E20000BDE63006002942561676256F00761BFFF0E20000BDA7
:20848000E63006002942561676256F00761BFFF0E20000BDE63006002942561676256F00C3
:20849000761BFFF0E20000BDE63006002942561676256F00761BFFF0E20000BDE630060075
:2084A0002942561676256F00761BFFF0E20000BDE63006002942561676256F00761BFFF03F
:2084B000E20000BDE63006002942561676256F00761BFFF0E20000BDE630060029425616FE
:2084C00076256F00761BFFF0E20000BDE63006002942561676256F00761BFFF0E20000BD57
:2084D000E63006002942561676256F00761BFFF0E20000BDE63006002942561676256F0073
:2084E000761BFFF0E20000BDE63006002942561676256F00761BFFF0E20000BDE630060025
:2084F0002942561676256F00761BFFF0E20000BDE63006002942561676256F00761BFFF0EF
:20850000E20000BDE63006002942561676256F00761BFFF0E20000BDE630060029425616AD
:2085100076256F00761BFFF0E20000BDE63006002942561676256F00761BFFF0E20000BD06
:20852000E63006002942561676256F00761BFFF0E20000BDE63006002942561676256F0022
:20853000761BFFF0E20000BDE63006002942561676256F00761BFFF0E20000BDE6300600D4
:208540002942561676256F00761BFFF0E20000BDE63006002942561676256F00761BFFF09E
:20855000E20000BDE63006002942561676256F00761BFFF0E20000BDE6300600294256165D
:2085600076256F00761BFFF0E20000BDE63006002942561676256F00761BFFF0E20000BDB6
:20857000E63006002942561676256F00761BFFF0E20000BDE63006002942561676256F00D2
:20858000761BFFF0E20000BDE63006002942561676256F00761BFFF0E20000BDE630060084
:208590002942561676256F00761BFFF0E20000BDE63006002942561676256F00761BFFF04E
:2085A000E20000BDE63006002942561676256F00761BFFF0E20000BDE6300600294256160D
:2085B00076256F00761BFFF0E20000BDE63006002942561676256F00761BFFF0E20000BD66
:2085C000E63006002942561676256F00761BFFF0E20000BDE63006002942561676256F0082
:2085D000761BFFF0E20000BDE63006002942561676256F00761BFFF0E20000BDE630060034
:2085E0002942561676256F00761BFFF0E20000BDE63006002942561676256F00761BFFF0FE
:2085F000E20000BDE63006002942561676256F00761BFFF0E20000BDE630060029425616BD
:2086000076256F00761BFFF0E20000BDE63006002942561676256F00761BFFF0E20000BD15
:20861000E63006002942561676256F00761BFFF0E20000BDE63006002942561676256F0031
:20862000761BFFF0E20000BDE63006002942561676256F00761BFFF0E20000BDE6300600E3
:208630002942561676256F00761BFFF0E20000BDE63006002942561676256F00761BFFF0AD
:20864000E20000BDE63006002942561676256F00761BFFF0E20000BDE6300600294256166C
:2086500076256F00761BFFF0E20000BDE63006002942561676256F00761BFFF0E20000BDC5
:20866000E63006002942561676256F00761BFFF0E20000BDE63006002942561676256F00E1
:20867000761BFFF0E20000BDE63006002942561676256F00761BFFF0E20000BDE630060093
:208680002942561676256F00761BFFF0E20000BDE63006002942561676256F00761BFFF05D
:20869000E20000BDE63006002942561676256F00761BFFF0E20000BDE6300600294256161C
:2086A00076256F00761BFFF0E20000BDE63006002942561676256F00761BFFF0E20000BD75
:2086B000E63006002942561676256F00761BFFF0E20000BDE63006002942561676256F0091
:2086C000761BFFF0E20000BDE63006002942561676256F00761BFFF0E20000BDE630060043
:2086D0002942561676256F00761BFFF0E20000BDE63006002942561676256F00761BFFF00D
:2086E000E20000BDE63006002942561676256F00761BFFF0E20000BDE630060029425616CC
:2086F00076256F00761BFFF0E20000BDE63006002942561676256F00761BFFF0E20000BD25
:20870000E63006002942561676256F00761BFFF0E20000BDE63006002942561676256F0040
:20871000761BFFF0E20000BDE63006002942561676256F00761BFFF0E20000BDE6300600F2
:208720002942561676256F00761BFFF0E20000BDE63006002942561676256F00761BFFF0BC
:20873000E20000BDE63006002942561676256F007640874B9A0A9B0276408753764087A453
:2087400000067622761F01C056BF552556BFAA25761AFF6900067622761F01C056BF682920
:20875000761AFF690006FE0297429641761F01C043116C027625CC110180FFC66105762287
:208760001811FE7F761A0E411EA69221900F80A906A60FA7611676221A1100409241CD2198
:20877000FFF0900FCAA89621761AFF697640874B92119001520160FD76221811FFBF761ABF
:208780009242520161035202600976229003CD11FE7FFF86CAA89611761A92425203601242
:208790007622CC11FE7F1AA9010096118F0005DAFF69A8A976408CD0761F01C01A11018031
:2087A000761AFE82FF6900067622761F01C056BF011A56BF021B761F002CCC35FFF85001E1
:2087B00096351A3400041834FFF7761F01C01A1C0008FF6976780080761F01C01A1C001044
:2087C0001A1C04001A1C08001A1C00201A1C01001A1C10001A1C20001A1C40001A1C8000CC
:2087D000181CFFFB1A1D00011A1D00021A1D00041A1D00081A1D00101A1D00201A1C000498
:2087E0001A1D04001A1D08001A1D10001A1D20001A1D01001A1D02001A1D40001A1D8000C2
:2087F0001A2001001A2002001A2004001A2008001A2010001A202000761AFF690006FE02D0
:208800007622761F002B2820FFFF2821FFFF2822FFFF2823FFFF2824FFFF2825FFFF2826FF
:20881000FFFF2827FFFF761A761FCFFF9238964192399641923A9641923B9641923C9641DB
:20882000923D9641923E9641923F9641761F002B402F6D039A016F029A00FE82FF69000610
:20883000FE04761F0304922C0A2C5200610556BF012B0B2C6F715CADDC835CA476408000E8
:2088400076408B0E7640808076408B16761F03040B2C56BF01449244520363233B015CAD99
:20885000DC830EA481448AA992C461178F00C12FA8A981448AA99B0192C495A9520097C48C
:20886000610C761F030456BF012B8F00C12FA8A981448AA90BC46F050A449244520364E0E6
:2088700056BF01449244520363378F00C12C3B01A8A981448AA992C4602F8F00C12FA8A913
:2088800081448AA992C461248F00C12CA8A981448AA90AC476408B0E6F077640827C6F0981
:20889000764083196F069244520161F8520261F976408B163B018F00C12FA8A981448AA976
:2088A0000BC48F00C12CA8A981448AA90BC40A449244520364CBFE840006FE0656BF0145C6
:2088B0002842C5AC284137A7E80218B0E203004476408C5B764088F8761F03048A100200A0
:2088C0001EC47640835AE2AF0042E2AF014476408AE7761F03048A10BE0006C46002BE0174
:2088D0007E4576408B0E76408C549245611B761F03048A10B600BE0006C46002BE0192A6C0
:2088E0006002B601761F03047F2A9A00932ABE00530061029A0152006002BE017E459245A7
:2088F00060E77640842176408C589A00FE8600067640874B9A0A9B0276408753764087A4CE
:208900007622761F01C02B1B56BF011A761A7622761F002C1835FFF81834FFF71834FFFB3E
:20891000CC3400C0FFC560FD1834FFFCCC38FFC750189638CC38FFF850039638062090004D
:2089200018A8FFBC1AA994A951031E20062C900018A8FFBC1AA994A951031E2C062E90008B
:2089300018A8FFBC1AA994A951031E2E761AFF6976408955F60677003B1076260000762F81
:208940000000FF6976408B8276408BCE7640897476408C397622761F01BE02001E021E047F
:208950001E121E14761AFF6900067622761F01BE0200C4261AA9FFFF1AA8FFFF1E260616EE
:208960009B00900F1AA8FFFF1AA9FFF01E1602001AA9FFFFC4281E28060891FF1AA8FF00C3
:208970001E08761AFF6900068F000C00761F0304A8220200761F003019011E022B062B075E
:208980001A0400101A0400200200761F03041E248F000C08A8128F000C10A81A761F0030FC
:2089900019011E0A761F0030020019011E12761F00302B0E2B0F761F00302B162B17761F5F
:2089A00000301A0C0010761F00301A140010761F00301A0C0020761F00301A140020761F9B
:2089B000030402001E141E1C0006FE08E2030146E2030044A84206441EE48A4206461EF471
:2089C000E2AF0044E2AF0146E70000087700E68800007700E20300488A428AC406481ED418
:2089D0008A428AC42BF48A428AC42BFC8A428AC41AE400108A428AC41AE400208A428AC493
:2089E00018E4FBFF8A428AC418E4F7FF8A428AC41AE440008A4202001ED4FE880006FE0EC5
:2089F0009647E2030046A8442B4A92C4FFC1964B92C49003964CE5A0AD1465039A016F077D
:208A0000E5A0AD1463039A026F029A00964D2901584D8F00C1005603024C560100A4929439
:208A1000964E6F0C56BF3F486F1256BF38486F0F56BF07486F0C2B486F0A92471BA9FFFF51
:208A200061F5520061F0520161F46FF69248CE4E610E414B6C03424E6D05444B6C05454E3B
:208A30006C039A006F02924E964E6F022B4E5603024E96498A44CA4D96C4924E903861042A
:208A4000284AFFFF6F08924E9007610456BF014A6F022B4A924AFE8E000628AD0400FF695E
:208A5000561F5616561AE61002002940761F00002902761B76408C5C52006142762228A907
:208A60008C5F28A800000901611B76C08C5F29046F0F9B0024A9DF016C04290424A8DF0158
:208A70001EA6F7A1248606A781A109011EA724A96303FF5C3B0459A9DF010009FFEC28A9CE
:208A8000FFFF28A8FFFF090161058F3FFFFF76408BAA761A76408C5E28A9FFFF28A8FFFF16
:208A90000901610E76FFFFFF6F06DF01C3BD1EA73E67C5BE24A9DF0124A8FF5860F776403B
:208AA0008C0C76408B5B761BFFF00005ABBDA8BDA0BDC2BDC3BDE20000BDE20300BDE203AE
:208AB00001BDE20302BDE20303BDE6300600FE02FF6929425616761F0033922296411822B7
:208AC000FFBFF6057700762FFFFE56BF0121762300012910FF69764088303B109241761F31
:208AD00000339622FE82E2AF03BEE2AF02BEE2AF01BEE2AF00BEE28000BEC5BEC4BE83BE73
:208AE0008ABE87BE00033B30FFF176177602FE04E2030144E203004276408974E8024BA0AB
:208AF000E2AF01428F00C122E8092000E3020844764089B5761F00301804FFEF7622761FEE
:208B000000358F008AA3A80C761A761F00331A22004076230001FF69FE8400063B10761F72
:208B100000331A2200402910FF6900063B10761F00331822FFBFF6057700762FFFFE56BFBB
:208B200001212910FF690006FE047D447C4397429641761F01C41800CFFFCC00F0FF1AA97C
:208B3000040096001A000080CC18FFE150069618181C3FFF5603071DFFA6CCA901FFCD1D36
:208B4000FE00CAA8961D1800FFBF1A1800C01818FFFE9241900FCD02FFF0CAA896021800AB
:208B5000FFEF92429603924396041A014000FE84000677006F00B2BD761F030459A99232A1
:208B6000610D28ABFFFF28AAFFFF28A9FFFF28A8FFFF0FAB6103767FFFFF761F0304C5389F
:208B70003E67761F0304063661041EA792A13E67761F0304063461031EA73E6776408B5928
:208B80008BBE00063B10761F00331820FFFE2B222B242B262B282B2A2B2C2B2E2B302B3241
:208B90002B342B362B382B232B252B272B292B2B2B2D2B2F2B312B332B352B372B39FF690E
:208BA0000006761F00331A2000012821FFFF2910FF690006B2BDAABDA2BDFE0882A4D1008C
:208BB0005ACB6F155CAD2901560303A107A3DC8809025CA483A9020876408BEE064261069F
:208BC0008A44834676408BEE5ACBD90192A254A166EAFE8882BE86BE8BBE0006FE068F006B
:208BD000C000A8428F000D00A84476222B4592455280630D83448A42A0A9C4840902A84219
:208BE0001E44C2C50A459245528064F5761A761F00331A200001FF69FE8600065200A8AB11
:208BF0008EA4610880A9DF8188A780857F80000EFFFE88A90FA6610F5300610D9DFF5CA84C
:208C000076BFFFFE92859680000EFFFE92859680000CFFF8A9A4000628ABFFFF28AAFFFFC6
:208C100028A9FFFF28A8FFFF0FAB6004BE00D4006F0928ABFFFF28AAFFFFA9A488C409023A
:208C20008AA992A6764088AD00067622761F01C01A1C0008FF6976780080761A761F01C4EC
:208C300056BFE0188F0249E6FF69A8A976408CD000067622761F01BECC06FF3F504096065E
:208C4000761AFF690006761F0304A83A0006761F0304A83800060006561F7622B9C0282933
:1E8C50000068761A00408A4D29102920FF6900063B10FF69000600069A0100060006A1
:208C5F00FFC4C14000000000404000004040000000000000000000003F8000003F800000B3
:208C6F00000000003F8000003F800000000000003F8000003F800000000000003F8000002A
:208C7F003F8000000000000044FA000044FA00000000A5E33D9BA5E33D9B000000000000DA
:208C8F00BF8000003F80CCCD3DCC0000000000000000000000000000000000000000FFFF27
:208C9F00C12A00000000FFFFC12B00000000FFFDC12C0000000000000000FFFDC12F00000B
:208CAF00000000000000FFFFC13200000001FFFEC134000000000000FFFEC13600000000CD
:208CBF000000FFFEC13800008C4B0000FFFEC13A00008C4B0000FFFFC180000000000000BA
:028CCF000000A3
:088CD000190156C3FFFF000665
:00000001FF
