:040000000040883301
:20800000761BFFF0E20000BDE63006002942561676256F00761BFFF0E20000BDE630060009
:208010002942561676256F00761BFFF0E20000BDE63006002942561676256F00761BFFF0D3
:20802000E20000BDE63006002942561676256F00761BFFF0E20000BDE63006002942561692
:2080300076256F00761BFFF0E20000BDE63006002942561676256F00761BFFF0E20000BDEB
:20804000E63006002942561676256F00761BFFF0E20000BDE63006002942561676256F0007
:20805000761BFFF0E20000BDE63006002942561676256F00761BFFF0E20000BDE6300600B9
:208060002942561676256F00761BFFF0E20000BDE63006002942561676256F00761BFFF083
:20807000E20000BDE63006002942561676256F00761BFFF0E20000BDE63006002942561642
:2080800076256F00761BFFF0E20000BDE63006002942561676256F00761BFFF0E20000BD9B
:20809000E63006002942561676256F00761BFFF0E20000BDE63006002942561676256F00B7
:2080A000761BFFF0E20000BDE63006002942561676256F00761BFFF0E20000BDE630060069
:2080B0002942561676256F00761BFFF0E20000BDE63006002942561676256F00761BFFF033
:2080C000E20000BDE63006002942561676256F00761BFFF0E20000BDE630060029425616F2
:2080D00076256F00761BFFF0E20000BDE63006002942561676256F00761BFFF0E20000BD4B
:2080E000E63006002942561676256F00761BFFF0E20000BDE63006002942561676256F0067
:2080F000761BFFF0E20000BDE63006002942561676256F00761BFFF0E20000BDE630060019
:208100002942561676256F00761BFFF0E20000BDE63006002942561676256F00761BFFF0E2
:20811000E20000BDE63006002942561676256F00761BFFF0E20000BDE630060029425616A1
:2081200076256F00761BFFF0E20000BDE63006002942561676256F00761BFFF0E20000BDFA
:20813000E63006002942561676256F00761BFFF0E20000BDE63006002942561676256F0016
:20814000761BFFF0E20000BDE63006002942561676256F00761BFFF0E20000BDE6300600C8
:208150002942561676256F00761BFFF0E20000BDE63006002942561676256F00761BFFF092
:20816000E20000BDE63006002942561676256F00761BFFF0E20000BDE63006002942561651
:2081700076256F00761BFFF0E20000BDE63006002942561676256F00761BFFF0E20000BDAA
:20818000E63006002942561676256F00761BFFF0E20000BDE63006002942561676256F00C6
:20819000761BFFF0E20000BDE63006002942561676256F00761BFFF0E20000BDE630060078
:2081A0002942561676256F00761BFFF0E20000BDE63006002942561676256F00761BFFF042
:2081B000E20000BDE63006002942561676256F00761BFFF0E20000BDE63006002942561601
:2081C00076256F00761BFFF0E20000BDE63006002942561676256F00761BFFF0E20000BD5A
:2081D000E63006002942561676256F00761BFFF0E20000BDE63006002942561676256F0076
:2081E000761BFFF0E20000BDE63006002942561676256F00761BFFF0E20000BDE630060028
:2081F0002942561676256F00761BFFF0E20000BDE63006002942561676256F00761BFFF0F2
:20820000E20000BDE63006002942561676256F00761BFFF0E20000BDE630060029425616B0
:2082100076256F00761BFFF0E20000BDE63006002942561676256F00761BFFF0E20000BD09
:20822000E63006002942561676256F00761BFFF0E20000BDE63006002942561676256F0025
:20823000761BFFF0E20000BDE63006002942561676256F00761BFFF0E20000BDE6300600D7
:208240002942561676256F00761BFFF0E20000BDE63006002942561676256F00761BFFF0A1
:20825000E20000BDE63006002942561676256F00761BFFF0E20000BDE63006002942561660
:2082600076256F00761BFFF0E20000BDE63006002942561676256F00761BFFF0E20000BDB9
:20827000E63006002942561676256F00761BFFF0E20000BDE63006002942561676256F00D5
:20828000761BFFF0E20000BDE63006002942561676256F00761BFFF0E20000BDE630060087
:208290002942561676256F00761BFFF0E20000BDE63006002942561676256F00761BFFF051
:2082A000E20000BDE63006002942561676256F00761BFFF0E20000BDE63006002942561610
:2082B00076256F00761BFFF0E20000BDE63006002942561676256F00761BFFF0E20000BD69
:2082C000E63006002942561676256F00761BFFF0E20000BDE63006002942561676256F0085
:2082D000761BFFF0E20000BDE63006002942561676256F00761BFFF0E20000BDE630060037
:2082E0002942561676256F00761BFFF0E20000BDE63006002942561676256F00761BFFF001
:2082F000E20000BDE63006002942561676256F00761BFFF0E20000BDE630060029425616C0
:2083000076256F00761BFFF0E20000BDE63006002942561676256F00761BFFF0E20000BD18
:20831000E63006002942561676256F00FE06761F03060600761F03051E02E2AF0002E5A0D3
:20832000AD146106761F01BF1A0300016F05761F01BF1A050001761F0306E2AF0024761FD1
:208330000307E2AF0102E70000087700E2030044761F01A5E2AF0244E2C40105E801E11860
:20834000E7000051E80EB850E70000407700E68E000077007700BFA90F12960A2B45924577
:20835000521163153B019C018F00C180560301A9560100A4C4C4560301458F00C18056013D
:2083600000A4C2C40A459245521164EE761F03040620761F03061E222B459245520E631539
:208370003B019C018F00C1A4560301A9560100A4C4C4560301458F00C1A4560100A4C2C486
:208380000A459245520E64EE761F03040620761F03071E002B459245521363153B019C0189
:208390008F00C1C2560301A9560100A4C4C4560301458F00C1C2560100A4C2C40A459245DD
:2083A000521364EE761F03040622761F03071E28FE860006FE02761F03048A0002001EC4C9
:2083B0008F00C142F6012B848F00C180F6692B847622761F01BE1808FFFC1A0B0001761ADA
:2083C000761F01A52805FA00CC00C04050309600180300002B041807FFA028097D00280A71
:2083D0007D0056BF240B280C0108180DFF3F180EFFF0180FFFC02B102B11921990F01AA9CC
:2083E00011019619CC1ACCFC1AA91101961A181EF80076222B12CC14FFF0500F9614181581
:2083F000FFF9761A2B419241521263103B01761F0304C41A560301418F00C180560100A4B3
:20840000C2C40A419241521264F32B419241520F63103B01761F0304C41C560301418F0008
:20841000C1A4560100A4C2C40A419241520F64F32B419241521463103B01761F0304C41EBE
:20842000560301418F00C1C2560100A4C2C40A419241521464F3FE82FF6900060006764089
:2084300084429A0A9B027640844A7640849B00067622761F01C056BF552556BFAA25761AD5
:20844000FF6900067622761F01C056BF6829761AFF690006FE0297429641761F01C04311C2
:208450006C027625CC110180FFC6610576221811FE7F761A0E411EA69221900F80A906A672
:208460000FA7611676221A1100409241CD21FFF0900FCAA89621761AFF697640844292113D
:208470009001520160FD76221811FFBF761A9242520161035202600976229003CD11FE7FCE
:20848000FF86CAA89611761A9242520360127622CC11FE7F1AA9010096118F0005DAFF69E0
:20849000A8A97640887C761F01C01A110180761AFE82FF6900067622761F01C056BF011A23
:2084A00056BF021B761F002CCC35FFF8500196351A3400041834FFF7761F01C01A1C00088D
:2084B000FF6976780080761F01C01A1C00101A1C04001A1C08001A1C00201A1C01001A1CFF
:2084C00010001A1C20001A1C40001A1C8000181CFFFB1A1D00011A1D00021A1D00041A1DF9
:2084D00000081A1D00101A1D00201A1C00041A1D04001A1D08001A1D10001A1D20001A1D5D
:2084E00001001A1D02001A1D40001A1D80001A2001001A2002001A2004001A2008001A20E3
:2084F00010001A202000761AFF690006FE027622761F002B2820FFFF2821FFFF2822FFFFD7
:208500002823FFFF2824FFFF2825FFFF2826FFFF2827FFFF761A761FCFFF92389641923985
:208510009641923A9641923B9641923C9641923D9641923E9641923F9641761F002B402F64
:208520006D039A016F029A00FE82FF690006764084429A0A9B027640844A7640849B762289
:20853000761F01C02B1B56BF011A761A7622761F002C1835FFF81834FFF71834FFFBCC34AA
:2085400000C0FFC560FD1834FFFCCC38FFC750189638CC38FFF8500396380620900018A861
:20855000FFBC1AA994A951031E20062C900018A8FFBC1AA994A951031E2C062E900018A85F
:20856000FFBC1AA994A951031E2E761AFF6976408584F60677003B1076260000762F0000EA
:20857000FF697640877D764087C9764085A3764088207622761F01BE02001E021E041E1227
:208580001E14761AFF6900067622761F01BE0200C4261AA9FFFF1AA8FFFF1E2606169B0057
:20859000900F1AA8FFFF1AA9FFF01E1602001AA9FFFFC4281E28060891FF1AA8FF001E080C
:2085A000761AFF6900068F000C00761F0304A8120200761F003019011E022B062B071A044A
:2085B00000101A0400200200761F03041E148F000C08A8028F000C10A80A761F0030190104
:2085C0001E0A761F0030020019011E12761F00302B0E2B0F761F00302B162B17761F00301D
:2085D0001A0C0010761F00301A140010761F00301A0C0020761F00301A140020761F030498
:2085E00002001E041E0C0006FE08E2030146E2030044A84206441EE48A4206461EF4E2AFDB
:2085F0000044E2AF0146E70000087700E68800007700E20300488A428AC406481ED48A42B1
:208600008AC42BF48A428AC42BFC8A428AC41AE400108A428AC41AE400208A428AC418E436
:20861000FBFF8A428AC418E4F7FF8A428AC41AE440008A4202001ED4FE880006761F030404
:20862000922F0A2F5200610556BF012E0B2F6F0A7640873E7640831676408746761F0304A8
:208630000B2F0006FE0656BF01452842CCCD28413DCCE80218B0E203004476408842764005
:208640008527761F03048A0002001EC4764083AAE2AF0042E2AF014476408717761F0304E8
:208650008A00BE0006C46002BE017E457640873E7640883B9245611B761F03048A00B600F1
:20866000BE0006C46002BE0192A66002B601761F03047F309A009330BE00530061029A0149
:2086700052006002BE017E45924560E77640842E7640883F9A00FE86000628AD0400FF694C
:20868000561F5616561AE61002002940761F00002902761B7640884352006142762228A9F8
:20869000884628A800000901611B76C0884629046F0F9B0024A9DF016C04290424A8DF0166
:2086A0001EA6F7A1248606A781A109011EA724A96303FF5C3B0459A9DF010009FFEC28A9A2
:2086B000FFFF28A8FFFF090161058F3FFFFF764087A5761A7640884528A9FFFF28A8FFFF10
:2086C0000901610E76FFFFFF6F06DF01C3BD1EA73E67C5BE24A9DF0124A8FF5860F776400F
:2086D000880776408756761BFFF00005ABBDA8BDA0BDC2BDC3BDE20000BDE20300BDE20394
:2086E00001BDE20302BDE20303BDE6300600FE02FF6929425616761F00339222964118228B
:2086F000FFBFF6057700762FFFFE56BF0121762300012910FF697640861E3B109241761F19
:2087000000339622FE82E2AF03BEE2AF02BEE2AF01BEE2AF00BEE28000BEC5BEC4BE83BE46
:208710008ABE87BE00033B30FFF176177602FE04E2030144E2030042764085A3E8024BA053
:20872000E2AF01428F00C112E8092000E3020844764085E4761F00301804FFEF7622761FA6
:2087300000358F0086D3A80C761A761F00331A22004076230001FF69FE8400063B10761F1A
:2087400000331A2200402910FF6900063B10761F00331822FFBFF6057700762FFFFE56BF8F
:2087500001212910FF69000677006F00B2BD761F030459A99228610D28ABFFFF28AAFFFF84
:2087600028A9FFFF28A8FFFF0FAB6103767FFFFF761F0304C5323E67761F0304062C6104E0
:208770001EA792A13E67761F0304062A61031EA73E67764087548BBE00063B10761F0033BF
:208780001820FFFE2B222B242B262B282B2A2B2C2B2E2B302B322B342B362B382B232B25E6
:208790002B272B292B2B2B2D2B2F2B312B332B352B372B39FF690006761F00331A200001CA
:2087A0002821FFFF2910FF690006B2BDAABDA2BDFE0882A4D1005ACB6F155CAD2901560364
:2087B00003A107A3DC8809025CA483A90208764087E9064261068A448346764087E95ACBFF
:2087C000D90192A254A166EAFE8882BE86BE8BBE0006FE068F00C000A8428F000D00A84428
:2087D00076222B4592455280630D83448A42A0A9C4840902A8421E44C2C50A45924552806E
:2087E00064F5761A761F00331A200001FF69FE8600065200A8AB8EA4610880A9DF8188A7A3
:2087F00080857F80000EFFFE88A90FA6610F5300610D9DFF5CA876BFFFFE92859680000E36
:20880000FFFE92859680000CFFF8A9A4000628ABFFFF28AAFFFF28A9FFFF28A8FFFF0FABE0
:208810006004BE00D4006F0928ABFFFF28AAFFFFA9A488C409028AA992A6764086320006B6
:208820007622761F01BECC07FF3F50409607761AFF690006761F0304A8340006761F0304F6
:20883000A83200060006561F7622B9C028290068761A0040867D29102920FF6900063B10F5
:0C884000FF69000600069A010006000611
:20884600FFF3C11A0000000000000000000000003F80000042C8000000000012000F001447
:20885600FFFFC12800000001FFFEC12A000000000000FFFEC12C000000000000FFFFC12E5B
:2088660000000000FFFFC12F00000000FFFFC13000000000FFFEC132000088320000FFFE6E
:0C887600C1340000883200000000000047
:08887C00190156C3FFFF0006BD
:00000001FF
