:0400000000408EB975
:20800000FE02A842026A761F0330072A8AA99B0092C4520060029B018A4297D4026B072AC8
:208010008AA99B0092C4520060029B018A4297DCFE8200060269761F0330072A8AA992C42A
:20802000600C026A072A8AA9BE0092C46002BE01026C072A8AA97EC40268072A8AA90AD40F
:20803000026A072A8AA91BC401F36905026A072A8AA92BC40268072A8AA90ADC026B072A0E
:208040008AA91BC413876905026B072A8AA92BC40006FE04A044A8428A44834292C496C52C
:20805000FE840006FE0897489647A846E2030044E5A0AD14650792479B00544863029B01EC
:2080600097C4FE880006FE04A044A8428A44834292C496C5FE840006FE0897489647A846CD
:20807000E2030044E5A0AD14650792489B00544763029B0197C4FE880006FE06A846E20346
:208080000144E2030042E2AF0044E2AF0142E71000407700E20300C4FE860006FE02761F55
:2080900003169A00E2AF002CE5A0AD1460029A013B0185A9BDA90F12770077007700770050
:2080A000E6890000FE820006FE10A04AA848768004E206A68A4A834876408E4F28AC001243
:2080B0002B4F924F5202FFE300EC8F0004E0A8A9074A8AA9020107C41E4C8F000271A8A960
:2080C0000F4CFFE600A82B50925052E363379C013B01560301A9074A8AA956030150A3C41B
:2080D000074A8AA918AA7FFF06C4900018A88000CAABCBAA1E4E404E6D052901FF401E4E07
:2080E0006F082901FF401CA9B0DF1CA899081E4E92503B0108A9018D560301A9074A8AA997
:2080F000064E70C471CC1EA656030150074A8AA9C2C40A50925052E364CB2B501B50018C20
:20810000633A9AE33B019450560301A9074A8AA99AE49450A3C4560301A9074A8AA918AB8B
:20811000000018AA800006C418A87FFFCAABCBAA1E4E404E6D052901FF401E4E6F08290139
:20812000FF401CA9B0DF1CA899081E4E3B0156030150074A8AA9064E70C471CC1EA69AE36B
:208130009450560301A9074A8AA9C2C40A501B50018C64C88F0004DEA8A9074A8AA9A3C413
:208140008A4A18AB000018AA800006C418A87FFFCAABCBAA1E4E404E6D052901FF401E4E13
:208150006F082901FF401CA9B0DF1CA899081E4E8F000318A8A9074A8AA9064E70C471CCC6
:208160001EA68F0004DEA8A9074A8AA9C2C402011E4C924C3B019CFF560301A9074A8AA9C6
:2081700006C41E4EC44C8F0004E0A8A9074A8AA9C2C42901064EFF4AF24EF34D064EFF360B
:2081800018A9568018A89D2CF24EF34D064EFF3E900018A8EFC6F24EF34D5CADDC865CA4BE
:208190003B015603014F560100A4064E5622704E714D1EC40A4F924F5202FFE4FF180646F1
:2081A0002901FF44BDA90F120644FF45BDA90F1E7700E68B00007700E8532001E68B001866
:2081B0007700E71000407700E84940008A54E20300C48A54E2AF00C4E5A0AD14FFE1FEF249
:2081C000FE900006FE0A0204761F032A0F2E6030761F03178F01F31D0200A306F61F5617F2
:2081D00000A43F4A884AA8AC06068F0041A7566500A6A8AC03AB566500A9A94628AC0B1410
:2081E000304A1E480F4669070346FF5518A87FFF1E066F04064603481E06E28400067700CA
:2081F000E84C00007700E2030044FFEF008302050F2E60308F010DCD761F0317A8AC56652E
:2082000000088F12D687A9A9560100A4A846060AFF3C700A710B1E4828AC00115622F248DF
:20821000F3470648FF34F248F34706461E0806481E0A0746BDA90F12770077007700770087
:20822000E68B00007700E84BE0007700E20300446F509237603B768004E28F00C5CCD500AF
:2082300006A676408E9A8F001571A846761F0317A80C2B491B49026F63223B01064628AC14
:20824000001E5C4928AB896528AA6C075622DC0170467145A9AC566500A985A407AB1E469C
:208250009249C4468F00C5CC9C01560301A9560100A4C2C40A491B49026F64E18F0002707A
:20826000761F032AA82C56BF01378F0004E2A8A98F40C5CC8F00C0C076408E4F5CAD8F407B
:20827000C5CCDC840EA48F00C0C01E42764080A4E2AF0044FE8A000602070006FE107640CC
:20828000801A6F10060E1E4806101E4A6F29060A1E48060C1E4A6F2406061E4806081E4ACA
:208290006F1F761F032BE2AF0000E68C000077007700BFA90F12520161E6520261E96FED6F
:2082A000061A1E44061C1E466F1806161E4406181E466F1306121E4406141E466F0EE2AFA7
:2082B0000002E68C000077007700BFA90F12520161E8520261EB6FEF761F01C41A01400074
:2082C0001A1900101A01200040196CFFF60B77009208FFC30EA9BDA90F12770077007700E5
:2082D0007700E68B0000761F0316E2030022761F01C49209FFC30EA9BDA90F12770077000E
:2082E00077007700E68B0000761F0316E2030024761F032B9A00E2AF001E761F0316E2AF1D
:2082F0000124E6940001AD1462029A01964B761F032AE2AF00448F00C5B2FF6993357640AA
:20830000806C924B93358F00C5B3E2AF004676408052761F03169A00E2AF0022761F032BA8
:20831000E2AF0120E6940001AD1462029A01964CE801FC00E2030044761F032A9A00933150
:20832000BE00530061029A0152006002BE017E4E93329A00BE00530061029A0152006002CD
:20833000BE017E4F924E9B0052006104924F61029B01974D924D6109924C6007924B6005DB
:20834000761F031706001E44924D6109924C6007924B6105E801FC00E2030044924D6109DE
:20835000924C6107924B6005E805FC00E2030044924E9B0052006106761F032A9232610256
:208360009B01974E924E6109924C6007924B6005E805FC00E2030044924E6109924C60070A
:20837000924B6105761F031706001E44924E6109924C6107924B6105E801FC00E2030044B2
:20838000761F032A9B00923152006104924F61029B01974E924E6109924C6007924B600570
:20839000E801FC00E2030044924E6109924C6107924B6005761F031706001E44924E61098C
:2083A000924C6107924B6105E805FC00E2030044761F032A9B009231520061049232610224
:2083B0009B01974E924E6109924C6007924B6105E805FC00E2030044924E6109924C6107B8
:2083C000924B6005E801FC00E2030044924E6109924C6107924B6105761F031706001E4463
:2083D000E2AF00449A00E811FC00AD1460029A013B0185A9BDA90F1277007700770077009E
:2083E000E6890000761F0316E203002A761F031706441E00761F03169A019332761F03177D
:2083F0005300E2AF01006006761F0316933360029A0085A9BDA90F12770077007700761F03
:208400000317E68900008F00C5C2E30201027640807D761F032A924CE2AF00488F00C5B4A1
:2084100093367640806C924C93368F00C5B5E2AF004A764080529A01761F0316933453006B
:208420006004933560029A003B0185A9BDA90F1277007700761F0317E2AF0100E689000085
:208430008F00C5C4E30041047640807D761F032BE2AF0026761F0317E2AF0104E70000088B
:208440007700E2030048761F032BE2AF0124761F0317E2AF0002E7000009E2AF0348E710FA
:2084500000C87700E2030048761F0330026C072A8AA992C4610B0648761F03161E26761F6F
:20846000032B0628761F03161E28761F0316E2AF002AE5A0AD146106761F01BF1A0A000419
:208470006F05761F01BF1A0C0004924B761F032A9635924C9631924B9632924C9636025E3B
:20848000761F0330072A8AA9020107C41EC460070260072A8AA90201560100C4025E072A24
:208490008AA90262E28400C4072A8AA90260E2AF01C4072A8AA90262E28402C4072A8AA997
:2084A000026EE30043C4E700009A072AE853E0118AA9E71000408AC4E20300C40264072A8C
:2084B0008AA90201560100C40264072A8AA906C460070266072A8AA90201560100C4FE90E8
:2084C0000006FE02761F032A1B3001FF67020A309233FFE000C156BF013356BF0534FFEFFC
:2084D00000D156BF0434E8021640761F0316E203002E06261E30FFEF00C5761F0316E802A8
:2084E0001D98E2AF0126E80C0000E6940001AD14650D761F032A56BF08342B30E590761FF5
:2084F0000316E203002EFFEF00ADE590E203002CE8021640E203002E06261E30FFEF00A2C2
:20850000761F0316E2AF0026E8121DA0AD14650D761F032A56BF08342B30E590761F03167B
:20851000E203002EFFEF008EE801FC00E203002CE8021640E203002E06261E30FFEF008289
:20852000761F0316E2AF0026E5A0AD14630C761F032A56BF06342B30E590761F0316E203AD
:20853000002E6F6FE8021640E203002E06261E306F6856BF06342B30E590761F0316E203C9
:20854000002E6F5F92305214680456BF07346F59E590761F0316E203002E6F53761F0316CD
:20855000E2AF0028E5A0AD146011761F032A56BF0234E590761F0316E203002CE80216401A
:20856000E203002E06261E306F3CE811FC00AD146038761F032A56BF0334E801FC00761FED
:208570000316E203002CE8021640E203002E06261E306F271B30012C680856BF0134764076
:20858000808EE203002C6F1DE590761F0316E203002E6F1792345204620D5204619252014D
:20859000FFE1FF415202FFE1FF4A5203FFE1FF6A6FE25205619F520661A6520761B06FDBD5
:2085A000761F0316E2AF002CE5A0AD146106761F01BF1A0300206F05761F01BF1A05002009
:2085B000761F0316E2AF0030E5A0AD146106761F01BF1A0300206F05761F01BF1A050020F5
:2085C000761F01A1E2C40105E801E118761F0316E2AF022EE7000051E80EB850E70000400A
:2085D0007700E68E00007700761F01A1BFA90F12960AFE820006764081C20006FE02761FAF
:2085E00003308A2AF6772B848A2A026D072A1EE4026E072A1EA60228072A8AA9C2C4026245
:2085F000072A1EA60210072A8AA9C2C4C42A0250072A8AA9C2C48A2A062A1ED48A2A8AE458
:2086000056BF01C40208072A8AA98F40CC18A0C40270072A1EA6026E072A8AA9C2C40262D6
:20861000072A8AA9E801BD38E80E2D60E20300C4D500768004F68F00C0C006A676408E9A7E
:20862000768004F8D5008F00C5C006A676408E9A761F03009200600776408E86761F0300E2
:2086300056BF01002B419A01D400D5009B1076408D857622761F01BE1808F3FF1A0B0020AE
:20864000761A76221808F3FF1A0B0020761A761F01A12805FA00CC00C040503096001803B0
:2086500000002B041807FFA028097D002B0A56BF240B280C0108180DFF3F180EFFF0180F1A
:20866000FFC02B102B11921990F01AA911019619CC1ACCFC1AA91101961A181EF80076221C
:208670002B12CC14FFF0500F96141815FFF9761A7622761F01BE1816FFCF1A1A0004761A70
:20868000FF697640827C761F032A1E2E28A9B78228A84431761F03171E0628A955E528A8B3
:20869000159A1E0828A93BB528A81F121E0A761F032B9204761F032A9635761F032B922EA2
:2086A000761F032A9631761F032B922F761F032A9632761F032B0622761F03171E00761FD6
:2086B000032B062A761F03171E02761F032B9205761F032A9636761F032B062C761F0317F1
:2086C0001E048F00C5B28F40CAF0764080638F00C5B38F40CAF1764080498F00C5B48F4069
:2086D000CAF2764080638F00C5B58F40CAF376408049761F032A2B302B332B34FE820006C1
:2086E0000006761BFFF0E20000BDE63006002942561676256F00761BFFF0E20000BDE63023
:2086F00006002942561676256F00761BFFF0E20000BDE63006002942561676256F00761BD6
:20870000FFF0E20000BDE63006002942561676256F00761BFFF0E20000BDE6300600294228
:20871000561676256F00761BFFF0E20000BDE63006002942561676256F00761BFFF0E20055
:2087200000BDE63006002942561676256F00761BFFF0E20000BDE6300600294256167625D2
:208730006F00761BFFF0E20000BDE63006002942561676256F00761BFFF0E20000BDE63069
:2087400006002942561676256F00761BFFF0E20000BDE63006002942561676256F00761B85
:20875000FFF0E20000BDE63006002942561676256F00761BFFF0E20000BDE63006002942D8
:20876000561676256F00761BFFF0E20000BDE63006002942561676256F00761BFFF0E20005
:2087700000BDE63006002942561676256F00761BFFF0E20000BDE630060029425616762582
:208780006F00761BFFF0E20000BDE63006002942561676256F00761BFFF0E20000BDE63019
:2087900006002942561676256F00761BFFF0E20000BDE63006002942561676256F00761B35
:2087A000FFF0E20000BDE63006002942561676256F00761BFFF0E20000BDE6300600294288
:2087B000561676256F00761BFFF0E20000BDE63006002942561676256F00761BFFF0E200B5
:2087C00000BDE63006002942561676256F00761BFFF0E20000BDE630060029425616762532
:2087D0006F00761BFFF0E20000BDE63006002942561676256F00761BFFF0E20000BDE630C9
:2087E00006002942561676256F00761BFFF0E20000BDE63006002942561676256F00761BE5
:2087F000FFF0E20000BDE63006002942561676256F00761BFFF0E20000BDE6300600294238
:20880000561676256F00761BFFF0E20000BDE63006002942561676256F00761BFFF0E20064
:2088100000BDE63006002942561676256F00761BFFF0E20000BDE6300600294256167625E1
:208820006F00761BFFF0E20000BDE63006002942561676256F00761BFFF0E20000BDE63078
:2088300006002942561676256F00761BFFF0E20000BDE63006002942561676256F00761B94
:20884000FFF0E20000BDE63006002942561676256F00761BFFF0E20000BDE63006002942E7
:20885000561676256F00761BFFF0E20000BDE63006002942561676256F00761BFFF0E20014
:2088600000BDE63006002942561676256F00761BFFF0E20000BDE630060029425616762591
:208870006F00761BFFF0E20000BDE63006002942561676256F00761BFFF0E20000BDE63028
:2088800006002942561676256F00761BFFF0E20000BDE63006002942561676256F00761B44
:20889000FFF0E20000BDE63006002942561676256F00761BFFF0E20000BDE6300600294297
:2088A000561676256F00761BFFF0E20000BDE63006002942561676256F00761BFFF0E200C4
:2088B00000BDE63006002942561676256F00761BFFF0E20000BDE630060029425616762541
:2088C0006F00761BFFF0E20000BDE63006002942561676256F00761BFFF0E20000BDE630D8
:2088D00006002942561676256F00761BFFF0E20000BDE63006002942561676256F00761BF4
:2088E000FFF0E20000BDE63006002942561676256F00761BFFF0E20000BDE6300600294247
:2088F000561676256F00761BFFF0E20000BDE63006002942561676256F00761BFFF0E20074
:2089000000BDE63006002942561676256F00761BFFF0E20000BDE6300600294256167625F0
:208910006F00761BFFF0E20000BDE63006002942561676256F00761BFFF0E20000BDE63087
:2089200006002942561676256F00761BFFF0E20000BDE63006002942561676256F00761BA3
:20893000FFF0E20000BDE63006002942561676256F00761BFFF0E20000BDE63006002942F6
:20894000561676256F00761BFFF0E20000BDE63006002942561676256F00761BFFF0E20023
:2089500000BDE63006002942561676256F00761BFFF0E20000BDE6300600294256167625A0
:208960006F00761BFFF0E20000BDE63006002942561676256F00761BFFF0E20000BDE63037
:2089700006002942561676256F00761BFFF0E20000BDE63006002942561676256F00761B53
:20898000FFF0E20000BDE63006002942561676256F00761BFFF0E20000BDE63006002942A6
:20899000561676256F00761BFFF0E20000BDE63006002942561676256F00761BFFF0E200D3
:2089A00000BDE63006002942561676256F00761BFFF0E20000BDE630060029425616762550
:2089B0006F00761BFFF0E20000BDE63006002942561676256F00761BFFF0E20000BDE630E7
:2089C00006002942561676256F00761BFFF0E20000BDE63006002942561676256F00761B03
:2089D000FFF0E20000BDE63006002942561676256F00761BFFF0E20000BDE6300600294256
:2089E000561676256F00761BFFF0E20000BDE63006002942561676256F00761BFFF0E20083
:2089F00000BDE63006002942561676256F0076408A0A9A0A9B0276408A1276408A63000627
:208A00007622761F01C056BF552556BFAA25761AFF6900067622761F01C056BF6829761AD3
:208A1000FF690006FE0297429641761F01C043116C027625CC110180FFC66105762218112B
:208A2000FE7F761A0E411EA69221900F80A906A60FA7611676221A1100409241CD21FFF00F
:208A3000900FCAA89621761AFF6976408A0A92119001520160FD76221811FFBF761A924255
:208A4000520161035202600976229003CD11FE7FFF86CAA89611761A9242520360127622BB
:208A5000CC11FE7F1AA9010096118F0005DAFF69A8A976408F37761F01C01A110180761A0C
:208A6000FE82FF6900067622761F01C056BF011A56BF021B761F002CCC35FFF850019635E3
:208A70001A3400041834FFF7761F01C01A1C0008FF6976780080761F01C01A1C00101A1C16
:208A800004001A1C08001A1C00201A1C01001A1C10001A1C20001A1C40001A1C8000181C0B
:208A9000FFFB1A1D00011A1D00021A1D00041A1D00081A1D00101A1D00201A1C00041A1DD2
:208AA00004001A1D08001A1D10001A1D20001A1D01001A1D02001A1D40001A1D80001A20FC
:208AB00001001A2002001A2004001A2008001A2010001A202000761AFF690006FE027622AF
:208AC000761F002B2820FFFF2821FFFF2822FFFF2823FFFF2824FFFF2825FFFF2826FFFFD7
:208AD0002827FFFF761A761FCFFF9238964192399641923A9641923B9641923C9641923D48
:208AE0009641923E9641923F9641761F002B402F6D039A016F029A00FE82FF690006FE0619
:208AF000761F032B92360A365200610556BF01350B366F715CADDC845CA476408000764022
:208B00008D6F7640827E76408D77761F032B0B3656BF01459245520463233B015CADDC8432
:208B10000EA481458AA992C461178F00CAFAA8A981458AA99B0192C495A9520097C4610CE5
:208B2000761F032B56BF01358F00CAFAA8A981458AA90BC46F050A459245520464E056BF72
:208B300002459245520463378F00CAF63B01A8A981458AA992C4602F8F00CAFAA8A98145F3
:208B40008AA992C461248F00CAF6A8A981458AA90AC476408D6F6F07764084C16F0976404F
:208B500085DB6F069245520261F8520361F976408D773B018F00CAFAA8A981458AA90BC49B
:208B60008F00CAF6A8A981458AA90BC40A459245520464CBFE860006FE0656BF014528428F
:208B7000C5AC284137A7E80218B0E203004476408EC876408BB7761F03308A2A02001EC4EE
:208B8000764085DEE2AF0042E2AF014476408D48761F03308A2ABE0006C46002BE017E45A0
:208B900076408D6F76408EC19245611B761F03308A2AB600BE0006C46002BE0192A6600246
:208BA000B601761F032B7F349A009334BE00530061029A0152006002BE017E45924560E7C4
:208BB000764086E076408EC59A00FE86000676408A0A9A0A9B0276408A1276408A63762244
:208BC000761F01C02B1B56BF011A761A7622761F002C1835FFF81834FFF71834FFFBCC3414
:208BD00000C0FFC560FD1834FFFCCC38FFC750189638CC38FFF8500396380620900018A8CB
:208BE000FFBC1AA994A951031E20062C900018A8FFBC1AA994A951031E2C062E900018A8C9
:208BF000FFBC1AA994A951031E2E761AFF6976408C14F60677003B1076260000762F0000BD
:208C0000FF6976408DE376408E2F76408C3376408EA67622761F01BE02001E021E041E1294
:208C10001E14761AFF6900067622761F01BE0200C4261AA9FFFF1AA8FFFF1E2606169B00C0
:208C2000900F1AA8FFFF1AA9FFF01E1602001AA9FFFFC4281E28060891FF1AA8FF001E0875
:208C3000761AFF6900068F000C00761F032CA8100200761F003019011E022B062B071A048D
:208C400000101A0400200200761F032C1E128F000C08A8008F000C10A808761F003019014B
:208C50001E0A761F0030020019011E12761F00302B0E2B0F761F00302B162B17761F003086
:208C60001A0C0010761F00301A140010761F00301A0C0020761F00301A140020761F032CD9
:208C700002001E021E0A0006FE08E2030146E2030044A84206441EE48A4206461EF4E2AF48
:208C80000044E2AF0146E70000087700E68800007700E20300488A428AC406481ED48A421A
:208C90008AC42BF48A428AC42BFC8A428AC41AE400108A428AC41AE400208A428AC418E4A0
:208CA000FBFF8A428AC418E4F7FF8A428AC41AE440008A4202001ED4FE88000628AD040031
:208CB000FF69561F5616561AE61002002940761F00002902761B76408EC95200614276229F
:208CC00028A98ECC28A800000901611B76C08ECC29046F0F9B0024A9DF016C04290424A827
:208CD000DF011EA6F7A1248606A781A109011EA724A96303FF5C3B0459A9DF010009FFEC5D
:208CE00028A9FFFF28A8FFFF090161058F3FFFFF76408E0B761A76408ECB28A9FFFF28A80E
:208CF000FFFF0901610E76FFFFFF6F06DF01C3BD1EA73E67C5BE24A9DF0124A8FF5860F791
:208D000076408E6D76408DBC761BFFF00005ABBDA8BDA0BDC2BDC3BDE20000BDE20300BDB4
:208D1000E20301BDE20302BDE20303BDE6300600FE02FF6929425616761F003392229641A9
:208D20001822FFBFF6057700762FFFFE56BF0121762300012910FF6976408AEF3B10924168
:208D3000761F00339622FE82E2AF03BEE2AF02BEE2AF01BEE2AF00BEE28000BEC5BEC4BEBC
:208D400083BE8ABE87BE00033B30FFF176177602FE04E2030144E203004276408C33E80230
:208D50004BA0E2AF01428F00CB10E8092000E302084476408C74761F00301804FFEF76227B
:208D6000761F00358F008D04A80C761A761F00331A22004076230001FF69FE8400063B10AC
:208D7000761F00331A2200402910FF6900063B10761F00331822FFBFF6057700762FFFFED9
:208D800056BF01212910FF690006FE047D447C4397429641761F01C41800CFFFCC00F0FFC8
:208D90001AA9040096001A000080CC18FFE150069618181C3FFF5603071DFFA6CCA901FFFB
:208DA000CD1DFE00CAA8961D1800FFBF1A1800C01818FFFE9241900FCD02FFF0CAA8960277
:208DB0001800FFEF92429603924396041A014000FE84000677006F00B2BD761F032A59A9C5
:208DC0009238610D28ABFFFF28AAFFFF28A9FFFF28A8FFFF0FAB6103767FFFFF761F032A4A
:208DD000C53E3E67761F032A063C61041EA792A13E67761F032A063A61031EA73E6776404F
:208DE0008DBA8BBE00063B10761F00331820FFFE2B222B242B262B282B2A2B2C2B2E2B30F5
:208DF0002B322B342B362B382B232B252B272B292B2B2B2D2B2F2B312B332B352B372B39B7
:208E0000FF690006761F00331A2000012821FFFF2910FF690006B2BDAABDA2BDFE0882A492
:208E1000D1005ACB6F155CAD2901560303A107A3DC8809025CA483A9020876408E4F06426E
:208E200061068A44834676408E4F5ACBD90192A254A166EAFE8882BE86BE8BBE0006FE06CC
:208E30008F00CB18A8428F000D00A84476222B4592455280630D83448A42A0A9C4840902EE
:208E4000A8421E44C2C50A459245528064F5761A761F00331A200001FF69FE860006520017
:208E5000A8AB8EA4610880A9DF8188A780857F80000EFFFE88A90FA6610F5300610D9DFF9A
:208E60005CA876BFFFFE92859680000EFFFE92859680000CFFF8A9A4000628ABFFFF28AA5E
:208E7000FFFF28A9FFFF28A8FFFF0FAB6004BE00D4006F0928ABFFFF28AAFFFFA9A488C4E5
:208E800009028AA992A676408B6C00067622761F01C01A1C0008FF6976780080761A761F82
:208E900001C456BFE0188F0249E6FF69A8A976408F370006FF58C5A4610919011EA60200EB
:208EA000DE817D8719010FA660FB00067622761F01BECC06FF3F50409606761AFF690006F9
:208EB000761F032BA83E0006761F032AA83E00060006561F7622B9C028290068761A004030
:188EC0008CAE29102920FF6900063B10FF69000600069A01000600060A
:208ECC00FFCCCAC0000000004040000040400000000000003F8000003F80000000000000B3
:208EDC003F8000003F800000000000003F8000003F800000000000003F8000003F800000FC
:208EEC000000000044FA000044FA00000000A5E33D9BA5E33D9B00003F800000000000006B
:208EFC000000000000000000000000000000FFFFCAF400000000FFFFCAF500000000FFFCE2
:208F0C00CAF600000000000000000000FFFCCAFA00000000000000000000FFFFCAB8000046
:208F1C000001FFFECABA000000000000FFFECABC000000000000FFFECABE00008EB8000065
:168F2C00FFFECAFE00008EB80000FFFFC000000000000000000066
:088F3700190156C3FFFF0006FB
:00000001FF
