:0400000000408E929C
:20800000FE061E44064A1E42064476408E7F1E46FE860006FE02A842761F03048A009B00A4
:2080100092DC520060029B018A4297CCFE820006761F03048A009B0092DC520060029B015E
:2080200097E4020207008AA90ACC8A001BDC01F369022BDC0006FE04A044A8428A44834261
:2080300092C496C5FE840006FE0897489647A846E2030044E5A0AD14650792479B0054485C
:2080400063029B0197C4FE880006FE04A044A8428A44834292C496C5FE840006FE089748B7
:208050009647A846E2030044E5A0AD14650792489B00544763029B0197C4FE880006FE066E
:20806000A846E2030144E2030042E2AF0044E2AF0142E71000407700E20300C4FE86000637
:20807000FE04761F0306E2AF0006E5A0AD14600CE590E2030044E2AF0006E88FE000770004
:20808000E20300066F610616610AE2AF0002E8120000AD14601502050F166512E80200004E
:20809000E203004402011E42061676408000761F03061E16E801FC00E20300026F45E2AF0F
:2080A0000004E8120000AD14601002050F14650DE801FC00E2030044E2AF0006E88FE000F9
:2080B0007700E20300066F30E2AF0008E8120500AD14630DE8020200E2030044E2AF000838
:2080C000E88FE0007700E20300086F1EE2AF000AE8120500AD14630DE8020400E203004476
:2080D000E2AF000AE88FE0007700E203000A6F0CE8020500E2030044E2AF000CE88FE000B1
:2080E0007700E203000CE2AF0044FE840006FE04761F030606146107E2AF0004E811FC000F
:2080F000AD14601502050F146512E801FC00E203004402011E42061476408000761F03063A
:208100001E14E8020000E20300046F3B0616610AE2AF0002E811FC00AD14601502050F163F
:208110006512E8020000E203004402011E42061676408000761F03061E16E8020000E2036F
:2081200000026F1FE2AF0006E8120500AD14630E0614650CE590E2030044E2AF0006E88FB0
:20813000E0007700E20300066F0CE8020200E2030044E2AF0008E88FE0007700E203000809
:20814000E2AF0044FE840006FE10764080186F1006101E4806121E4A6F29060C1E48060EC7
:208150001E4A6F2406081E48060A1E4A6F1F761F0304E2AF0002E68C000077007700BFA9A3
:208160000F12520161E6520261E96FED061C1E44061E1E466F1806181E44061A1E466F1331
:2081700006141E4406161E466F0EE2AF0004E68C000077007700BFA90F12520161E8520208
:2081800061EB6FEF761F01C41A0140001A1900101A01200040196CFFF60B77009208FFC36A
:208190000EA9BDA90F127700770077007700E68B0000761F0305E2030008761F01C49209C5
:2081A000FFC30EA9BDA90F127700770077007700E68B0000761F0305E203000A761F01C48C
:2081B000920AFFC30EA9BDA90F127700770077007700E68B0000761F0305E203000C761FA3
:2081C00001C4920BFFC30EA9BDA90F127700770077007700E68B0000761F0305E203000E60
:2081D000761F03049A00E2AF0020761F0305E2AF010AE6940001AD1462029A01964B761FBE
:2081E0000306E2AF00448F00C160FF6993217640804E924B93218F00C161E2AF0046764082
:2081F0008034761F03059A00E2AF0008761F0304E2AF0122E6940001AD1462029A01964C7E
:20820000E801FC00E2030044761F03069A00931BBE00530061029A0152006002BE017E4E1C
:20821000931C9A00BE00530061029A0152006002BE017E4F924E9B0052006104924F610240
:208220009B01974D924D6107924C6005924B600306001E44924D6109924C6007924B6105BB
:20823000E801FC00E2030044924D6109924C6107924B6005E805FC00E2030044924E9B00C2
:2082400052006104921C61029B01974E924E6109924C6007924B6005E805FC00E2030044F2
:20825000924E6107924C6005924B610306001E44924E6109924C6107924B6105E801FC0022
:20826000E2030044921B9B0052006104924F61029B01974E924E6109924C6007924B600540
:20827000E801FC00E2030044924E6107924C6105924B600306001E44924E6109924C61071C
:20828000924B6105E805FC00E2030044921B9B0052006104921C61029B01974E924E6109AE
:20829000924C6007924B6105E805FC00E2030044924E6109924C6107924B6005E801FC007D
:2082A000E2030044924E6107924C6105924B610306001E44E2AF00449A00E811FC00AD143B
:2082B00060029A013B0185A9BDA90F127700770077007700E6890000761F0305E2030014DF
:2082C000761F030606441E00761F03059A019320761F03065300E2AF01006006761F030527
:2082D000932160029A0085A9BDA90F12770077007700761F0306E68900008F00C190E302F2
:2082E00001107640805F924CE2AF004893228F00C1627640804E924C93228F00C163E2AF5F
:2082F000004A764080349A01761F0305932253006004932360029A003B0185A9BDA90F1273
:2083000077007700761F0306E2AF0100E68900008F00C192E30041127640805F761F030487
:20831000E2AF0028761F0306E2AF0112E70000087700E2030048761F0304E2AF0126761FD6
:208320000306E2AF0010E7000009E2AF0348E71000C87700E2030048761F03048A0092E4C8
:2083300061050648761F03051E10761F03061B1AFFFF67020A1A921FFFE000B456BF011FD7
:2083400056BF0720E590E203000602001E141E16E2030008E203000AE203000CE203000463
:20835000E2030002FFEF00B656BF03202B1AFFEF00B156BF03202B1AFFEF00AC1B1AC35007
:20836000FFE800A856BF0520E805FC00761F0305E203001EFFEF009E56BF03202B1AFFEFB4
:208370000099761F0305E2AF000CE81223D0AD146313E2AF000EE8121E40AD14630D761F39
:20838000030656BF0420764080E7761F0305E590E203001E6F7EE8022800E2AF010CE809DB
:208390000000E6940001AD146512E2AF000EE8121E40AD14630C761F030656BF0120E80235
:2083A0000000761F0305E203001E6F63E2AF000CE81223D0AD14641CE8022800E80900007D
:2083B000E6940001AD146214E2AF000EE8121E40AD14630E761F030656BF02207640807057
:2083C000761F0305E801FC00E203001E6F42E2AF000EE8121E40AD146507761F030656BF90
:2083D00008202B1A6F36E805FC00E203001E6F3156BF0520E805FC00761F0305E203001E2C
:2083E0006F2856BF06206F251B1A3A98682256BF0520E805FC00761F0305E203001E6F193B
:2083F00092205204620E5204FFE1FF785201FFE1FF5D5202FFE1FF5F5203FFE1FF616FE53E
:208400005205FFE1FF70520661D4520761DB6FDD8F01FFFF761F0306A8A90F186904020134
:2084100056010018921DFFE0010756BF011D56BF051EE8021640761F0305E2030018FFEF14
:20842000011A8F011170A8A90F18FFE6011456BF091E02001E18E8021240761F0305E2036C
:20843000001AE801FC00E203001CFFEF01048F011170A8A90F18FFE600FE56BF091E02008F
:208440001E18E8021240761F0305E203001AE801FC00E203001CFFEF00EE8F011170A8A9EA
:208450000F18FFE600E856BF091E02001E18E8021240761F0305E203001AE801FC00E20302
:20846000001CFFEF00D88F00C350A8A90F18660A56BF0A1EE590761F0305E203001AFFEF54
:2084700000CAE590761F0305E203001CFFEF00C356BF0A1EE590761F0305E203001AFFEF22
:2084800000BA8F0186A0A8A90F18660D56BF031E02001E18E8021AE0761F0305E203001895
:20849000FFEF00A9E590761F0305E2030018FFEF00A28F0186A0A8A90F18660F56BF011EBF
:2084A00002001E18E8061EF0761F0305E80C0000E2030018FFEF008FE590761F0305E20386
:2084B0000018FFEF00888F0186A0A8A90F18660C56BF021E02001E18E8021EB8761F0305B4
:2084C000E20300186F77E590761F0305E20300186F718F00D6D8A8A90F18660B56BF041E6D
:2084D00002001E18E590761F0305E203001C6F62E8021240761F0305E203001AE801FC00B3
:2084E000E203001C6F57761F0305E2AF001EE811FC00AD14600D761F030656BF061E02006D
:2084F0001E18E590761F0305E20300186F43E5A0AD14600D761F030656BF071E02001E18B2
:20850000E590761F0305E20300186F34E8120000AD14600D761F030656BF081E02001E1870
:20851000E590761F0305E20300186F24E590E203001A6F20921E520562115205FFE1FF5A9C
:208520005201FFE1FF005202FFE1FF135203FFE1FF265204FFE1FF396FB75206FFE1FF534B
:208530005207FFE1FF685208FFE1FF7F520961926FAB761F03048A0092E46105761F0305CC
:2085400006181E12761F0305E2AF001CE5A0AD146106761F01BF1A0300026F05761F01BF99
:208550001A050002761F01A2E2C40105E801E118761F0305E2AF021AE7000051E80EB850A4
:20856000E70000407700E68E00007700761F01A2BFA90F12960A761F0305E2AF0014E5A04A
:20857000AD146106761F01BF1A0A00046F05761F01BF1A0C0004924B761F03069621924C43
:20858000961B924B961C924C9622FE900006FE06761F0305E2AF0010E2AF0112E72000087C
:208590007700E2030046761F0304E2AF0146E2AF002CE6940001AD146507E72000087700CA
:2085A000E20300466F10E2AF002AE6940001AD146405E590E20300466F06E7200008770016
:2085B000E2030046E2AF012EE70000087700E20300469A00E5A0AD1465029A013B0185A9E3
:2085C000BDA90F127700770077007700E6890000761F0305E2030016E5A0AD146106761FEF
:2085D00001BF1A0300206F05761F01BF1A050020E2AF0046E6950000E2030044E801F80129
:2085E000E6940001AD14630AE8121380AD146306E8021380E20300446F11E811F800AD1443
:2085F0006205E590E20300446F09E8121640AD146405E8021640E2030044761F01A1E2AF43
:208600000244E2C40105E801E118E7000051E80EB850E70000407700E68E00007700770050
:20861000BFA90F12960AFE860006FE02761F03048A00F6052B848F00C148F61B2B848F00E0
:20862000C180F6232B84E590761F0306E203000E761F03059200600776408E5C761F030558
:2086300056BF01002B419A03D400D50028A8103276408D5B7622761F01BE1808F3FF1A0B8F
:208640000020761A76221808FFF31A0B0002761A761F01A12805FA00CC00C04050309600C9
:20865000180300002B041807FFA028097D002B0A56BF240B280C0108180DFF3F180EFFF026
:20866000180FFFC02B102B11921990F01AA911019619CC1ACCFC1AA91101961A181EF8008D
:2086700076222B12CC14FFF0500F96141815FFF9761A761F01A22805FA00CC00C0405030DD
:208680009600180300002B041807FFA028097D002B0A56BF240B280C0108180DFF3F180E4F
:20869000FFF0180FFFC02B102B11921990F01AA911019619CC1ACCFC1AA91101961A181E66
:2086A000F80076222B12CC14FFF0500F96141815FFF9761A7622761F01BE1816FFCF1A1A44
:2086B0000004761A761F03049206761F03069621761F03049234761F0306961B761F030440
:2086C0009235761F0306961C761F03040624761F03061E00761F03040630761F03061E1063
:2086D000761F03049207761F03069622761F03040632761F03061E12FF698F00C1608F4076
:2086E000C136764080458F00C1618F40C1377640802B8F00C1628F40C138764080458F00AB
:2086F000C1638F40C1397640802B2B1A2B1F2B2002001E182B1D2B1EFE8200060006761B5C
:20870000FFF0E20000BDE63006002942561676256F00761BFFF0E20000BDE6300600294228
:20871000561676256F00761BFFF0E20000BDE63006002942561676256F00761BFFF0E20055
:2087200000BDE63006002942561676256F00761BFFF0E20000BDE6300600294256167625D2
:208730006F00761BFFF0E20000BDE63006002942561676256F00761BFFF0E20000BDE63069
:2087400006002942561676256F00761BFFF0E20000BDE63006002942561676256F00761B85
:20875000FFF0E20000BDE63006002942561676256F00761BFFF0E20000BDE63006002942D8
:20876000561676256F00761BFFF0E20000BDE63006002942561676256F00761BFFF0E20005
:2087700000BDE63006002942561676256F00761BFFF0E20000BDE630060029425616762582
:208780006F00761BFFF0E20000BDE63006002942561676256F00761BFFF0E20000BDE63019
:2087900006002942561676256F00761BFFF0E20000BDE63006002942561676256F00761B35
:2087A000FFF0E20000BDE63006002942561676256F00761BFFF0E20000BDE6300600294288
:2087B000561676256F00761BFFF0E20000BDE63006002942561676256F00761BFFF0E200B5
:2087C00000BDE63006002942561676256F00761BFFF0E20000BDE630060029425616762532
:2087D0006F00761BFFF0E20000BDE63006002942561676256F00761BFFF0E20000BDE630C9
:2087E00006002942561676256F00761BFFF0E20000BDE63006002942561676256F00761BE5
:2087F000FFF0E20000BDE63006002942561676256F00761BFFF0E20000BDE6300600294238
:20880000561676256F00761BFFF0E20000BDE63006002942561676256F00761BFFF0E20064
:2088100000BDE63006002942561676256F00761BFFF0E20000BDE6300600294256167625E1
:208820006F00761BFFF0E20000BDE63006002942561676256F00761BFFF0E20000BDE63078
:2088300006002942561676256F00761BFFF0E20000BDE63006002942561676256F00761B94
:20884000FFF0E20000BDE63006002942561676256F00761BFFF0E20000BDE63006002942E7
:20885000561676256F00761BFFF0E20000BDE63006002942561676256F00761BFFF0E20014
:2088600000BDE63006002942561676256F00761BFFF0E20000BDE630060029425616762591
:208870006F00761BFFF0E20000BDE63006002942561676256F00761BFFF0E20000BDE63028
:2088800006002942561676256F00761BFFF0E20000BDE63006002942561676256F00761B44
:20889000FFF0E20000BDE63006002942561676256F00761BFFF0E20000BDE6300600294297
:2088A000561676256F00761BFFF0E20000BDE63006002942561676256F00761BFFF0E200C4
:2088B00000BDE63006002942561676256F00761BFFF0E20000BDE630060029425616762541
:2088C0006F00761BFFF0E20000BDE63006002942561676256F00761BFFF0E20000BDE630D8
:2088D00006002942561676256F00761BFFF0E20000BDE63006002942561676256F00761BF4
:2088E000FFF0E20000BDE63006002942561676256F00761BFFF0E20000BDE6300600294247
:2088F000561676256F00761BFFF0E20000BDE63006002942561676256F00761BFFF0E20074
:2089000000BDE63006002942561676256F00761BFFF0E20000BDE6300600294256167625F0
:208910006F00761BFFF0E20000BDE63006002942561676256F00761BFFF0E20000BDE63087
:2089200006002942561676256F00761BFFF0E20000BDE63006002942561676256F00761BA3
:20893000FFF0E20000BDE63006002942561676256F00761BFFF0E20000BDE63006002942F6
:20894000561676256F00761BFFF0E20000BDE63006002942561676256F00761BFFF0E20023
:2089500000BDE63006002942561676256F00761BFFF0E20000BDE6300600294256167625A0
:208960006F00761BFFF0E20000BDE63006002942561676256F00761BFFF0E20000BDE63037
:2089700006002942561676256F00761BFFF0E20000BDE63006002942561676256F00761B53
:20898000FFF0E20000BDE63006002942561676256F00761BFFF0E20000BDE63006002942A6
:20899000561676256F00761BFFF0E20000BDE63006002942561676256F00761BFFF0E200D3
:2089A00000BDE63006002942561676256F00761BFFF0E20000BDE630060029425616762550
:2089B0006F00761BFFF0E20000BDE63006002942561676256F00761BFFF0E20000BDE630E7
:2089C00006002942561676256F00761BFFF0E20000BDE63006002942561676256F00761B03
:2089D000FFF0E20000BDE63006002942561676256F00761BFFF0E20000BDE6300600294256
:2089E000561676256F00761BFFF0E20000BDE63006002942561676256F00761BFFF0E20083
:2089F00000BDE63006002942561676256F00761BFFF0E20000BDE630060029425616762500
:208A00006F00761BFFF0E20000BDE63006002942561676256F00761BFFF0E20000BDE63096
:208A100006002942561676256F0076408A289A0A9B0276408A3076408A8100067622761F52
:208A200001C056BF552556BFAA25761AFF6900067622761F01C056BF6829761AFF69000672
:208A3000FE0297429641761F01C043116C027625CC110180FFC6610576221811FE7F761A6C
:208A40000E411EA69221900F80A906A60FA7611676221A1100409241CD21FFF0900FCAA8EB
:208A50009621761AFF6976408A2892119001520160FD76221811FFBF761A92425201610371
:208A60005202600976229003CD11FE7FFF86CAA89611761A9242520360127622CC11FE7FF8
:208A70001AA9010096118F0005DAFF69A8A976408F10761F01C01A110180761AFE82FF6985
:208A800000067622761F01C056BF011A56BF021B761F002CCC35FFF8500196351A34000459
:208A90001834FFF7761F01C01A1C0008FF6976780080761F01C01A1C00101A1C04001A1C0E
:208AA00008001A1C00201A1C01001A1C10001A1C20001A1C40001A1C8000181CFFFB1A1DF4
:208AB00000011A1D00021A1D00041A1D00081A1D00101A1D00201A1C00041A1D04001A1DA8
:208AC00008001A1D10001A1D20001A1D01001A1D02001A1D40001A1D80001A2001001A20DC
:208AD00002001A2004001A2008001A2010001A202000761AFF690006FE027622761F002B0A
:208AE0002820FFFF2821FFFF2822FFFF2823FFFF2824FFFF2825FFFF2826FFFF2827FFFF2A
:208AF000761A761FCFFF9238964192399641923A9641923B9641923C9641923D9641923ECE
:208B00009641923F9641761F002B402F6D039A016F029A00FE82FF690006FE02761F030407
:208B1000923E0A3E5200610556BF013B0B3E6F295CADDC825CA47640800A76408D4576405E
:208B2000814476408D4D761F03040B3E92416109923D0A3D5200610556BF013B0B3D6F11D7
:208B3000923D610F923F600D0A3F76408D45764085876F0176408D4D761F03040B3D0B3FE7
:208B4000FE820006FE0656BF01452842C5AC284137A7E80218B0E203004476408EA1764098
:208B50008B8D761F03048A0002001EC476408615E2AF0042E2AF014476408D1E761F0304EC
:208B60008A00BE0006C46002BE017E4576408D4576408E9A9245611B761F03048A00B6006A
:208B7000BE0006C46002BE0192A66002B601761F03047F3A9A00933ABE00530061029A0120
:208B800052006002BE017E45924560E7764086FE76408E9E9A00FE86000676408A289A0A35
:208B90009B0276408A3076408A817622761F01C02B1B56BF011A761A7622761F002C18355D
:208BA000FFF81834FFF71834FFFBCC3400C0FFC560FD1834FFFCCC38FFC750189638CC380A
:208BB000FFF8500396380620900018A8FFBC1AA994A951031E20062C900018A8FFBC1AA9CA
:208BC00094A951031E2C062E900018A8FFBC1AA994A951031E2E761AFF6976408BEAF606BC
:208BD00077003B1076260000762F0000FF6976408DB976408E0576408C0976408E7076223E
:208BE000761F01BE02001E021E041E121E14761AFF6900067622761F01BE0200C4261AA9E2
:208BF000FFFF1AA8FFFF1E2606169B00900F1AA8FFFF1AA9FFF01E1602001AA9FFFFC428B8
:208C00001E28060891FF1AA8FF001E08761AFF6900068F000C00761F0306A8340200761FDF
:208C1000003019011E022B062B071A0400101A0400200200761F03061E368F000C08A824A8
:208C20008F000C10A82C761F003019011E0A761F0030020019011E12761F00302B0E2B0F65
:208C3000761F00302B162B17761F00301A0C0010761F00301A140010761F00301A0C0020D3
:208C4000761F00301A140020761F030602001E261E2E0006FE08E2030146E2030044A84286
:208C500006441EE48A4206461EF4E2AF0044E2AF0146E70000087700E68800007700E203B1
:208C600000488A428AC406481ED48A428AC42BF48A428AC42BFC8A428AC41AE400108A42E4
:208C70008AC41AE400208A428AC418E4FBFF8A428AC418E4F7FF8A428AC41AE440008A4238
:208C800002001ED4FE88000628AD0400FF69561F5616561AE61002002940761F00002902A1
:208C9000761B76408EA252006142762228A98EA528A800000901611B76C08EA529046F0F52
:208CA0009B0024A9DF016C04290424A8DF011EA6F7A1248606A781A109011EA724A963034C
:208CB000FF5C3B0459A9DF010009FFEC28A9FFFF28A8FFFF090161058F3FFFFF76408DE137
:208CC000761A76408EA428A9FFFF28A8FFFF0901610E76FFFFFF6F06DF01C3BD1EA73E6754
:208CD000C5BE24A9DF0124A8FF5860F776408E4376408D92761BFFF00005ABBDA8BDA0BDCF
:208CE000C2BDC3BDE20000BDE20300BDE20301BDE20302BDE20303BDE6300600FE02FF69C4
:208CF00029425616761F0033922296411822FFBFF6057700762FFFFE56BF0121762300015D
:208D00002910FF6976408B0D3B109241761F00339622FE82E2AF03BEE2AF02BEE2AF01BE53
:208D1000E2AF00BEE28000BEC5BEC4BE83BE8ABE87BE00033B30FFF176177602FE04E203B7
:208D20000144E203004276408C09E8024BA0E2AF01428F00C1B4E8092000E30208447640D7
:208D30008C4A761F00301804FFEF7622761F00358F008CDAA80C761A761F00331A2200409F
:208D400076230001FF69FE8400063B10761F00331A2200402910FF6900063B10761F003340
:208D50001822FFBFF6057700762FFFFE56BF01212910FF690006FE047D447C4397429641E7
:208D6000761F01C41800CFFFCC00F0FF1AA9040096001A000080CC18FFE150069618181C05
:208D70003FFF5603071DFFA6CCA901FFCD1DFE00CAA8961D1800FFBF1A1800C01818FFFE0C
:208D80009241900FCD02FFF0CAA896021800FFEF92429603924396041A014000FE840006D4
:208D900077006F00B2BD761F030759A99200610D28ABFFFF28AAFFFF28A9FFFF28A8FFFF8F
:208DA0000FAB6103767FFFFF761F0306C53C3E67761F0307060461041EA792A13E67761F1E
:208DB0000307060261031EA73E6776408D908BBE00063B10761F00331820FFFE2B222B24BD
:208DC0002B262B282B2A2B2C2B2E2B302B322B342B362B382B232B252B272B292B2B2B2D1D
:208DD0002B2F2B312B332B352B372B39FF690006761F00331A2000012821FFFF2910FF69F0
:208DE0000006B2BDAABDA2BDFE0882A4D1005ACB6F155CAD2901560303A107A3DC88090249
:208DF0005CA483A9020876408E25064261068A44834676408E255ACBD90192A254A166EA9D
:208E0000FE8882BE86BE8BBE0006FE068F00C000A8428F000D00A84476222B459245528083
:208E1000630D83448A42A0A9C4840902A8421E44C2C50A459245528064F5761A761F003327
:208E20001A200001FF69FE8600065200A8AB8EA4610880A9DF8188A780857F80000EFFFEFE
:208E300088A90FA6610F5300610D9DFF5CA876BFFFFE92859680000EFFFE92859680000CC8
:208E4000FFF8A9A4000628ABFFFF28AAFFFF28A9FFFF28A8FFFF0FAB6004BE00D4006F0962
:208E500028ABFFFF28AAFFFFA9A488C409028AA992A676408B4200067622761F01C01A1CA5
:208E60000008FF6976780080761A761F01C456BFE0188F0249E6FF69A8A976408F10000649
:208E70007622761F01BECC06FF3F50409606CC06F3FF1AA904009606761AFF690006565CE3
:208E80000744FF571E400006565C0344FF571E400006761F0306A83E0006761F0306A83C0E
:208E900000060006561F7622B9C028290068761A00408C8429102920FF6900063B10FF69F4
:0A8EA000000600069A010006000615
:208EA500FFC8C102000000004040000040400000000000003F8000003F80000000000000A5
:208EB5003F8000003F800000000000003F8000003F800000000000003F8000003F80000023
:208EC5000000000044FA000044FA00000000A5E33D9BA5E33D9B0000BF8000003F80999A20
:208ED5003F190000000000000000000000000000000000000000FFFFC13A00000000FFFF2E
:208EE500C13B00000000FFFEC13C000000000000FFFEC13E000000000000FFFFC1C00000FC
:208EF5000001FFFEC1C2000000000000FFFEC1C4000000000000FFFEC1BC00008E910000C1
:168F0500FFFEC1BE00008E910000FFFFC1400000000000000000BC
:088F1000190156C3FFFF000622
:00000001FF
