:04000000004087C471
:20800000761BFFF0E20000BDE63006002942561676256F00761BFFF0E20000BDE630060009
:208010002942561676256F00761BFFF0E20000BDE63006002942561676256F00761BFFF0D3
:20802000E20000BDE63006002942561676256F00761BFFF0E20000BDE63006002942561692
:2080300076256F00761BFFF0E20000BDE63006002942561676256F00761BFFF0E20000BDEB
:20804000E63006002942561676256F00761BFFF0E20000BDE63006002942561676256F0007
:20805000761BFFF0E20000BDE63006002942561676256F00761BFFF0E20000BDE6300600B9
:208060002942561676256F00761BFFF0E20000BDE63006002942561676256F00761BFFF083
:20807000E20000BDE63006002942561676256F00761BFFF0E20000BDE63006002942561642
:2080800076256F00761BFFF0E20000BDE63006002942561676256F00761BFFF0E20000BD9B
:20809000E63006002942561676256F00761BFFF0E20000BDE63006002942561676256F00B7
:2080A000761BFFF0E20000BDE63006002942561676256F00761BFFF0E20000BDE630060069
:2080B0002942561676256F00761BFFF0E20000BDE63006002942561676256F00761BFFF033
:2080C000E20000BDE63006002942561676256F00761BFFF0E20000BDE630060029425616F2
:2080D00076256F00761BFFF0E20000BDE63006002942561676256F00761BFFF0E20000BD4B
:2080E000E63006002942561676256F00761BFFF0E20000BDE63006002942561676256F0067
:2080F000761BFFF0E20000BDE63006002942561676256F00761BFFF0E20000BDE630060019
:208100002942561676256F00761BFFF0E20000BDE63006002942561676256F00761BFFF0E2
:20811000E20000BDE63006002942561676256F00761BFFF0E20000BDE630060029425616A1
:2081200076256F00761BFFF0E20000BDE63006002942561676256F00761BFFF0E20000BDFA
:20813000E63006002942561676256F00761BFFF0E20000BDE63006002942561676256F0016
:20814000761BFFF0E20000BDE63006002942561676256F00761BFFF0E20000BDE6300600C8
:208150002942561676256F00761BFFF0E20000BDE63006002942561676256F00761BFFF092
:20816000E20000BDE63006002942561676256F00761BFFF0E20000BDE63006002942561651
:2081700076256F00761BFFF0E20000BDE63006002942561676256F00761BFFF0E20000BDAA
:20818000E63006002942561676256F00761BFFF0E20000BDE63006002942561676256F00C6
:20819000761BFFF0E20000BDE63006002942561676256F00761BFFF0E20000BDE630060078
:2081A0002942561676256F00761BFFF0E20000BDE63006002942561676256F00761BFFF042
:2081B000E20000BDE63006002942561676256F00761BFFF0E20000BDE63006002942561601
:2081C00076256F00761BFFF0E20000BDE63006002942561676256F00761BFFF0E20000BD5A
:2081D000E63006002942561676256F00761BFFF0E20000BDE63006002942561676256F0076
:2081E000761BFFF0E20000BDE63006002942561676256F00761BFFF0E20000BDE630060028
:2081F0002942561676256F00761BFFF0E20000BDE63006002942561676256F00761BFFF0F2
:20820000E20000BDE63006002942561676256F00761BFFF0E20000BDE630060029425616B0
:2082100076256F00761BFFF0E20000BDE63006002942561676256F00761BFFF0E20000BD09
:20822000E63006002942561676256F00761BFFF0E20000BDE63006002942561676256F0025
:20823000761BFFF0E20000BDE63006002942561676256F00761BFFF0E20000BDE6300600D7
:208240002942561676256F00761BFFF0E20000BDE63006002942561676256F00761BFFF0A1
:20825000E20000BDE63006002942561676256F00761BFFF0E20000BDE63006002942561660
:2082600076256F00761BFFF0E20000BDE63006002942561676256F00761BFFF0E20000BDB9
:20827000E63006002942561676256F00761BFFF0E20000BDE63006002942561676256F00D5
:20828000761BFFF0E20000BDE63006002942561676256F00761BFFF0E20000BDE630060087
:208290002942561676256F00761BFFF0E20000BDE63006002942561676256F00761BFFF051
:2082A000E20000BDE63006002942561676256F00761BFFF0E20000BDE63006002942561610
:2082B00076256F00761BFFF0E20000BDE63006002942561676256F00761BFFF0E20000BD69
:2082C000E63006002942561676256F00761BFFF0E20000BDE63006002942561676256F0085
:2082D000761BFFF0E20000BDE63006002942561676256F00761BFFF0E20000BDE630060037
:2082E0002942561676256F00761BFFF0E20000BDE63006002942561676256F00761BFFF001
:2082F000E20000BDE63006002942561676256F00761BFFF0E20000BDE630060029425616C0
:2083000076256F00761BFFF0E20000BDE63006002942561676256F00761BFFF0E20000BD18
:20831000E63006002942561676256F00764083299A0A9B02764083317640838200067622EA
:20832000761F01C056BF552556BFAA25761AFF6900067622761F01C056BF6829761AFF69EA
:208330000006FE0297429641761F01C043116C027625CC110180FFC6610576221811FE7FFD
:20834000761A0E411EA69221900F80A906A60FA7611676221A1100409241CD21FFF0900FD4
:20835000CAA89621761AFF697640832992119001520160FD76221811FFBF761A9242520170
:2083600061035202600976229003CD11FE7FFF86CAA89611761A9242520360127622CC1118
:20837000FE7F1AA9010096118F0005DAFF69A8A976408802761F01C01A110180761AFE828C
:20838000FF6900067622761F01C056BF011A56BF021B761F002CCC35FFF8500196351A34FC
:2083900000041834FFF7761F01C01A1C0008FF6976780080761F01C01A1C00101A1C040047
:2083A0001A1C08001A1C00201A1C01001A1C10001A1C20001A1C40001A1C8000181CFFFBFC
:2083B0001A1D00011A1D00021A1D00041A1D00081A1D00101A1D00201A1C00041A1D0400AF
:2083C0001A1D08001A1D10001A1D20001A1D01001A1D02001A1D40001A1D80001A200100E6
:2083D0001A2002001A2004001A2008001A2010001A202000761AFF690006FE027622761F02
:2083E000002B2820FFFF2821FFFF2822FFFF2823FFFF2824FFFF2825FFFF2826FFFF282704
:2083F000FFFF761A761FCFFF9238964192399641923A9641923B9641923C9641923D9641A7
:20840000923E9641923F9641761F002B402F6D039A016F029A00FE82FF690006FE02761F45
:2084100003049220521F670592209C0190FF9620921E600A56BF011E56BF011F2B20E590DF
:20842000E203001A6F21921F5201601092205219680956BF021F2B20E801FC00E203001A46
:208430006F13E590E203001A6F0F9220520A680856BF011F2B20E590E203001A6F05E801E9
:20844000FC00E203001AE5A0AD146106761F01BF1A0300206F05761F01BF1A050020761F45
:2084500001A1E2C40105E801E118761F0304E2AF0230E7000051E80EB850E70000407700A9
:20846000E68E00007700761F01A1BFA90F12960AFE820006761F03048A0002001EC48F0092
:20847000C11AF6012B848F00C11EF6022B847622761F01BE1808F3FF1A0B0020761A761FEE
:2084800001A12805FA00CC00C04050309600180300002B041807FFA028097D002B0A56BF31
:20849000240B280C0108180DFF3F180EFFF0180FFFC02B102B11921990F01AA911019619DC
:2084A000CC1ACCFC1AA91101961A181EF80076222B12CC14FFF0500F96141815FFF9761AF9
:2084B000761F03042B202B1E2B1FFF6900060006764083299A0A9B027640833176408382F6
:2084C0007622761F01C02B1B56BF011A761A7622761F002C1835FFF81834FFF71834FFFB83
:2084D000CC3400C0FFC560FD1834FFFCCC38FFC750189638CC38FFF8500396380620900092
:2084E00018A8FFBC1AA994A951031E20062C900018A8FFBC1AA994A951031E2C062E9000D0
:2084F00018A8FFBC1AA994A951031E2E761AFF6976408515F60677003B1076260000762F0A
:208500000000FF697640870E7640875A76408534764087B17622761F01BE02001E021E0484
:208510001E121E14761AFF6900067622761F01BE0200C4261AA9FFFF1AA8FFFF1E26061632
:208520009B00900F1AA8FFFF1AA9FFF01E1602001AA9FFFFC4281E28060891FF1AA8FF0007
:208530001E08761AFF6900068F000C00761F0304A8120200761F003019011E022B062B07B2
:208540001A0400101A0400200200761F03041E148F000C08A8028F000C10A80A761F003070
:2085500019011E0A761F0030020019011E12761F00302B0E2B0F761F00302B162B17761FA3
:2085600000301A0C0010761F00301A140010761F00301A0C0020761F00301A140020761FDF
:20857000030402001E041E0C0006FE08E2030146E2030044A84206441EE48A4206461EF4D5
:20858000E2AF0044E2AF0146E70000087700E68800007700E20300488A428AC406481ED45C
:208590008A428AC42BF48A428AC42BFC8A428AC41AE400108A428AC41AE400208A428AC4D7
:2085A00018E4FBFF8A428AC418E4F7FF8A428AC41AE440008A4202001ED4FE880006761F80
:2085B000030492290A295200610556BF01280B296F0A764086CF7640840E764086D7761F18
:2085C00003040B290006FE0656BF01452842CCCD28413E4CE80218B0E2030044764087D31A
:2085D000764084B8761F03048A0002001EC47640846AE2AF0042E2AF0144764086A8761FC9
:2085E00003048A00BE0006C46002BE017E45764086CF764087CC9245611B761F03048A00F1
:2085F000B600BE0006C46002BE0192A66002B601761F03047F2A9A00932ABE0053006102AB
:208600009A0152006002BE017E45924560E7764084B7764087D09A00FE86000628AD040070
:20861000FF69561F5616561AE61002002940761F00002902761B764087D452006142762241
:2086200028A987D728A800000901611B76C087D729046F0F9B0024A9DF016C04290424A8C5
:20863000DF011EA6F7A1248606A781A109011EA724A96303FF5C3B0459A9DF010009FFEC03
:2086400028A9FFFF28A8FFFF090161058F3FFFFF76408736761A764087D628A9FFFF28A88C
:20865000FFFF0901610E76FFFFFF6F06DF01C3BD1EA73E67C5BE24A9DF0124A8FF5860F737
:2086600076408798764086E7761BFFF00005ABBDA8BDA0BDC2BDC3BDE20000BDE20300BD13
:20867000E20301BDE20302BDE20303BDE6300600FE02FF6929425616761F00339222964150
:208680001822FFBFF6057700762FFFFE56BF0121762300012910FF69764085AF3B10924154
:20869000761F00339622FE82E2AF03BEE2AF02BEE2AF01BEE2AF00BEE28000BEC5BEC4BE63
:2086A00083BE8ABE87BE00033B30FFF176177602FE04E2030144E203004276408534E802DD
:2086B0004BA0E2AF01428F00C112E8092000E302084476408575761F00301804FFEF762230
:2086C000761F00358F008664A80C761A761F00331A22004076230001FF69FE8400063B10FA
:2086D000761F00331A2200402910FF6900063B10761F00331822FFBFF6057700762FFFFE80
:2086E00056BF01212910FF69000677006F00B2BD761F030459A99222610D28ABFFFF28AAE4
:2086F000FFFF28A9FFFF28A8FFFF0FAB6103767FFFFF761F0304C52C3E67761F03040626C4
:2087000061041EA792A13E67761F0304062461031EA73E67764086E58BBE00063B10761F73
:2087100000331820FFFE2B222B242B262B282B2A2B2C2B2E2B302B322B342B362B382B2373
:208720002B252B272B292B2B2B2D2B2F2B312B332B352B372B39FF690006761F00331A20EB
:2087300000012821FFFF2910FF690006B2BDAABDA2BDFE0882A4D1005ACB6F155CAD29012C
:20874000560303A107A3DC8809025CA483A902087640877A064261068A4483467640877A19
:208750005ACBD90192A254A166EAFE8882BE86BE8BBE0006FE068F00C000A8428F000D005F
:20876000A84476222B4592455280630D83448A42A0A9C4840902A8421E44C2C50A459245C4
:20877000528064F5761A761F00331A200001FF69FE8600065200A8AB8EA4610880A9DF8170
:2087800088A780857F80000EFFFE88A90FA6610F5300610D9DFF5CA876BFFFFE9285968085
:20879000000EFFFE92859680000CFFF8A9A4000628ABFFFF28AAFFFF28A9FFFF28A8FFFFFD
:2087A0000FAB6004BE00D4006F0928ABFFFF28AAFFFFA9A488C409028AA992A6764085C3E3
:2087B00000067622761F01BECC06FF3F50409606761AFF690006761F0304A82E0006761F70
:2087C0000304A82C00060006561F7622B9C028290068761A0040860E29102920FF6900061F
:0E87D0003B10FF69000600069A010006000635
:2087D700FFFFC12200000001FFFEC124000000000000FFFEC126000000000000FFFFC128F3
:2087E70000000000FFFFC12900000000FFFFC12A00000000FFFEC12C000087C30000FFFE70
:1687F700C12E000087C30000FFFEC13000000000424800000000BB
:08880200190156C3FFFF000637
:00000001FF
