:0400000000408AF83A
:20800000FE02A842761F03048A009B0092DC520060029B018A4297CCFE820006761F0304A6
:208010008A009B0092DC520060029B0197E4020207008AA90ACC8A001BDC01F369022BDCF7
:208020000006FE04A044A8428A44834292C496C5FE840006FE0897489647A846E2030044C5
:20803000E5A0AD14650792479B00544863029B0197C4FE880006FE04A044A8428A44834223
:2080400092C496C5FE840006FE0897489647A846E2030044E5A0AD14650792489B0054474C
:2080500063029B0197C4FE880006FE06A846E2030144E2030042E2AF0044E2AF0142E71045
:2080600000407700E20300C4FE860006FE107640800E6F1006101E4806121E4A6F29060C9F
:208070001E48060E1E4A6F2406081E48060A1E4A6F1F761F0304E2AF0002E68C00007700E9
:208080007700BFA90F12520161E6520261E96FED061C1E44061E1E466F1806181E44061A19
:208090001E466F1306141E4406161E466F0EE2AF0004E68C000077007700BFA90F125201A0
:2080A00061E8520261EB6FEF761F01C41A0140001A1900101A01200040196CFFF60B77000A
:2080B0009208FFC30EA9BDA90F127700770077007700E68B0000761F0305E2030012761FA0
:2080C00001C49209FFC30EA9BDA90F127700770077007700E68B0000761F0305E20300145D
:2080D000761F03049A00E2AF0020761F0305E2AF0114E6940001AD1462029A01964B9310A7
:2080E000E2AF00448F00C15CFF6976408044924B93108F00C15DE2AF00467640802A9A001F
:2080F000E2AF0012761F0304E2AF0122E6940001AD1462029A01964CE801FC00E203004452
:20810000761F03059A00930EBE00530061029A0152006002BE017E4E930F9A00BE005300EC
:2081100061029A0152006002BE017E4F924E9B0052006104924F61029B01974D924D6107D4
:20812000924C6005924B600306081E44924D6109924C6007924B6105E801FC00E20300446D
:20813000924D6109924C6107924B6005E805FC00E2030044924E9B0052006104920F610216
:208140009B01974E924E6109924C6007924B6005E805FC00E2030044924E6107924C600530
:20815000924B610306081E44924E6109924C6107924B6105E801FC00E2030044920E9B0042
:2081600052006104924F61029B01974E924E6109924C6007924B6005E801FC00E2030044A4
:20817000924E6107924C6105924B600306081E44924E6109924C6107924B6105E805FC00F7
:20818000E2030044920E9B0052006104920F61029B01974E924E6109924C6007924B61056D
:20819000E805FC00E2030044924E6109924C6107924B6005E801FC00E2030044924E610795
:2081A000924C6105924B610306081E44E2AF00449A00E811FC00AD1460029A013B0185A93E
:2081B000BDA90F127700770077007700E68900007700E203001A06441E089A01931CE2AF1C
:2081C000010853006004931D60029A0085A9BDA90F127700770077007700E68900008F00A4
:2081D000C14AE302010A76408055924C9311E2AF00488F00C15E76408044924C93118F0075
:2081E000C15FE2AF004A7640802A9A01931E53006004931F60029A003B0185A9BDA90F1282
:2081F000770077007700E2AF0108E68900008F00C14CE300410C76408055761F0304E2AF7D
:208200000028761F0305E2AF010CE70000087700E2030048761F0304E2AF0126761F030577
:20821000E2AF000AE7000009E2AF0348E71000C87700E2030048761F03048A0092E4610582
:208220000648761F03051E16761F0305E2AF001AE5A0AD146106761F01BF1A0A00046F0539
:20823000761F01BF1A0C0004924B761F03059610924C960E924B960F924C9611FE90000672
:20824000FE06761F0305E2AF0016761F0304E2AF012AE72000087700E2030046E2AF0146F5
:20825000E2AF002EE6940001AD146507E72000087700E20300466F10E2AF002CE69400013F
:20826000AD146405E590E20300466F06E72000087700E2030046E2AF0130E70000087700E6
:20827000E20300469A00E5A0AD1465029A013B0185A9BDA90F127700770077007700E689A5
:208280000000761F0305E2030018E5A0AD146106761F01BF1A0300206F05761F01BF1A051D
:208290000020E2AF0046E6950000E2030044E801F801E6940001AD14630AE8121380AD145A
:2082A0006306E8021380E20300446F11E811F800AD146205E590E20300446F09E8121640B0
:2082B000AD146405E8021640E2030044761F01A1E2AF0244E2C40105E801E118E700005147
:2082C000E80EB850E70000407700E68E000077007700BFA90F12960AFE860006FE02761F58
:2082D00003048A00F6052B848F00C152F60D2B848F00C148F6092B84761F03059200600723
:2082E00076408AD1761F030556BF01002B419A01D400D5009B32764089D07622761F01BE42
:2082F0001808F3FF1A0B0020761A761F01A12805FA00CC00C04050309600180300002B04FD
:208300001807FFA028097D002B0A56BF240B280C0108180DFF3F180EFFF0180FFFC02B10A2
:208310002B11921990F01AA911019619CC1ACCFC1AA91101961A181EF80076222B12CC144C
:20832000FFF0500F96141815FFF9761A7622761F01BE1816FFCF1A1A0004761A761F030444
:208330009206761F03059610761F03049236761F0305960E761F03049237761F0305960F06
:20834000761F03040624761F03051E08761F03040632761F03051E0A761F03049207761F31
:2083500003059611761F03040634761F03051E0CFF698F00C15C8F40C1387640803B8F00E5
:20836000C15D8F40C139764080218F00C15E8F40C13A7640803B8F00C15F8F40C13B7640A6
:208370008021FE8200060006761BFFF0E20000BDE63006002942561676256F00761BFFF024
:20838000E20000BDE63006002942561676256F00761BFFF0E20000BDE6300600294256162F
:2083900076256F00761BFFF0E20000BDE63006002942561676256F00761BFFF0E20000BD88
:2083A000E63006002942561676256F00761BFFF0E20000BDE63006002942561676256F00A4
:2083B000761BFFF0E20000BDE63006002942561676256F00761BFFF0E20000BDE630060056
:2083C0002942561676256F00761BFFF0E20000BDE63006002942561676256F00761BFFF020
:2083D000E20000BDE63006002942561676256F00761BFFF0E20000BDE630060029425616DF
:2083E00076256F00761BFFF0E20000BDE63006002942561676256F00761BFFF0E20000BD38
:2083F000E63006002942561676256F00761BFFF0E20000BDE63006002942561676256F0054
:20840000761BFFF0E20000BDE63006002942561676256F00761BFFF0E20000BDE630060005
:208410002942561676256F00761BFFF0E20000BDE63006002942561676256F00761BFFF0CF
:20842000E20000BDE63006002942561676256F00761BFFF0E20000BDE6300600294256168E
:2084300076256F00761BFFF0E20000BDE63006002942561676256F00761BFFF0E20000BDE7
:20844000E63006002942561676256F00761BFFF0E20000BDE63006002942561676256F0003
:20845000761BFFF0E20000BDE63006002942561676256F00761BFFF0E20000BDE6300600B5
:208460002942561676256F00761BFFF0E20000BDE63006002942561676256F00761BFFF07F
:20847000E20000BDE63006002942561676256F00761BFFF0E20000BDE6300600294256163E
:2084800076256F00761BFFF0E20000BDE63006002942561676256F00761BFFF0E20000BD97
:20849000E63006002942561676256F00761BFFF0E20000BDE63006002942561676256F00B3
:2084A000761BFFF0E20000BDE63006002942561676256F00761BFFF0E20000BDE630060065
:2084B0002942561676256F00761BFFF0E20000BDE63006002942561676256F00761BFFF02F
:2084C000E20000BDE63006002942561676256F00761BFFF0E20000BDE630060029425616EE
:2084D00076256F00761BFFF0E20000BDE63006002942561676256F00761BFFF0E20000BD47
:2084E000E63006002942561676256F00761BFFF0E20000BDE63006002942561676256F0063
:2084F000761BFFF0E20000BDE63006002942561676256F00761BFFF0E20000BDE630060015
:208500002942561676256F00761BFFF0E20000BDE63006002942561676256F00761BFFF0DE
:20851000E20000BDE63006002942561676256F00761BFFF0E20000BDE6300600294256169D
:2085200076256F00761BFFF0E20000BDE63006002942561676256F00761BFFF0E20000BDF6
:20853000E63006002942561676256F00761BFFF0E20000BDE63006002942561676256F0012
:20854000761BFFF0E20000BDE63006002942561676256F00761BFFF0E20000BDE6300600C4
:208550002942561676256F00761BFFF0E20000BDE63006002942561676256F00761BFFF08E
:20856000E20000BDE63006002942561676256F00761BFFF0E20000BDE6300600294256164D
:2085700076256F00761BFFF0E20000BDE63006002942561676256F00761BFFF0E20000BDA6
:20858000E63006002942561676256F00761BFFF0E20000BDE63006002942561676256F00C2
:20859000761BFFF0E20000BDE63006002942561676256F00761BFFF0E20000BDE630060074
:2085A0002942561676256F00761BFFF0E20000BDE63006002942561676256F00761BFFF03E
:2085B000E20000BDE63006002942561676256F00761BFFF0E20000BDE630060029425616FD
:2085C00076256F00761BFFF0E20000BDE63006002942561676256F00761BFFF0E20000BD56
:2085D000E63006002942561676256F00761BFFF0E20000BDE63006002942561676256F0072
:2085E000761BFFF0E20000BDE63006002942561676256F00761BFFF0E20000BDE630060024
:2085F0002942561676256F00761BFFF0E20000BDE63006002942561676256F00761BFFF0EE
:20860000E20000BDE63006002942561676256F00761BFFF0E20000BDE630060029425616AC
:2086100076256F00761BFFF0E20000BDE63006002942561676256F00761BFFF0E20000BD05
:20862000E63006002942561676256F00761BFFF0E20000BDE63006002942561676256F0021
:20863000761BFFF0E20000BDE63006002942561676256F00761BFFF0E20000BDE6300600D3
:208640002942561676256F00761BFFF0E20000BDE63006002942561676256F00761BFFF09D
:20865000E20000BDE63006002942561676256F00761BFFF0E20000BDE6300600294256165C
:2086600076256F00761BFFF0E20000BDE63006002942561676256F00761BFFF0E20000BDB5
:20867000E63006002942561676256F00761BFFF0E20000BDE63006002942561676256F00D1
:20868000761BFFF0E20000BDE63006002942561676256F007640869D9A0A9B02764086A5C3
:20869000764086F600067622761F01C056BF552556BFAA25761AFF6900067622761F01C045
:2086A00056BF6829761AFF690006FE0297429641761F01C043116C027625CC110180FFC690
:2086B000610576221811FE7F761A0E411EA69221900F80A906A60FA7611676221A1100400C
:2086C0009241CD21FFF0900FCAA89621761AFF697640869D92119001520160FD76221811AC
:2086D000FFBF761A9242520161035202600976229003CD11FE7FFF86CAA89611761A92426C
:2086E000520360127622CC11FE7F1AA9010096118F0005DAFF69A8A976408B78761F01C020
:2086F0001A110180761AFE82FF6900067622761F01C056BF011A56BF021B761F002CCC352E
:20870000FFF8500196351A3400041834FFF7761F01C01A1C0008FF6976780080761F01C0F2
:208710001A1C00101A1C04001A1C08001A1C00201A1C01001A1C10001A1C20001A1C4000EC
:208720001A1C8000181CFFFB1A1D00011A1D00021A1D00041A1D00081A1D00101A1D0020CC
:208730001A1C00041A1D04001A1D08001A1D10001A1D20001A1D01001A1D02001A1D4000EF
:208740001A1D80001A2001001A2002001A2004001A2008001A2010001A202000761AFF69CF
:208750000006FE027622761F002B2820FFFF2821FFFF2822FFFF2823FFFF2824FFFF2825F6
:20876000FFFF2826FFFF2827FFFF761A761FCFFF9238964192399641923A9641923B9641E5
:20877000923C9641923D9641923E9641923F9641761F002B402F6D039A016F029A00FE828A
:20878000FF690006FE02761F0305923C0A3C5200610556BF01390B3C6F295CADDC825CA46D
:2087900076408000764089BA76408066764089C2761F03050B3C92416109923B0A3B520078
:2087A000610556BF01390B3B6F11923B610F923D600D0A3D764089BA764082406F017640E7
:2087B00089C2761F03050B3B0B3DFE820006FE0656BF01452842C5AC284137A7E80218B07A
:2087C000E203004476408B0776408802761F03048A0002001EC4764082CEE2AF0042E2AF74
:2087D000014476408993761F03048A00BE0006C46002BE017E45764089BA76408B009245CF
:2087E000611B761F03048A00B600BE0006C46002BE0192A66002B601761F03057F389A0039
:2087F0009338BE00530061029A0152006002BE017E45924560E77640837376408B049A00B0
:20880000FE8600067640869D9A0A9B02764086A5764086F67622761F01C02B1B56BF011A3D
:20881000761A7622761F002C1835FFF81834FFF71834FFFBCC3400C0FFC560FD1834FFFC6B
:20882000CC38FFC750189638CC38FFF8500396380620900018A8FFBC1AA994A951031E2059
:20883000062C900018A8FFBC1AA994A951031E2C062E900018A8FFBC1AA994A951031E2E6E
:20884000761AFF697640885FF60677003B1076260000762F0000FF6976408A2E76408A7AF4
:208850007640887E76408AE57622761F01BE02001E021E041E121E14761AFF6900067622FF
:20886000761F01BE0200C4261AA9FFFF1AA8FFFF1E2606169B00900F1AA8FFFF1AA9FFF02B
:208870001E1602001AA9FFFFC4281E28060891FF1AA8FF001E08761AFF6900068F000C00A1
:20888000761F0305A8300200761F003019011E022B062B071A0400101A0400200200761FFC
:2088900003051E328F000C08A8208F000C10A828761F003019011E0A761F003002001901A2
:2088A0001E12761F00302B0E2B0F761F00302B162B17761F00301A0C0010761F00301A141A
:2088B0000010761F00301A0C0020761F00301A140020761F030502001E221E2A0006FE0847
:2088C000E2030146E2030044A84206441EE48A4206461EF4E2AF0044E2AF0146E700000847
:2088D0007700E68800007700E20300488A428AC406481ED48A428AC42BF48A428AC42BFC2B
:2088E0008A428AC41AE400108A428AC41AE400208A428AC418E4FBFF8A428AC418E4F7FFFC
:2088F0008A428AC41AE440008A4202001ED4FE88000628AD0400FF69561F5616561AE6103C
:2089000002002940761F00002902761B76408B0852006142762228A98B0B28A80000090184
:20891000611B76C08B0B29046F0F9B0024A9DF016C04290424A8DF011EA6F7A1248606A710
:2089200081A109011EA724A96303FF5C3B0459A9DF010009FFEC28A9FFFF28A8FFFF0901FC
:2089300061058F3FFFFF76408A56761A76408B0A28A9FFFF28A8FFFF0901610E76FFFFFFFB
:208940006F06DF01C3BD1EA73E67C5BE24A9DF0124A8FF5860F776408AB876408A07761B5E
:20895000FFF00005ABBDA8BDA0BDC2BDC3BDE20000BDE20300BDE20301BDE20302BDE2037D
:2089600003BDE6300600FE02FF6929425616761F0033922296411822FFBFF6057700762F7A
:20897000FFFE56BF0121762300012910FF69764087823B109241761F00339622FE82E2AF0A
:2089800003BEE2AF02BEE2AF01BEE2AF00BEE28000BEC5BEC4BE83BE8ABE87BE00033B30C5
:20899000FFF176177602FE04E2030144E20300427640887EE8024BA0E2AF01428F00C1705A
:2089A000E8092000E3020844764088BF761F00301804FFEF7622761F00358F00894FA80C2C
:2089B000761A761F00331A22004076230001FF69FE8400063B10761F00331A220040291081
:2089C000FF6900063B10761F00331822FFBFF6057700762FFFFE56BF01212910FF6900062C
:2089D000FE047D447C4397429641761F01C41800CFFFCC00F0FF1AA9040096001A00008063
:2089E000CC18FFE150069618181C3FFF5603071DFFA6CCA901FFCD1DFE00CAA8961D180081
:2089F000FFBF1A1800C01818FFFE9241900FCD02FFF0CAA896021800FFEF92429603924308
:208A000096041A014000FE84000677006F00B2BD761F030659A99200610D28ABFFFF28AA41
:208A1000FFFF28A9FFFF28A8FFFF0FAB6103767FFFFF761F0304C53C3E67761F03060604B0
:208A200061041EA792A13E67761F0306060261031EA73E6776408A058BBE00063B10761F4C
:208A300000331820FFFE2B222B242B262B282B2A2B2C2B2E2B302B322B342B362B382B2350
:208A40002B252B272B292B2B2B2D2B2F2B312B332B352B372B39FF690006761F00331A20C8
:208A500000012821FFFF2910FF690006B2BDAABDA2BDFE0882A4D1005ACB6F155CAD290109
:208A6000560303A107A3DC8809025CA483A9020876408A9A064261068A44834676408A9AB0
:208A70005ACBD90192A254A166EAFE8882BE86BE8BBE0006FE068F00C000A8428F000D003C
:208A8000A84476222B4592455280630D83448A42A0A9C4840902A8421E44C2C50A459245A1
:208A9000528064F5761A761F00331A200001FF69FE8600065200A8AB8EA4610880A9DF814D
:208AA00088A780857F80000EFFFE88A90FA6610F5300610D9DFF5CA876BFFFFE9285968062
:208AB000000EFFFE92859680000CFFF8A9A4000628ABFFFF28AAFFFF28A9FFFF28A8FFFFDA
:208AC0000FAB6004BE00D4006F0928ABFFFF28AAFFFFA9A488C409028AA992A6764087B7CA
:208AD00000067622761F01C01A1C0008FF6976780080761A761F01C456BFE0188F0249E6C7
:208AE000FF69A8A976408B7800067622761F01BECC06FF3F50409606761AFF690006761F43
:208AF0000304A83E0006761F0304A83C00060006561F7622B9C028290068761A004088F957
:168B000029102920FF6900063B10FF69000600069A010006000609
:208B0B00FFC6C102000000004040000040400000000000003F8000003F8000000000000044
:208B1B003F8000003F800000000000003F8000003F800000000000003F8000003F800000C0
:208B2B000000000044FA000044FA00000000A5E33D9BA5E33D9B000043B40000BF800000B8
:208B3B003F80CCCD3DCC0000000000000000000000000000000000000000FFFFC178000082
:208B4B000000FFFFC17900000000FFFEC17A000000000000FFFEC17C000000000000FFFF62
:208B5B00C18000000001FFFEC182000000000000FFFEC184000000000000FFFEC13C00003C
:1A8B6B008AF70000FFFEC13E00008AF70000FFFFC1400000000000000000F3
:088B7800190156C3FFFF0006BE
:00000001FF
