:04000000004088E94B
:20800000761BFFF0E20000BDE63006002942561676256F00761BFFF0E20000BDE630060009
:208010002942561676256F00761BFFF0E20000BDE63006002942561676256F00761BFFF0D3
:20802000E20000BDE63006002942561676256F00761BFFF0E20000BDE63006002942561692
:2080300076256F00761BFFF0E20000BDE63006002942561676256F00761BFFF0E20000BDEB
:20804000E63006002942561676256F00761BFFF0E20000BDE63006002942561676256F0007
:20805000761BFFF0E20000BDE63006002942561676256F00761BFFF0E20000BDE6300600B9
:208060002942561676256F00761BFFF0E20000BDE63006002942561676256F00761BFFF083
:20807000E20000BDE63006002942561676256F00761BFFF0E20000BDE63006002942561642
:2080800076256F00761BFFF0E20000BDE63006002942561676256F00761BFFF0E20000BD9B
:20809000E63006002942561676256F00761BFFF0E20000BDE63006002942561676256F00B7
:2080A000761BFFF0E20000BDE63006002942561676256F00761BFFF0E20000BDE630060069
:2080B0002942561676256F00761BFFF0E20000BDE63006002942561676256F00761BFFF033
:2080C000E20000BDE63006002942561676256F00761BFFF0E20000BDE630060029425616F2
:2080D00076256F00761BFFF0E20000BDE63006002942561676256F00761BFFF0E20000BD4B
:2080E000E63006002942561676256F00761BFFF0E20000BDE63006002942561676256F0067
:2080F000761BFFF0E20000BDE63006002942561676256F00761BFFF0E20000BDE630060019
:208100002942561676256F00761BFFF0E20000BDE63006002942561676256F00761BFFF0E2
:20811000E20000BDE63006002942561676256F00761BFFF0E20000BDE630060029425616A1
:2081200076256F00761BFFF0E20000BDE63006002942561676256F00761BFFF0E20000BDFA
:20813000E63006002942561676256F00761BFFF0E20000BDE63006002942561676256F0016
:20814000761BFFF0E20000BDE63006002942561676256F00761BFFF0E20000BDE6300600C8
:208150002942561676256F00761BFFF0E20000BDE63006002942561676256F00761BFFF092
:20816000E20000BDE63006002942561676256F00761BFFF0E20000BDE63006002942561651
:2081700076256F00761BFFF0E20000BDE63006002942561676256F00761BFFF0E20000BDAA
:20818000E63006002942561676256F00761BFFF0E20000BDE63006002942561676256F00C6
:20819000761BFFF0E20000BDE63006002942561676256F00761BFFF0E20000BDE630060078
:2081A0002942561676256F00761BFFF0E20000BDE63006002942561676256F00761BFFF042
:2081B000E20000BDE63006002942561676256F00761BFFF0E20000BDE63006002942561601
:2081C00076256F00761BFFF0E20000BDE63006002942561676256F00761BFFF0E20000BD5A
:2081D000E63006002942561676256F00761BFFF0E20000BDE63006002942561676256F0076
:2081E000761BFFF0E20000BDE63006002942561676256F00761BFFF0E20000BDE630060028
:2081F0002942561676256F00761BFFF0E20000BDE63006002942561676256F00761BFFF0F2
:20820000E20000BDE63006002942561676256F00761BFFF0E20000BDE630060029425616B0
:2082100076256F00761BFFF0E20000BDE63006002942561676256F00761BFFF0E20000BD09
:20822000E63006002942561676256F00761BFFF0E20000BDE63006002942561676256F0025
:20823000761BFFF0E20000BDE63006002942561676256F00761BFFF0E20000BDE6300600D7
:208240002942561676256F00761BFFF0E20000BDE63006002942561676256F00761BFFF0A1
:20825000E20000BDE63006002942561676256F00761BFFF0E20000BDE63006002942561660
:2082600076256F00761BFFF0E20000BDE63006002942561676256F00761BFFF0E20000BDB9
:20827000E63006002942561676256F00761BFFF0E20000BDE63006002942561676256F00D5
:20828000761BFFF0E20000BDE63006002942561676256F00761BFFF0E20000BDE630060087
:208290002942561676256F00761BFFF0E20000BDE63006002942561676256F00761BFFF051
:2082A000E20000BDE63006002942561676256F00761BFFF0E20000BDE63006002942561610
:2082B00076256F00761BFFF0E20000BDE63006002942561676256F00761BFFF0E20000BD69
:2082C000E63006002942561676256F00761BFFF0E20000BDE63006002942561676256F0085
:2082D000761BFFF0E20000BDE63006002942561676256F00761BFFF0E20000BDE630060037
:2082E0002942561676256F00761BFFF0E20000BDE63006002942561676256F00761BFFF001
:2082F000E20000BDE63006002942561676256F00761BFFF0E20000BDE630060029425616C0
:2083000076256F00761BFFF0E20000BDE63006002942561676256F00761BFFF0E20000BD18
:20831000E63006002942561676256F00FE02761F03049A00E2AF0022E5A0AD1460029A0124
:208320003B0185A9BDA90F127700770077007700E6890000FE820006FE04761F0304E2AF4C
:208330000026E5A0AD14600CE2AF001EE811FC00AD146006E8020000E20300446F15E2AF62
:208340000026E811FC00AD14600BE2AF001EE5A0AD146006E8020000E20300446F05E8020A
:208350000400E2030044FE840006FE020200761F030419010F286904020156010028922ABE
:20836000FFE000A356BF012A56BF042BE590E2030022E8021640E2030020E590E2030026B6
:20837000FFEF00A40628610956BF052BE8021640E2030020FFEF009A76408316E20300225B
:20838000FFEF0094E2AF002476408733E68A00007700761F0304BFA90F120F28660DE80197
:20839000FC00E203002656BF062B02001E28E590E20300206F7AE590E203001E7640832CF8
:2083A000E20300246F72E2AF002476408733E68A00007700761F0304BFA90F120F28660BFA
:2083B000E590E203002656BF062B02001E28E20300206F5BE801FC00E203001E7640832C83
:2083C000E20300246F5256BF012B02001E2876408316E20300226F49E2AF0022E5A0AD1443
:2083D000600D56BF022B02001E28E590E203001E7640832CE20300246F38E811FC00AD1453
:2083E000600E56BF032B02001E28E801FC00E203001E7640832CE20300246F27E802164058
:2083F000E20300206F2202040F28660A56BF012B02001E2876408316E20300226F16E59051
:20840000E20300206F12922B5203620A5203619C5201FFE1FF695202FFE1FF766FE5520418
:2084100061B3520561BA6FE0E2AF001EE5A0AD146106761F01BF1A0300206F05761F01BFC0
:208420001A050020761F01A1E2C40105E801E118761F0304E2AF0220E7000051E80EB850B3
:20843000E70000407700E68E00007700761F01A1BFA90F12960AFE820006761F03048A0097
:2084400002001EC48F00C11EF6032B848F00C122F6092B847622761F01BE1808F3FF1A0BDF
:208450000020761A761F01A12805FA00CC00C04050309600180300002B041807FFA02809E3
:208460007D002B0A56BF240B280C0108180DFF3F180EFFF0180FFFC02B102B11921990F0C9
:208470001AA911019619CC1ACCFC1AA91101961A181EF80076222B12CC14FFF0500F96145A
:208480001815FFF9761A0200761F03041E282B2A2B2BE590E2030026FF69000600067640EE
:2084900084A29A0A9B02764084AA764084FB00067622761F01C056BF552556BFAA25761A55
:2084A000FF6900067622761F01C056BF6829761AFF690006FE0297429641761F01C0431162
:2084B0006C027625CC110180FFC6610576221811FE7F761A0E411EA69221900F80A906A612
:2084C0000FA7611676221A1100409241CD21FFF0900FCAA89621761AFF69764084A292117D
:2084D0009001520160FD76221811FFBF761A9242520161035202600976229003CD11FE7F6E
:2084E000FF86CAA89611761A9242520360127622CC11FE7F1AA9010096118F0005DAFF6980
:2084F000A8A976408922761F01C01A110180761AFE82FF6900067622761F01C056BF011A1C
:2085000056BF021B761F002CCC35FFF8500196351A3400041834FFF7761F01C01A1C00082C
:20851000FF6976780080761F01C01A1C00101A1C04001A1C08001A1C00201A1C01001A1C9E
:2085200010001A1C20001A1C40001A1C8000181CFFFB1A1D00011A1D00021A1D00041A1D98
:2085300000081A1D00101A1D00201A1C00041A1D04001A1D08001A1D10001A1D20001A1DFC
:2085400001001A1D02001A1D40001A1D80001A2001001A2002001A2004001A2008001A2082
:2085500010001A202000761AFF690006FE027622761F002B2820FFFF2821FFFF2822FFFF76
:208560002823FFFF2824FFFF2825FFFF2826FFFF2827FFFF761A761FCFFF92389641923925
:208570009641923A9641923B9641923C9641923D9641923E9641923F9641761F002B402F04
:208580006D039A016F029A00FE82FF690006764084A29A0A9B02764084AA764084FB762209
:20859000761F01C02B1B56BF011A761A7622761F002C1835FFF81834FFF71834FFFBCC344A
:2085A00000C0FFC560FD1834FFFCCC38FFC750189638CC38FFF8500396380620900018A801
:2085B000FFBC1AA994A951031E20062C900018A8FFBC1AA994A951031E2C062E900018A8FF
:2085C000FFBC1AA994A951031E2E761AFF69764085E4F60677003B1076260000762F00002A
:2085D000FF69764088337640887F76408603764088D67622761F01BE02001E021E041E1242
:2085E0001E14761AFF6900067622761F01BE0200C4261AA9FFFF1AA8FFFF1E2606169B00F7
:2085F000900F1AA8FFFF1AA9FFF01E1602001AA9FFFFC4281E28060891FF1AA8FF001E08AC
:20860000761AFF6900068F000C00761F0304A8140200761F003019011E022B062B071A04E7
:2086100000101A0400200200761F03041E168F000C08A8048F000C10A80C761F003019019D
:208620001E0A761F0030020019011E12761F00302B0E2B0F761F00302B162B17761F0030BC
:208630001A0C0010761F00301A140010761F00301A0C0020761F00301A140020761F030437
:2086400002001E061E0E0006FE08E2030146E2030044A84206441EE48A4206461EF4E2AF76
:208650000044E2AF0146E70000087700E68800007700E20300488A428AC406481ED48A4250
:208660008AC42BF48A428AC42BFC8A428AC41AE400108A428AC41AE400208A428AC418E4D6
:20867000FBFF8A428AC418E4F7FF8A428AC41AE440008A4202001ED4FE880006761F0304A4
:2086800092330A335200610556BF01320B336F0A764087F476408355764087FC761F03048D
:208690000B330006FE0656BF0145E801FC00E2030042E80218B0E2030044764088F8764054
:2086A0008587761F03048A0002001EC47640843DE2AF0042E2AF0144764087CD761F0304DE
:2086B0008A00BE0006C46002BE017E45764087F4764088F19245611B761F03048A00B60025
:2086C000BE0006C46002BE0192A66002B601761F03047F349A009334BE00530061029A01E1
:2086D00052006002BE017E45924560E77640848E764088F59A00FE86000628AD0400FF69D6
:2086E000561F5616561AE61002002940761F00002902761B764088F952006142762228A9E2
:2086F00088FC28A800000901611B76C088FC29046F0F9B0024A9DF016C04290424A8DF019A
:208700001EA6F7A1248606A781A109011EA724A96303FF5C3B0459A9DF010009FFEC28A941
:20871000FFFF28A8FFFF090161058F3FFFFF7640885B761A764088FB28A9FFFF28A8FFFF42
:208720000901610E76FFFFFF6F06DF01C3BD1EA73E67C5BE24A9DF0124A8FF5860F77640AE
:2087300088BD7640880CFE02BFA90F1228AC001756109B0090FF197F1EA7BFA60F1202179A
:208740000FA7620702800FA76043E71000006F4006A764252DA728A9FFFF9B7FA3A65610D7
:208750008AA9CEABCFAAFF58A8AB6132E8038A49E80F9651E71000407700E5A0AD1465248E
:2087600006A665069A009B805610560100A6A9A9FF55FF5A06A6CEABCFAA6F15E8038A49EB
:20877000E80F9651E71000407700E5A0AD14650C06A66406FF586108FF2F7F006F049A0016
:2087800028A880001EA6BDA60F1277007700FE820006761BFFF00005ABBDA8BDA0BDC2BD9F
:20879000C3BDE20000BDE20300BDE20301BDE20302BDE20303BDE6300600FE02FF6929422D
:2087A0005616761F0033922296411822FFBFF6057700762FFFFE56BF0121762300012910E4
:2087B000FF697640867E3B109241761F00339622FE82E2AF03BEE2AF02BEE2AF01BEE2AFE5
:2087C00000BEE28000BEC5BEC4BE83BE8ABE87BE00033B30FFF176177602FE04E203014459
:2087D000E203004276408603E8024BA0E2AF01428F00C114E8092000E30208447640864454
:2087E000761F00301804FFEF7622761F00358F008789A80C761A761F00331A220040762388
:2087F0000001FF69FE8400063B10761F00331A2200402910FF6900063B10761F00331822F5
:20880000FFBFF6057700762FFFFE56BF01212910FF69000677006F00B2BD761F030459A9B5
:20881000922C610D28ABFFFF28AAFFFF28A9FFFF28A8FFFF0FAB6103767FFFFF761F030431
:20882000C5363E67761F0304063061041EA792A13E67761F0304062E61031EA73E67764070
:20883000880A8BBE00063B10761F00331820FFFE2B222B242B262B282B2A2B2C2B2E2B305F
:208840002B322B342B362B382B232B252B272B292B2B2B2D2B2F2B312B332B352B372B396C
:20885000FF690006761F00331A2000012821FFFF2910FF690006B2BDAABDA2BDFE0882A448
:20886000D1005ACB6F155CAD2901560303A107A3DC8809025CA483A902087640889F0642DA
:2088700061068A4483467640889F5ACBD90192A254A166EAFE8882BE86BE8BBE0006FE0638
:208880008F00C000A8428F000D00A84476222B4592455280630D83448A42A0A9C4840902C7
:20889000A8421E44C2C50A459245528064F5761A761F00331A200001FF69FE8600065200CD
:2088A000A8AB8EA4610880A9DF8188A780857F80000EFFFE88A90FA6610F5300610D9DFF50
:2088B0005CA876BFFFFE92859680000EFFFE92859680000CFFF8A9A4000628ABFFFF28AA14
:2088C000FFFF28A9FFFF28A8FFFF0FAB6004BE00D4006F0928ABFFFF28AAFFFFA9A488C49B
:2088D00009028AA992A67640869200067622761F01BECC06FF3F50409606761AFF69000618
:2088E000761F0304A8380006761F0304A83600060006561F7622B9C028290068761A004061
:1888F00086DD29102920FF6900063B10FF69000600069A0100060006B7
:2088FC00FFFFC12C00000001FFFEC12E000000000000FFFEC130000000000000FFFFC132A5
:20890C0000000000FFFFC13300000000FFFFC13400000000FFFEC136000088E80000FFFE05
:0C891C00C138000088E8000000000000E6
:08892200190156C3FFFF000616
:00000001FF
