:0400000000408C72BE
:20800000FE02A842026A761F0308072A8AA99B0092C4520060029B018A4297D4FE82000608
:208010000269761F0308072A8AA992C4600C026A072A8AA9BE0092C46002BE01026B072A7C
:208020008AA97EC40268072A8AA90AD4026A072A8AA91BC401F36905026A072A8AA92BC44F
:208030000006FE04A044A8428A44834292C496C5FE840006FE0897489647A846E2030044B5
:20804000E5A0AD14650792479B00544863029B0197C4FE880006FE04A044A8428A44834213
:2080500092C496C5FE840006FE0897489647A846E2030044E5A0AD14650792489B0054473C
:2080600063029B0197C4FE880006FE06A846E2030144E2030042E2AF0044E2AF0142E71035
:2080700000407700E20300C4FE860006FE10764080106F10060E1E4A06101E486F29060A93
:208080001E4A060C1E486F2406061E4A06081E486F1F761F0303E2AF0000E68C00007700E2
:208090007700BFA90F12520161E6520261E96FED061A1E46061C1E446F1806161E4606180F
:2080A0001E446F1306121E4606141E446F0EE2AF0002E68C000077007700BFA90F12520198
:2080B00061E8520261EB6FEF761F01C41A0140001A1900101A01200040196CFFF60B7700FA
:2080C0009208FFC30EA9BDA90F127700770077007700E68B0000761F0300E2030002761FA5
:2080D00001C49209FFC30EA9BDA90F127700770077007700E68B0000761F0300E203000462
:2080E000761F03039A00E2AF001E761F0300E2AF0104E6940001AD1462029A01964B931FA0
:2080F000E2AF00468F00C00CFF6976408054924B931F8F00C00DE2AF00447640803A9A0082
:20810000E2AF0002761F0303E2AF0120E6940001AD1462029A01964CE801FC00E203004652
:20811000761F03009A009319BE00530061029A0152006002BE017E4E931A9A00BE005300CB
:2081200061029A0152006002BE017E4F924E9B0052006104924F61029B01974D924D6107C4
:20813000924C6005924B600306101E46924D6109924C6007924B6105E801FC00E203004651
:20814000924D6109924C6107924B6005E805FC00E2030046924E9B0052006104921A6102F9
:208150009B01974E924E6109924C6007924B6005E805FC00E2030046924E6107924C60051E
:20816000924B610306101E46924E6109924C6107924B6105E801FC00E203004692199B001B
:2081700052006104924F61029B01974E924E6109924C6007924B6005E801FC00E203004692
:20818000924E6107924C6105924B600306101E46924E6109924C6107924B6105E805FC00DD
:20819000E203004692199B0052006104921A61029B01974E924E6109924C6007924B610545
:2081A000E805FC00E2030046924E6109924C6107924B6005E801FC00E2030046924E610781
:2081B000924C6105924B610306101E46E2AF00469A00E811FC00AD1460029A013B0185A922
:2081C000BDA90F127700770077007700E68900007700E203000A06461E109A01930CE2AF22
:2081D000011053006004930D60029A0085A9BDA90F127700770077007700E68900008F009C
:2081E000C012E302011276408065924C9320E2AF004A8F00C00E76408054924C93208F00A7
:2081F000C00FE2AF00487640803A9A01930E53006004930F60029A003B0185A9BDA90F12D5
:20820000770077007700E2AF0110E68900008F00C014E300411476408065761F0303E2AF86
:208210000026761F0300E2AF0114E70000087700E203004A761F0303E2AF0124761F03006C
:20822000E2AF0012E7000009E2AF034AE71000C87700E203004A761F0308026B072A8AA9F7
:2082300092C46105064A761F03001E06761F0300E2AF000AE5A0AD146106761F01BF1A0A0D
:2082400000046F05761F01BF1A0C00048F03FFFF761F0300A8A90F166904020156010016AC
:20825000921D602A56BF011D56BF031E6F3456BF061E02001E166F2F56BF061E02001E164D
:208260006F2A56BF041E02001E166F258F002710A8A90F16662056BF051E6F1D56BF011EAA
:208270006F1A8F0249F0A8A90F16661556BF041E02001E166F10921E52036208520361E2B7
:20828000520161D6520261D96FED520461E0520561E66FE8924B961F924C9619924B961A32
:20829000924C9620025E761F0308072A8AA9020107C41EC460070260072A8AA9020156019F
:2082A00000C4025E072A8AA90262E28400C4072A8AA90260E2AF01C4072A8AA90262E2845E
:2082B00002C4072A8AA9026EE30043C4E700009A072AE853E0118AA9E71000408AC4E203AF
:2082C00000C40264072A8AA90201560100C40264072A8AA906C460070266072A8AA9020128
:2082D000560100C4FE900006FE08761F03001B1801FF67020A18921BFFE0009256BF011B34
:2082E00056BF011C2B182847FFD8FFEF009D2847FFD81B180190FFE8009756BF021C2B183A
:2082F0002B47FFEF00912B471B180190FFE8008C56BF031C2B182847FF56FFEF00852847B7
:20830000FF561B180190687F56BF0D1C2B182B476F7A2847FED91B180190687556BF051C64
:208310002B182B476F702B471B180190686C56BF061C2B182847FE486F662847FE481B18C3
:208320000190686156BF071C2B182B476F5C2B471B180190685856BF081C2B1856BF554708
:208330006F5256BF55471B180190684D56BF091C2B182B476F482B471B180190684456BFA5
:208340000A1C2B1856BFDC476F3E56BFDC471B180190683956BF0B1C2B182B476F342B472C
:208350001B180190683056BF0C1C2B18284701AE6F2A284701AE1B180190682556BF011CD9
:208360002B182847FFD86F1F2B471B180190681B56BF041C2B182847FED96F15931C92A802
:208370009CFF520B66F292A89CFF560301A988A976C08CF206A70DA61EA724A9DF0124A842
:208380001EA77620E2C80147E2AF0006E72000087700E2030046761F0303E2AF0146E2AF44
:20839000002AE6940001AD146507E72000087700E20300466F10E2AF0028E6940001AD14D6
:2083A0006405E590E20300466F06E72000087700E2030046E2AF012CE70000087700E20385
:2083B00000469A00E5A0AD1465029A013B0185A9BDA90F127700770077007700E689000049
:2083C000761F0300E2030008E5A0AD146106761F01BF1A0300206F05761F01BF1A050020D1
:2083D000E2AF0046E6950000E2030044E801F801E6940001AD14630AE8121380AD146306D0
:2083E000E8021380E20300446F11E811F800AD146205E590E20300446F09E8121640AD1417
:2083F0006405E8021640E2030044761F01A1E2AF0244E2C40105E801E118E7000051E80ED1
:20840000B850E70000407700E68E000077007700BFA90F12960AFE880006FE02761F0308FF
:208410008A2AF6752B848A2A026C072A1EE4026E072A1EA60228072A8AA9C2C40262072A1B
:208420001EA60210072A8AA9C2C4C42A0250072A8AA9C2C48A2A062A1ED48A2A8AE456BF45
:2084300001C40208072A8AA98F40C218A0C40270072A1EA6026E072A8AA9C2C40262072A96
:208440008AA9E801BD38E80E2D60E20300C48F00C002F60D2B848F00C010F6112B84761F32
:2084500003009200600776408C4B761F030056BF01002B419A01D400D5009B3276408B4ACD
:208460007622761F01BE1808F3FF1A0B0020761A761F01A12805FA00CC00C04050309600E9
:20847000180300002B041807FFA028097D002B0A56BF240B280C0108180DFF3F180EFFF008
:20848000180FFFC02B102B11921990F01AA911019619CC1ACCFC1AA91101961A181EF8006F
:2084900076222B12CC14FFF0500F96141815FFF9761A7622761F01BE1816FFCF1A1A00044A
:2084A000761A761F03039204761F0300961F761F03039232761F03009619761F03039233A8
:2084B000761F0300961A761F03030622761F03001E10761F0303062E761F03001E12761FAF
:2084C00003039205761F03009620761F03030630761F03001E14FF698F00C00C8F40C0F4D0
:2084D0007640804B8F00C00D8F40C0F5764080318F00C00E8F40C0F67640804B8F00C00F03
:2084E0008F40C0F7764080312B182B1B2B1C02001E162B1D2B1EFE8200060006761BFFF0EC
:2084F000E20000BDE63006002942561676256F00761BFFF0E20000BDE630060029425616BE
:2085000076256F00761BFFF0E20000BDE63006002942561676256F00761BFFF0E20000BD16
:20851000E63006002942561676256F00761BFFF0E20000BDE63006002942561676256F0032
:20852000761BFFF0E20000BDE63006002942561676256F00761BFFF0E20000BDE6300600E4
:208530002942561676256F00761BFFF0E20000BDE63006002942561676256F00761BFFF0AE
:20854000E20000BDE63006002942561676256F00761BFFF0E20000BDE6300600294256166D
:2085500076256F00761BFFF0E20000BDE63006002942561676256F00761BFFF0E20000BDC6
:20856000E63006002942561676256F00761BFFF0E20000BDE63006002942561676256F00E2
:20857000761BFFF0E20000BDE63006002942561676256F00761BFFF0E20000BDE630060094
:208580002942561676256F00761BFFF0E20000BDE63006002942561676256F00761BFFF05E
:20859000E20000BDE63006002942561676256F00761BFFF0E20000BDE6300600294256161D
:2085A00076256F00761BFFF0E20000BDE63006002942561676256F00761BFFF0E20000BD76
:2085B000E63006002942561676256F00761BFFF0E20000BDE63006002942561676256F0092
:2085C000761BFFF0E20000BDE63006002942561676256F00761BFFF0E20000BDE630060044
:2085D0002942561676256F00761BFFF0E20000BDE63006002942561676256F00761BFFF00E
:2085E000E20000BDE63006002942561676256F00761BFFF0E20000BDE630060029425616CD
:2085F00076256F00761BFFF0E20000BDE63006002942561676256F00761BFFF0E20000BD26
:20860000E63006002942561676256F00761BFFF0E20000BDE63006002942561676256F0041
:20861000761BFFF0E20000BDE63006002942561676256F00761BFFF0E20000BDE6300600F3
:208620002942561676256F00761BFFF0E20000BDE63006002942561676256F00761BFFF0BD
:20863000E20000BDE63006002942561676256F00761BFFF0E20000BDE6300600294256167C
:2086400076256F00761BFFF0E20000BDE63006002942561676256F00761BFFF0E20000BDD5
:20865000E63006002942561676256F00761BFFF0E20000BDE63006002942561676256F00F1
:20866000761BFFF0E20000BDE63006002942561676256F00761BFFF0E20000BDE6300600A3
:208670002942561676256F00761BFFF0E20000BDE63006002942561676256F00761BFFF06D
:20868000E20000BDE63006002942561676256F00761BFFF0E20000BDE6300600294256162C
:2086900076256F00761BFFF0E20000BDE63006002942561676256F00761BFFF0E20000BD85
:2086A000E63006002942561676256F00761BFFF0E20000BDE63006002942561676256F00A1
:2086B000761BFFF0E20000BDE63006002942561676256F00761BFFF0E20000BDE630060053
:2086C0002942561676256F00761BFFF0E20000BDE63006002942561676256F00761BFFF01D
:2086D000E20000BDE63006002942561676256F00761BFFF0E20000BDE630060029425616DC
:2086E00076256F00761BFFF0E20000BDE63006002942561676256F00761BFFF0E20000BD35
:2086F000E63006002942561676256F00761BFFF0E20000BDE63006002942561676256F0051
:20870000761BFFF0E20000BDE63006002942561676256F00761BFFF0E20000BDE630060002
:208710002942561676256F00761BFFF0E20000BDE63006002942561676256F00761BFFF0CC
:20872000E20000BDE63006002942561676256F00761BFFF0E20000BDE6300600294256168B
:2087300076256F00761BFFF0E20000BDE63006002942561676256F00761BFFF0E20000BDE4
:20874000E63006002942561676256F00761BFFF0E20000BDE63006002942561676256F0000
:20875000761BFFF0E20000BDE63006002942561676256F00761BFFF0E20000BDE6300600B2
:208760002942561676256F00761BFFF0E20000BDE63006002942561676256F00761BFFF07C
:20877000E20000BDE63006002942561676256F00761BFFF0E20000BDE6300600294256163B
:2087800076256F00761BFFF0E20000BDE63006002942561676256F00761BFFF0E20000BD94
:20879000E63006002942561676256F00761BFFF0E20000BDE63006002942561676256F00B0
:2087A000761BFFF0E20000BDE63006002942561676256F00761BFFF0E20000BDE630060062
:2087B0002942561676256F00761BFFF0E20000BDE63006002942561676256F00761BFFF02C
:2087C000E20000BDE63006002942561676256F00761BFFF0E20000BDE630060029425616EB
:2087D00076256F00761BFFF0E20000BDE63006002942561676256F00761BFFF0E20000BD44
:2087E000E63006002942561676256F00761BFFF0E20000BDE63006002942561676256F0060
:2087F000761BFFF0E20000BDE63006002942561676256F00761BFFF0E20000BDE630060012
:208800002942561676256F00764088179A0A9B027640881F7640887000067622761F01C0E2
:2088100056BF552556BFAA25761AFF6900067622761F01C056BF6829761AFF690006FE0245
:2088200097429641761F01C043116C027625CC110180FFC6610576221811FE7F761A0E412F
:208830001EA69221900F80A906A60FA7611676221A1100409241CD21FFF0900FCAA8962195
:20884000761AFF697640881792119001520160FD76221811FFBF761A9242520161035202F9
:20885000600976229003CD11FE7FFF86CAA89611761A9242520360127622CC11FE7F1AA99B
:20886000010096118F0005DAFF69A8A976408D0A761F01C01A110180761AFE82FF6900065C
:208870007622761F01C056BF011A56BF021B761F002CCC35FFF8500196351A340004183425
:20888000FFF7761F01C01A1C0008FF6976780080761F01C01A1C00101A1C04001A1C080064
:208890001A1C00201A1C01001A1C10001A1C20001A1C40001A1C8000181CFFFB1A1D00010D
:2088A0001A1D00021A1D00041A1D00081A1D00101A1D00201A1C00041A1D04001A1D0800B3
:2088B0001A1D10001A1D20001A1D01001A1D02001A1D40001A1D80001A2001001A200200F4
:2088C0001A2004001A2008001A2010001A202000761AFF690006FE027622761F002B2820D6
:2088D000FFFF2821FFFF2822FFFF2823FFFF2824FFFF2825FFFF2826FFFF2827FFFF761AF4
:2088E000761FCFFF9238964192399641923A9641923B9641923C9641923D9641923E964199
:2088F000923F9641761F002B402F6D039A016F029A00FE82FF690006FE04761F0302923827
:208900000A385200610556BF01370B386F295CADDC835CA47640800076408B347640807676
:2089100076408B3C761F03020B3892416109923D0A3D5200610556BF01370B3D6F11923DFE
:20892000610F9239600D0A3A76408B34764082D46F0176408B3C761F03020B3D0B3AFE8434
:208930000006FE0656BF01452842C5AC284137A7E80218B0E203004476408C817640897C47
:20894000761F03088A2A02001EC47640840DE2AF0042E2AF014476408B0D761F03088A2A4D
:20895000BE0006C46002BE017E4576408B3476408C7A9245611B761F03088A2AB600BE004F
:2089600006C46002BE0192A66002B601761F03027F369A009336BE00530061029A015200A8
:208970006002BE017E45924560E7764084ED76408C7E9A00FE860006764088179A0A9B0244
:208980007640881F764088707622761F01C02B1B56BF011A761A7622761F002C1835FFF83B
:208990001834FFF71834FFFBCC3400C0FFC560FD1834FFFCCC38FFC750189638CC38FFF81C
:2089A000500396380620900018A8FFBC1AA994A951031E20062C900018A8FFBC1AA994A996
:2089B00051031E2C062E900018A8FFBC1AA994A951031E2E761AFF69764089D9F6067700A7
:2089C0003B1076260000762F0000FF6976408BA876408BF4764089F876408C5F7622761F80
:2089D00001BE02001E021E041E121E14761AFF6900067622761F01BE0200C4261AA9FFFF8B
:2089E0001AA8FFFF1E2606169B00900F1AA8FFFF1AA9FFF01E1602001AA9FFFFC4281E2882
:2089F000060891FF1AA8FF001E08761AFF6900068F000C00761F0304A8100200761F00302E
:208A000019011E022B062B071A0400101A0400200200761F03041E128F000C08A8008F00A5
:208A10000C10A808761F003019011E0A761F0030020019011E12761F00302B0E2B0F761F95
:208A200000302B162B17761F00301A0C0010761F00301A140010761F00301A0C0020761FE5
:208A300000301A140020761F030402001E021E0A0006FE08E2030146E2030044A84206442D
:208A40001EE48A4206461EF4E2AF0044E2AF0146E70000087700E68800007700E2030048C5
:208A50008A428AC406481ED48A428AC42BF48A428AC42BFC8A428AC41AE400108A428AC4F0
:208A60001AE400208A428AC418E4FBFF8A428AC418E4F7FF8A428AC41AE440008A42020096
:208A70001ED4FE88000628AD0400FF69561F5616561AE61002002940761F00002902761B24
:208A800076408C8252006142762228A98C8528A800000901611B76C08C8529046F0F9B00C0
:208A900024A9DF016C04290424A8DF011EA6F7A1248606A781A109011EA724A96303FF5C9E
:208AA0003B0459A9DF010009FFEC28A9FFFF28A8FFFF090161058F3FFFFF76408BD0761A27
:208AB00076408C8428A9FFFF28A8FFFF0901610E76FFFFFF6F06DF01C3BD1EA73E67C5BE95
:208AC00024A9DF0124A8FF5860F776408C3276408B81761BFFF00005ABBDA8BDA0BDC2BD0B
:208AD000C3BDE20000BDE20300BDE20301BDE20302BDE20303BDE6300600FE02FF692942EA
:208AE0005616761F0033922296411822FFBFF6057700762FFFFE56BF0121762300012910A1
:208AF000FF69764088FC3B109241761F00339622FE82E2AF03BEE2AF02BEE2AF01BEE2AF22
:208B000000BEE28000BEC5BEC4BE83BE8ABE87BE00033B30FFF176177602FE04E203014415
:208B1000E2030042764089F8E8024BA0E2AF01428F00C110E8092000E302084476408A3923
:208B2000761F00301804FFEF7622761F00358F008AC9A80C761A761F00331A220040762301
:208B30000001FF69FE8400063B10761F00331A2200402910FF6900063B10761F00331822B1
:208B4000FFBFF6057700762FFFFE56BF01212910FF690006FE047D447C4397429641761F9E
:208B500001C41800CFFFCC00F0FF1AA9040096001A000080CC18FFE150069618181C3FFF6E
:208B60005603071DFFA6CCA901FFCD1DFE00CAA8961D1800FFBF1A1800C01818FFFE924189
:208B7000900FCD02FFF0CAA896021800FFEF92429603924396041A014000FE840006770042
:208B80006F00B2BD761F030359A99238610D28ABFFFF28AAFFFF28A9FFFF28A8FFFF0FAB2A
:208B90006103767FFFFF761F0302C53E3E67761F0303063C61041EA792A13E67761F0303B2
:208BA000063A61031EA73E6776408B7F8BBE00063B10761F00331820FFFE2B222B242B2663
:208BB0002B282B2A2B2C2B2E2B302B322B342B362B382B232B252B272B292B2B2B2D2B2F26
:208BC0002B312B332B352B372B39FF690006761F00331A2000012821FFFF2910FF69000656
:208BD000B2BDAABDA2BDFE0882A4D1005ACB6F155CAD2901560303A107A3DC8809025CA461
:208BE00083A9020876408C14064261068A44834676408C145ACBD90192A254A166EAFE884F
:208BF00082BE86BE8BBE0006FE068F00C118A8428F000D00A84476222B4592455280630D93
:208C000083448A42A0A9C4840902A8421E44C2C50A459245528064F5761A761F00331A206F
:208C10000001FF69FE8600065200A8AB8EA4610880A9DF8188A780857F80000EFFFE88A919
:208C20000FA6610F5300610D9DFF5CA876BFFFFE92859680000EFFFE92859680000CFFF814
:208C3000A9A4000628ABFFFF28AAFFFF28A9FFFF28A8FFFF0FAB6004BE00D4006F0928AB98
:208C4000FFFF28AAFFFFA9A488C409028AA992A67640893100067622761F01C01A1C000895
:208C5000FF6976780080761A761F01C456BFE0188F0249E6FF69A8A976408D0A00067622D3
:208C6000761F01BECC06FF3F50409606761AFF690006761F0303A83E0006761F0302A83E5F
:208C700000060006561F7622B9C028290068761A00408A7329102920FF6900063B10FF6929
:0A8C8000000600069A010006000637
:208C8500FFC8C0C0000000004040000040400000000000003F8000003F800000000000000A
:208C95003F8000003F800000000000003F8000003F800000000000003F8000003F80000045
:208CA5000000000044FA000044FA00000000A5E33D9BA5E33D9B0000BF8000003F80CCCDDC
:208CB5003DCC0000000000000000000000000000000000000000FFFFC0B600000000FFFF24
:208CC500C0B700000000FFFDC0B80000000000000000FFFDC0BB0000000000000000FFFF2F
:208CD500C0F800000001FFFEC0FA000000000000FFFEC0FC000000000000FFFEC0BE0000DB
:1A8CE5008C710000FFFEC0FE00008C710000FFFFC000000000000000000002
:208CF20082E7000082F3000082FF00008309000083130000831D00008327000083310000E3
:108D0200833B000083450000834F0000835900002D
:088D0A00190156C3FFFF00062A
:00000001FF
