:0400000000408ECE60
:20800000FE02A842761F032E8A189B0092DC520060029B018A4297CC8A189B0092E4520081
:2080100060029B018A4297D4FE8200060202761F032E07188AA90ACC8A181BDC01F36902AB
:208020002BDC020207188AA90AD48A1888E48F00C34FA8A90FA663038A182BE40006FE0431
:20803000A044A8428A44834292C496C5FE840006FE0897489647A846E2030044E5A0AD1477
:20804000650792479B00544863029B0197C4FE880006FE04A044A8428A44834292C496C5A8
:20805000FE840006FE0897489647A846E2030044E5A0AD14650792489B00544763029B01EC
:2080600097C4FE880006FE06A846E2030144E2030042E2AF0044E2AF0142E710004077007F
:20807000E20300C4FE860006FE10A04AA848768004E206A68A4A834876408E6428AC001220
:208080002B4F924F5202FFE300EC8F0004E0A8A9074A8AA9020107C41E4C8F000271A8A990
:208090000F4CFFE600A82B50925052E363379C013B01560301A9074A8AA956030150A3C44B
:2080A000074A8AA918AA7FFF06C4900018A88000CAABCBAA1E4E404E6D052901FF401E4E37
:2080B0006F082901FF401CA9B0DF1CA899081E4E92503B0108A9018D560301A9074A8AA9C7
:2080C000064E70C471CC1EA656030150074A8AA9C2C40A50925052E364CB2B501B50018C50
:2080D000633A9AE33B019450560301A9074A8AA99AE49450A3C4560301A9074A8AA918ABBC
:2080E000000018AA800006C418A87FFFCAABCBAA1E4E404E6D052901FF401E4E6F0829016A
:2080F000FF401CA9B0DF1CA899081E4E3B0156030150074A8AA9064E70C471CC1EA69AE39C
:208100009450560301A9074A8AA9C2C40A501B50018C64C88F0004DEA8A9074A8AA9A3C443
:208110008A4A18AB000018AA800006C418A87FFFCAABCBAA1E4E404E6D052901FF401E4E43
:208120006F082901FF401CA9B0DF1CA899081E4E8F000318A8A9074A8AA9064E70C471CCF6
:208130001EA68F0004DEA8A9074A8AA9C2C402011E4C924C3B019CFF560301A9074A8AA9F6
:2081400006C41E4EC44C8F0004E0A8A9074A8AA9C2C42901064EFF4AF24EF34D064EFF363B
:2081500018A9568018A89D2CF24EF34D064EFF3E900018A8EFC6F24EF34D5CADDC865CA4EE
:208160003B015603014F560100A4064E5622704E714D1EC40A4F924F5202FFE4FF18064621
:208170002901FF44BDA90F120644FF45BDA90F1E7700E68B00007700E8532001E68B001896
:208180007700E71000407700E84940008A54E20300C48A54E2AF00C4E5A0AD14FFE1FEF279
:20819000FE900006FE0A0204761F03280F346030761F03158F01F31D0200A30CF61F56171A
:2081A00000A43F4A884AA8AC060C8F0041A7566500A6A8AC03AB566500A9A94628AC0B143A
:2081B000304A1E480F4669070346FF5518A87FFF1E0C6F04064603481E0CE284000C7700E8
:2081C000E84C00007700E2030044FFEF008302050F3460308F010DCD761F0315A8AC56655A
:2081D000000E8F12D687A9A9560100A4A8460610FF3C701071111E4828AC00115622F248F8
:2081E000F3470648FF34F248F34706461E0E06481E100746BDA90F127700770077007700AC
:2081F000E68B00007700E84BE0007700E20300446F50923C603B768004E28F00C552D50055
:2082000006A676408EAF8F001571A846761F0315A8122B491B49026F63223B01064628AC2B
:20821000001E5C4928AB896528AA6C075622DC0170467145A9AC566500A985A407AB1E46CC
:208220009249C4468F00C5529C01560301A9560100A4C2C40A491B49026F64E18F00027024
:20823000761F0328A83256BF013C8F0004E2A8A98F40C5528F00C04076408E645CAD8F4087
:20824000C552DC840EA48F00C0401E4276408074E2AF0044FE8A0006FE04761F0315E2AFB9
:208250000004E5A0AD14600E761F0314E2AF0028E811FC00AD1460062844CCCD28433E4CDB
:208260006F19761F0315E2AF0004E811FC00AD14600D761F0314E2AF0028E5A0AD14600600
:208270002844CCCD28433E4C6F05E801F800E2030044E2AF0044FE84000602070006FE10FC
:20828000764080166F10060E1E4806101E4A6F29060A1E48060C1E4A6F2406061E48060880
:208290001E4A6F1F761F0329E2AF0000E68C000077007700BFA90F12520161E6520261E965
:2082A0006FED061A1E44061C1E466F1806161E4406181E466F1306121E4406141E466F0EDC
:2082B000E2AF0002E68C000077007700BFA90F12520161E8520261EB6FEF761F01C41A0123
:2082C00040001A1900101A01200040196CFFF60B77009208FFC30EA9BDA90F12770077001C
:2082D00077007700E68B0000761F0314E2030022761F01C49209FFC30EA9BDA90F12770010
:2082E000770077007700E68B0000761F0314E2030024761F03299A00E2AF001E761F03143D
:2082F000E2AF0124E6940001AD1462029A01964B761F0328E2AF00448F00C52CFF69933A52
:2083000076408052924B933A8F00C52DE2AF004676408038761F03149A00E2AF0022761FD7
:208310000329E2AF0120E6940001AD1462029A01964CE801FC00E2030044761F03289A00EA
:208320009336BE00530061029A0152006002BE017E4E93379A00BE00530061029A01520061
:208330006002BE017E4F924E9B0052006104924F61029B01974D924D6109924C6007924BDE
:208340006005761F031506001E44924D6109924C6007924B6105E801FC00E2030044924DE5
:208350006109924C6107924B6005E805FC00E2030044924E9B0052006106761F032892374C
:2083600061029B01974E924E6109924C6007924B6005E805FC00E2030044924E6109924C0E
:208370006007924B6105761F031506001E44924E6109924C6107924B6105E801FC00E20391
:208380000044761F03289B00923652006104924F61029B01974E924E6109924C6007924B8E
:208390006005E801FC00E2030044924E6109924C6107924B6005761F031506001E44924E93
:2083A0006109924C6107924B6105E805FC00E2030044761F03289B00923652006104923715
:2083B00061029B01974E924E6109924C6007924B6105E805FC00E2030044924E6109924CBD
:2083C0006107924B6005E801FC00E2030044924E6109924C6107924B6105761F031506005F
:2083D0001E44E2AF00449A00E811FC00AD1460029A013B0185A9BDA90F12770077007700B3
:2083E0007700E6890000761F0314E2030026761F031506441E00761F03149A01932C761F30
:2083F00003155300E2AF01006006761F0314932D60029A0085A9BDA90F1277007700770088
:20840000761F0315E68900008F00C546E302010676408063761F0314E2AF0026E5A0AD1478
:208410006106761F01BF1A0A00046F05761F01BF1A0C0004761F0328924CE2AF00488F006F
:20842000C52E933B76408052924C933B8F00C52FE2AF004A764080389A01761F0314932E73
:2084300053006004932F60029A003B0185A9BDA90F1277007700761F0315E2AF0100E6892A
:2084400000008F00C548E300410876408063761F0328924B963A924C9636924B9637924C1C
:20845000963BFE9000060006FE0676408192E2030044761F0315020019010F0A6904020159
:208460005601000A761F03289238FFE000DD56BF013856BF0339E8021640761F0314E203E5
:20847000002A761F0315E590E2030004FFEF00D8761F0315E2AF000276408CC3E68A00003C
:208480007700761F0315BFA90F120F0A6614E801FC00E2030004761F032856BF05390200B9
:20849000761F03151E0A761F0314E590E203002AFFEF00B6E590761F0314E203002876403F
:2084A000824C761F0315E2030002FFEF00A9761F0315E2AF000276408CC3E68A0000770097
:2084B000761F0315BFA90F120F0A6612E590E2030004761F032856BF05390200761F0315C5
:2084C0001E0A761F0314E203002AFFEF0089E801FC00761F0314E20300287640824C761F8B
:2084D0000315E20300026F7B56BF0439E8021640761F0314E203002A6F72E8500000764087
:2084E0008C16E2030044E8121C00AD14630EE5A0AD146409E68E000077007700BFA90F12CB
:2084F00096456F362B456F3456BFFF456F31761F032856BF01390200761F03151E0AE59085
:20850000761F0314E20300287640824C761F0315E20300026F44761F032856BF02390200C5
:20851000761F03151E0AE801FC00761F0314E20300287640824C761F0315E20300026F2F22
:20852000E8021640761F0314E203002A6F28924561CF520161E16FF50204761F03150F0ADD
:20853000660C761F032856BF0439E8021640761F0314E203002A6F13E590761F0314E20324
:20854000002A6F0D92395201FFE1FF345202FFE1FF605203618A520461916FDF761F03142F
:20855000E2AF0028E5A0AD146106761F01BF1A0300206F05761F01BF1A050020761F01A1D4
:20856000E2C40105E801E118761F0314E2AF022AE7000051E80EB850E70000407700E68EBC
:2085700000007700761F01A1BFA90F12960AFE860006FE02761F032E8A18F6052B84768082
:2085800004F0D5008F00C04006A676408EAF768004FED5008F00C54006A676408EAF761F4F
:2085900003009200600776408E9B761F030056BF01002B419A01D400D5009B1076408D9A0A
:2085A0007622761F01BE1816FFCF1A1A0004761AFF697640827D761F03281E3428A9B782D2
:2085B00028A84431761F03151E0C28A955E528A8159A1E0E28A93BB528A81F121E10762251
:2085C000761F01BE1808F3FF1A0B0020761A761F01A12805FA00CC00C04050309600180305
:2085D00000002B041807FFA028097D002B0A56BF240B280C0108180DFF3F180EFFF0180F9B
:2085E000FFC02B102B11921990F01AA911019619CC1ACCFC1AA91101961A181EF80076229D
:2085F0002B12CC14FFF0500F96141815FFF9761A761F03299204761F0328963A761F0329F9
:208600009228761F03289636761F03299229761F03289637761F03290622761F03151E0057
:20861000761F03290624761F03151E06761F03299205761F0328963B761F03290626761F23
:2086200003151E088F00C52C8F40CA6AFF69764080498F00C52D8F40CA6B7640802F0200A6
:208630001E0A761F03282B382B39E590761F0315E20300048F00C52E8F40CA6C764080496A
:208640008F00C52F8F40CA6D7640802FFE8200060006761BFFF0E20000BDE63006002942FA
:20865000561676256F00761BFFF0E20000BDE63006002942561676256F00761BFFF0E20016
:2086600000BDE63006002942561676256F00761BFFF0E20000BDE630060029425616762593
:208670006F00761BFFF0E20000BDE63006002942561676256F00761BFFF0E20000BDE6302A
:2086800006002942561676256F00761BFFF0E20000BDE63006002942561676256F00761B46
:20869000FFF0E20000BDE63006002942561676256F00761BFFF0E20000BDE6300600294299
:2086A000561676256F00761BFFF0E20000BDE63006002942561676256F00761BFFF0E200C6
:2086B00000BDE63006002942561676256F00761BFFF0E20000BDE630060029425616762543
:2086C0006F00761BFFF0E20000BDE63006002942561676256F00761BFFF0E20000BDE630DA
:2086D00006002942561676256F00761BFFF0E20000BDE63006002942561676256F00761BF6
:2086E000FFF0E20000BDE63006002942561676256F00761BFFF0E20000BDE6300600294249
:2086F000561676256F00761BFFF0E20000BDE63006002942561676256F00761BFFF0E20076
:2087000000BDE63006002942561676256F00761BFFF0E20000BDE6300600294256167625F2
:208710006F00761BFFF0E20000BDE63006002942561676256F00761BFFF0E20000BDE63089
:2087200006002942561676256F00761BFFF0E20000BDE63006002942561676256F00761BA5
:20873000FFF0E20000BDE63006002942561676256F00761BFFF0E20000BDE63006002942F8
:20874000561676256F00761BFFF0E20000BDE63006002942561676256F00761BFFF0E20025
:2087500000BDE63006002942561676256F00761BFFF0E20000BDE6300600294256167625A2
:208760006F00761BFFF0E20000BDE63006002942561676256F00761BFFF0E20000BDE63039
:2087700006002942561676256F00761BFFF0E20000BDE63006002942561676256F00761B55
:20878000FFF0E20000BDE63006002942561676256F00761BFFF0E20000BDE63006002942A8
:20879000561676256F00761BFFF0E20000BDE63006002942561676256F00761BFFF0E200D5
:2087A00000BDE63006002942561676256F00761BFFF0E20000BDE630060029425616762552
:2087B0006F00761BFFF0E20000BDE63006002942561676256F00761BFFF0E20000BDE630E9
:2087C00006002942561676256F00761BFFF0E20000BDE63006002942561676256F00761B05
:2087D000FFF0E20000BDE63006002942561676256F00761BFFF0E20000BDE6300600294258
:2087E000561676256F00761BFFF0E20000BDE63006002942561676256F00761BFFF0E20085
:2087F00000BDE63006002942561676256F00761BFFF0E20000BDE630060029425616762502
:208800006F00761BFFF0E20000BDE63006002942561676256F00761BFFF0E20000BDE63098
:2088100006002942561676256F00761BFFF0E20000BDE63006002942561676256F00761BB4
:20882000FFF0E20000BDE63006002942561676256F00761BFFF0E20000BDE6300600294207
:20883000561676256F00761BFFF0E20000BDE63006002942561676256F00761BFFF0E20034
:2088400000BDE63006002942561676256F00761BFFF0E20000BDE6300600294256167625B1
:208850006F00761BFFF0E20000BDE63006002942561676256F00761BFFF0E20000BDE63048
:2088600006002942561676256F00761BFFF0E20000BDE63006002942561676256F00761B64
:20887000FFF0E20000BDE63006002942561676256F00761BFFF0E20000BDE63006002942B7
:20888000561676256F00761BFFF0E20000BDE63006002942561676256F00761BFFF0E200E4
:2088900000BDE63006002942561676256F00761BFFF0E20000BDE630060029425616762561
:2088A0006F00761BFFF0E20000BDE63006002942561676256F00761BFFF0E20000BDE630F8
:2088B00006002942561676256F00761BFFF0E20000BDE63006002942561676256F00761B14
:2088C000FFF0E20000BDE63006002942561676256F00761BFFF0E20000BDE6300600294267
:2088D000561676256F00761BFFF0E20000BDE63006002942561676256F00761BFFF0E20094
:2088E00000BDE63006002942561676256F00761BFFF0E20000BDE630060029425616762511
:2088F0006F00761BFFF0E20000BDE63006002942561676256F00761BFFF0E20000BDE630A8
:2089000006002942561676256F00761BFFF0E20000BDE63006002942561676256F00761BC3
:20891000FFF0E20000BDE63006002942561676256F00761BFFF0E20000BDE6300600294216
:20892000561676256F00761BFFF0E20000BDE63006002942561676256F00761BFFF0E20043
:2089300000BDE63006002942561676256F00761BFFF0E20000BDE6300600294256167625C0
:208940006F00761BFFF0E20000BDE63006002942561676256F00761BFFF0E20000BDE63057
:2089500006002942561676256F00761BFFF0E20000BDE63006002942561676256F0076404E
:2089600089729A0A9B027640897A764089CB00067622761F01C056BF552556BFAA25761A01
:20897000FF6900067622761F01C056BF6829761AFF690006FE0297429641761F01C043118D
:208980006C027625CC110180FFC6610576221811FE7F761A0E411EA69221900F80A906A63D
:208990000FA7611676221A1100409241CD21FFF0900FCAA89621761AFF69764089729211D3
:2089A0009001520160FD76221811FFBF761A9242520161035202600976229003CD11FE7F99
:2089B000FF86CAA89611761A9242520360127622CC11FE7F1AA9010096118F0005DAFF69AB
:2089C000A8A976408F44761F01C01A110180761AFE82FF6900067622761F01C056BF011A1F
:2089D00056BF021B761F002CCC35FFF8500196351A3400041834FFF7761F01C01A1C000858
:2089E000FF6976780080761F01C01A1C00101A1C04001A1C08001A1C00201A1C01001A1CCA
:2089F00010001A1C20001A1C40001A1C8000181CFFFB1A1D00011A1D00021A1D00041A1DC4
:208A000000081A1D00101A1D00201A1C00041A1D04001A1D08001A1D10001A1D20001A1D27
:208A100001001A1D02001A1D40001A1D80001A2001001A2002001A2004001A2008001A20AD
:208A200010001A202000761AFF690006FE027622761F002B2820FFFF2821FFFF2822FFFFA1
:208A30002823FFFF2824FFFF2825FFFF2826FFFF2827FFFF761A761FCFFF92389641923950
:208A40009641923A9641923B9641923C9641923D9641923E9641923F9641761F002B402F2F
:208A50006D039A016F029A00FE82FF690006FE04761F032992300A305200610556BF012F46
:208A60000B306F715CADDC835CA47640800076408D847640827F76408D8C761F03290B30F4
:208A700056BF01449244520363233B015CADDC830EA481448AA992C461178F00CA73A8A9A2
:208A800081448AA99B0192C495A9520097C4610C761F032956BF012F8F00CA73A8A98144AC
:208A90008AA90BC46F050A449244520364E056BF01449244520363378F00CA703B01A8A91E
:208AA00081448AA992C4602F8F00CA73A8A981448AA992C461248F00CA70A8A981448AA9D7
:208AB0000AC476408D846F07764084536F09764084546F069244520161F8520261F97640AD
:208AC0008D8C3B018F00CA73A8A981448AA90BC48F00CA70A8A981448AA90BC40A44924458
:208AD000520364CBFE840006FE0656BF01452842C5AC284137A7E80218B0E2030044764068
:208AE0008EDD76408B1F761F032E8A1802001EC476408579E2AF0042E2AF014476408D5D62
:208AF000761F032E8A18BE0006C46002BE017E4576408D8476408ED69245611B761F032E98
:208B00008A18B600BE0006C46002BE0192A66002B601761F03297F2E9A00932EBE00530029
:208B100061029A0152006002BE017E45924560E77640864876408EDA9A00FE860006764077
:208B200089729A0A9B027640897A764089CB7622761F01C02B1B56BF011A761A7622761F15
:208B3000002C1835FFF81834FFF71834FFFBCC3400C0FFC560FD1834FFFCCC38FFC75018D3
:208B40009638CC38FFF8500396380620900018A8FFBC1AA994A951031E20062C900018A8E6
:208B5000FFBC1AA994A951031E2C062E900018A8FFBC1AA994A951031E2E761AFF6976401F
:208B60008B7CF60677003B1076260000762F0000FF6976408DF876408E4476408B9B764032
:208B70008EBB7622761F01BE02001E021E041E121E14761AFF6900067622761F01BE02001E
:208B8000C4261AA9FFFF1AA8FFFF1E2606169B00900F1AA8FFFF1AA9FFF01E1602001AA965
:208B9000FFFFC4281E28060891FF1AA8FF001E08761AFF6900068F000C00761F032AA810FD
:208BA0000200761F003019011E022B062B071A0400101A0400200200761F032A1E128F0062
:208BB0000C08A8008F000C10A808761F003019011E0A761F0030020019011E12761F0030B1
:208BC0002B0E2B0F761F00302B162B17761F00301A0C0010761F00301A140010761F003017
:208BD0001A0C0020761F00301A140020761F032A02001E021E0A0006FE08E2030146E20303
:208BE0000044A84206441EE48A4206461EF4E2AF0044E2AF0146E70000087700E688000050
:208BF0007700E20300488A428AC406481ED48A428AC42BF48A428AC42BFC8A428AC41AE4D5
:208C000000108A428AC41AE400208A428AC418E4FBFF8A428AC418E4F7FF8A428AC41AE4D8
:208C100040008A4202001ED4FE880006FE02BFA90F1228AC001756109B0090FF197F1EA757
:208C2000BFA60F1202170FA7620702800FA76044E71000006F4106A764262DA728A9FFFF19
:208C30009B7FA3A656108AA9CEABCFAAFF58A8AB6133E8038A49E80F9651E71000407700AE
:208C4000E5A0AD14652506A663069A009B805610560100A6A9A9FF55FF5A06A6CEABCFAA7A
:208C50001EA66F16E8038A49E80F9651E71000407700E5A0AD14650C06A6630918A87FFF64
:208C6000FF5861069A0028A8BF806FEBBE00BDA60F1277007700FE82000628AD0400FF693C
:208C7000561F5616561AE61002002940761F00002902761B76408EDE52006142762228A961
:208C80008EE128A800000901611B76C08EE129046F0F9B0024A9DF016C04290424A8DF012E
:208C90001EA6F7A1248606A781A109011EA724A96303FF5C3B0459A9DF010009FFEC28A9AC
:208CA000FFFF28A8FFFF090161058F3FFFFF76408E20761A76408EE028A9FFFF28A8FFFFF7
:208CB0000901610E76FFFFFF6F06DF01C3BD1EA73E67C5BE24A9DF0124A8FF5860F7764019
:208CC0008E8276408DD1FE02BFA90F1228AC001756109B0090FF197F1EA7BFA60F12021770
:208CD0000FA7620702800FA76043E71000006F4006A764252DA728A9FFFF9B7FA3A6561042
:208CE0008AA9CEABCFAAFF58A8AB6132E8038A49E80F9651E71000407700E5A0AD146524F9
:208CF00006A665069A009B805610560100A6A9A9FF55FF5A06A6CEABCFAA6F15E8038A4956
:208D0000E80F9651E71000407700E5A0AD14650C06A66406FF586108FF2F7F006F049A0080
:208D100028A880001EA6BDA60F1277007700FE820006761BFFF00005ABBDA8BDA0BDC2BD09
:208D2000C3BDE20000BDE20300BDE20301BDE20302BDE20303BDE6300600FE02FF69294297
:208D30005616761F0033922296411822FFBFF6057700762FFFFE56BF01217623000129104E
:208D4000FF6976408A573B109241761F00339622FE82E2AF03BEE2AF02BEE2AF01BEE2AF72
:208D500000BEE28000BEC5BEC4BE83BE8ABE87BE00033B30FFF176177602FE04E2030144C3
:208D6000E203004276408B9BE8024BA0E2AF01428F00CA90E8092000E302084476408BDCFF
:208D7000761F00301804FFEF7622761F00358F008D19A80C761A761F00331A22004076235C
:208D80000001FF69FE8400063B10761F00331A2200402910FF6900063B10761F003318225F
:208D9000FFBFF6057700762FFFFE56BF01212910FF690006FE047D447C4397429641761F4C
:208DA00001C41800CFFFCC00F0FF1AA9040096001A000080CC18FFE150069618181C3FFF1C
:208DB0005603071DFFA6CCA901FFCD1DFE00CAA8961D1800FFBF1A1800C01818FFFE924137
:208DC000900FCD02FFF0CAA896021800FFEF92429603924396041A014000FE8400067700F0
:208DD0006F00B2BD761F032959A99236610D28ABFFFF28AAFFFF28A9FFFF28A8FFFF0FABB4
:208DE0006103767FFFFF761F0328C53E3E67761F0329063A61041EA792A13E67761F0329F0
:208DF000063861031EA73E6776408DCF8BBE00063B10761F00331820FFFE2B222B242B26C1
:208E00002B282B2A2B2C2B2E2B302B322B342B362B382B232B252B272B292B2B2B2D2B2FD3
:208E10002B312B332B352B372B39FF690006761F00331A2000012821FFFF2910FF69000603
:208E2000B2BDAABDA2BDFE0882A4D1005ACB6F155CAD2901560303A107A3DC8809025CA40E
:208E300083A9020876408E64064261068A44834676408E645ACBD90192A254A166EAFE8858
:208E400082BE86BE8BBE0006FE068F00CA98A8428F000D00A84476222B4592455280630DB7
:208E500083448A42A0A9C4840902A8421E44C2C50A459245528064F5761A761F00331A201D
:208E60000001FF69FE8600065200A8AB8EA4610880A9DF8188A780857F80000EFFFE88A9C7
:208E70000FA6610F5300610D9DFF5CA876BFFFFE92859680000EFFFE92859680000CFFF8C2
:208E8000A9A4000628ABFFFF28AAFFFF28A9FFFF28A8FFFF0FAB6004BE00D4006F0928AB46
:208E9000FFFF28AAFFFFA9A488C409028AA992A676408AD400067622761F01C01A1C00089F
:208EA000FF6976780080761A761F01C456BFE0188F0249E6FF69A8A976408F440006FF5886
:208EB000C5A4610919011EA60200DE817D8719010FA660FB00067622761F01BECC06FF3F60
:208EC00050409606761AFF690006761F0329A83C0006761F0328A83E00060006561F7622FE
:208ED000B9C028290068761A00408C6D29102920FF6900063B10FF69000600069A01000637
:028EE00000068A
:208EE100FFD2CA40000000004040000040400000000000003F8000003F8000000000000018
:208EF1003F8000003F800000000000003F8000003F800000000000003F8000003F800000E7
:208F01000000000044FA000044FA00000000000000000000000000000000000000000000D4
:208F11000000FFFFCA6E00000000FFFFCA6F00000000FFFDCA700000000000000000FFFDA1
:208F2100CA730000000000000000FFFFCA7600000001FFFECA78000000000000FFFECA7A34
:208F3100000000000000FFFECA3E00008ECD0000FFFECA7C00008ECD0000FFFFC000000064
:068F41000000000000002A
:088F4400190156C3FFFF0006EE
:00000001FF
