:0400000000408F121B
:20800000FE02A842026A761F033007348AA99B0092C4520060029B018A4297D4026B0734B4
:208010008AA99B0092C4520060029B018A4297DCFE8200060269761F033007348AA992C420
:20802000600C026A07348AA9BE0092C46002BE01026C07348AA97EC4026A07348AA992C477
:20803000600C026B07348AA9BE0092C46002BE01026D07348AA97EC4026807348AA90AD4DF
:20804000026A07348AA91BC401F36905026A07348AA92BC4026807348AA90ADC026B0734D6
:208050008AA91BC413876905026B07348AA92BC40006FE04A044A8428A44834292C496C512
:20806000FE840006FE0897489647A846E2030044E5A0AD14650792479B00544863029B01DC
:2080700097C4FE880006FE04A044A8428A44834292C496C5FE840006FE0897489647A846BD
:20808000E2030044E5A0AD14650792489B00544763029B0197C4FE880006FE06A846E20336
:208090000144E2030042E2AF0044E2AF0142E71000407700E20300C4FE860006FE10A04AE2
:2080A000A848768004E206A68A4A834876408EA828AC00122B4F924F5202FFE300EC8F00CB
:2080B00004E0A8A9074A8AA9020107C41E4C8F000271A8A90F4CFFE600A82B50925052E3F2
:2080C00063379C013B01560301A9074A8AA956030150A3C4074A8AA918AA7FFF06C4900077
:2080D00018A88000CAABCBAA1E4E404E6D052901FF401E4E6F082901FF401CA9B0DF1CA82D
:2080E00099081E4E92503B0108A9018D560301A9074A8AA9064E70C471CC1EA6560301505C
:2080F000074A8AA9C2C40A50925052E364CB2B501B50018C633A9AE33B019450560301A916
:20810000074A8AA99AE49450A3C4560301A9074A8AA918AB000018AA800006C418A87FFF7E
:20811000CAABCBAA1E4E404E6D052901FF401E4E6F082901FF401CA9B0DF1CA899081E4E1F
:208120003B0156030150074A8AA9064E70C471CC1EA69AE39450560301A9074A8AA9C2C4DE
:208130000A501B50018C64C88F0004DEA8A9074A8AA9A3C48A4A18AB000018AA800006C461
:2081400018A87FFFCAABCBAA1E4E404E6D052901FF401E4E6F082901FF401CA9B0DF1CA8BE
:2081500099081E4E8F000318A8A9074A8AA9064E70C471CC1EA68F0004DEA8A9074A8AA9B4
:20816000C2C402011E4C924C3B019CFF560301A9074A8AA906C41E4EC44C8F0004E0A8A9C6
:20817000074A8AA9C2C42901064EFF4AF24EF34D064EFF3618A9568018A89D2CF24EF34D75
:20818000064EFF3E900018A8EFC6F24EF34D5CADDC865CA43B015603014F560100A4064E2A
:208190005622704E714D1EC40A4F924F5202FFE4FF1806462901FF44BDA90F120644FF45A3
:2081A000BDA90F1E7700E68B00007700E8532001E68B00187700E71000407700E849400052
:2081B0008A54E20300C48A54E2AF00C4E5A0AD14FFE1FEF2FE900006FE0A0204761F032A7B
:2081C0000F306030761F03178F01F31D0200A308F61F561700A43F4A884AA8AC06088F0062
:2081D00041A7566500A6A8AC03AB566500A9A94628AC0B14304A1E480F4669070346FF55BC
:2081E00018A87FFF1E086F04064603481E08E28400087700E84C00007700E2030044FFEF44
:2081F000008302050F3060308F010DCD761F0317A8AC5665000A8F12D687A9A9560100A499
:20820000A846060CFF3C700C710D1E4828AC00115622F248F3470648FF34F248F3470646B1
:208210001E0A06481E0C0746BDA90F127700770077007700E68B00007700E84BE00077008C
:20822000E20300446F509239603B768004E28F00C5CED50006A676408EF38F001571A84637
:20823000761F0317A80E2B491B49026F63223B01064628AC001E5C4928AB896528AA6C07D6
:208240005622DC0170467145A9AC566500A985A407AB1E469249C4468F00C5CE9C01560368
:2082500001A9560100A4C2C40A491B49026F64E18F000270761F032AA82E56BF01398F00FF
:2082600004E2A8A98F40C5CE8F00C0C076408EA85CAD8F40C5CEDC840EA48F00C0C01E427E
:208270007640809EE2AF0044FE8A000602070006FE107640801A6F10060E1E4806101E4AD3
:208280006F29060A1E48060C1E4A6F2406061E4806081E4A6F1F761F032BE2AF0000E68C87
:20829000000077007700BFA90F12520161E6520261E96FED061A1E44061C1E466F18061618
:2082A0001E4406181E466F1306121E4406141E466F0EE2AF0002E68C000077007700BFA988
:2082B0000F12520161E8520261EB6FEF761F01C41A0140001A1900101A01200040196CFFFC
:2082C000F60B77009208FFC30EA9BDA90F127700770077007700E68B0000761F0316E203AC
:2082D0000022761F01C49209FFC30EA9BDA90F127700770077007700E68B0000761F03167C
:2082E000E2030024761F032B9A00E2AF001E761F0316E2AF0124E6940001AD1462029A01CA
:2082F000964B761F032AE2AF00448F00C5B0FF6993377640807C924B93378F00C5B1E2AFD1
:20830000004676408062761F03169A00E2AF0022761F032BE2AF0120E6940001AD1462026F
:208310009A01964CE801FC00E2030044761F032A9A009332BE00530061029A0152006002DE
:20832000BE017E4E93339A00BE00530061029A0152006002BE017E4F924E9B0052006104D1
:20833000924F61029B01974D924D6109924C6007924B6005761F031706001E44924D610939
:20834000924C6007924B6105E801FC00E2030044924D6109924C6107924B6005E805FC00CD
:20835000E2030044924E9B0052006106761F032A923361029B01974E924E6109924C6007B6
:20836000924B6005E805FC00E2030044924E6109924C6007924B6105761F031706001E44C0
:20837000924E6109924C6107924B6105E801FC00E2030044761F032A9B0092325200610434
:20838000924F61029B01974E924E6109924C6007924B6005E801FC00E2030044924E6109EF
:20839000924C6107924B6005761F031706001E44924E6109924C6107924B6105E805FC0072
:2083A000E2030044761F032A9B00923252006104923361029B01974E924E6109924C600784
:2083B000924B6105E805FC00E2030044924E6109924C6107924B6005E801FC00E203004478
:2083C000924E6109924C6107924B6105761F031706001E44E2AF00449A00E811FC00AD148E
:2083D00060029A013B0185A9BDA90F127700770077007700E6890000761F0316E203002C95
:2083E000761F031706441E00761F03169A019330761F03175300E2AF01006006761F0316B2
:2083F000933160029A0085A9BDA90F12770077007700761F0317E68900008F00C5C4E30278
:2084000001047640808D761F032A924CE2AF00488F00C5B293387640807C924C93388F0060
:20841000C5B3E2AF004A764080629A01761F0316933253006004933360029A003B0185A970
:20842000BDA90F1277007700761F0317E2AF0100E68900008F00C5C6E30041067640808D10
:20843000761F032BE2AF0026761F0317E2AF0106E70000087700E2030048761F032BE2AF84
:208440000124761F0317E2AF0004E7000009E2AF0348E71000C87700E2030048761F0330BC
:20845000026C07348AA992C461050648761F03161E26761F0316E2AF002CE5A0AD1461061C
:20846000761F01BF1A0A00046F05761F01BF1A0C0004924B761F032A9637924C9632924B9D
:208470009633924C9638025E761F033007348AA9020107C41EC46007026007348AA90201F7
:20848000560100C4025E07348AA90262E28400C407348AA90260E2AF01C407348AA902626D
:20849000E28402C407348AA90270E30043C4E700009A0734E853E0118AA9E71000408AC436
:2084A000E20300C4026407348AA90201560100C4026407348AA906C46007026607348AA946
:2084B0000201560100C4FE900006FE06026D761F033007348AA992C46107761F03170602DC
:2084C000761F03161E28761F0316E2AF0026E2AF0128E72000087700E2030046761F032B15
:2084D000E2AF0146E2AF002CE6940001AD146507E72000087700E20300466F10E2AF002A64
:2084E000E6940001AD146405E590E20300466F06E72000087700E2030046E2AF012EE7006A
:2084F00000087700E20300469A00E5A0AD1465029A013B0185A9BDA90F127700770077008A
:208500007700E6890000761F0316E203002AE5A0AD146106761F01BF1A0300206F05761F70
:2085100001BF1A050020E2AF0046E6950000E2030044E801F801E6940001AD14630AE8124C
:208520001380AD146306E8021380E20300446F11E811F800AD146205E590E20300446F0929
:20853000E8121640AD146405E8021640E2030044761F01A1E2AF0244E2C40105E801E118AC
:20854000E7000051E80EB850E70000407700E68E000077007700BFA90F12960AFE86000632
:20855000FE06764081BCE2030044761F032A9236521F670592369C0190FF9636923460643A
:2085600056BF013456BF03356F6EE8061DA0761F0316E203002E761F032A56BF06352B36A8
:208570006F62E8021DA0761F0316E203002E761F032A56BF06352B366F5656BF04352B36CB
:208580006F5292365202684F56BF05356F4CE850000076408CB0E2030044E8121C00AD1413
:20859000630EE5A0AD146409E68E000077007700BFA90F1296456F1C2B456F1A56BFFF4504
:2085A0006F17761F032A56BF0135E8061DA0761F0316E203002E6F27761F032A56BF023518
:2085B000E8021DA0761F0316E203002E6F1C924561E9520161F26F179236521E681456BFA2
:2085C00004352B366F10923552036208520361B65201619C520261A66FF0520461B35205C5
:2085D00061B76FEB761F0316062E761F03171E02FE860006FE02761F03308A34F6792B843A
:2085E0008A34026E07341EE4027007341EA6022807348AA9C2C4026207341EA602100734D1
:2085F0008AA9C2C4C434025007348AA9C2C48A3406341ED48A348AE456BF01C4020807343F
:208600008AA98F40CC22A0C4027207341EA6027007348AA9C2C4026207348AA9E801BD387D
:20861000E80E2D60E20300C4D500768004F48F00C0C006A676408EF3768004FAD5008F0011
:20862000C5C006A676408EF3761F03009200600776408EDF761F030056BF01002B419A0169
:20863000D400D5009B3276408DDE761F032B0628761F03161E287622761F01BE1808F3FFB0
:208640001A0B0020761A761F01A12805FA00CC00C04050309600180300002B041807FFA0FD
:2086500028097D002B0A56BF240B280C0108180DFF3F180EFFF0180FFFC02B102B11921926
:2086600090F01AA911019619CC1ACCFC1AA91101961A181EF80076222B12CC14FFF0500F92
:2086700096141815FFF9761A7622761F01BE1816FFCF1A1A0004761AFF6976408276761F30
:20868000032A1E3028A9B78228A84431761F03171E0828A955E528A8159A1E0A28A93BB5C8
:2086900028A81F121E0C761F032B9204761F032A9637761F032B9234761F032A9632761F0F
:2086A000032B9235761F032A9633761F032B0622761F03171E00761F032B0630761F0317DA
:2086B0001E04761F032B9205761F032A9638761F032B0632761F03171E06761F032B0628DF
:2086C000761F03171E028F00C5B08F40CAF6764080738F00C5B18F40CAF7764080598F00DC
:2086D000C5B28F40CAF8764080738F00C5B38F40CAF976408059761F032A2B362B342B35CF
:2086E000FE8200060006761BFFF0E20000BDE63006002942561676256F00761BFFF0E20070
:2086F00000BDE63006002942561676256F00761BFFF0E20000BDE630060029425616762503
:208700006F00761BFFF0E20000BDE63006002942561676256F00761BFFF0E20000BDE63099
:2087100006002942561676256F00761BFFF0E20000BDE63006002942561676256F00761BB5
:20872000FFF0E20000BDE63006002942561676256F00761BFFF0E20000BDE6300600294208
:20873000561676256F00761BFFF0E20000BDE63006002942561676256F00761BFFF0E20035
:2087400000BDE63006002942561676256F00761BFFF0E20000BDE6300600294256167625B2
:208750006F00761BFFF0E20000BDE63006002942561676256F00761BFFF0E20000BDE63049
:2087600006002942561676256F00761BFFF0E20000BDE63006002942561676256F00761B65
:20877000FFF0E20000BDE63006002942561676256F00761BFFF0E20000BDE63006002942B8
:20878000561676256F00761BFFF0E20000BDE63006002942561676256F00761BFFF0E200E5
:2087900000BDE63006002942561676256F00761BFFF0E20000BDE630060029425616762562
:2087A0006F00761BFFF0E20000BDE63006002942561676256F00761BFFF0E20000BDE630F9
:2087B00006002942561676256F00761BFFF0E20000BDE63006002942561676256F00761B15
:2087C000FFF0E20000BDE63006002942561676256F00761BFFF0E20000BDE6300600294268
:2087D000561676256F00761BFFF0E20000BDE63006002942561676256F00761BFFF0E20095
:2087E00000BDE63006002942561676256F00761BFFF0E20000BDE630060029425616762512
:2087F0006F00761BFFF0E20000BDE63006002942561676256F00761BFFF0E20000BDE630A9
:2088000006002942561676256F00761BFFF0E20000BDE63006002942561676256F00761BC4
:20881000FFF0E20000BDE63006002942561676256F00761BFFF0E20000BDE6300600294217
:20882000561676256F00761BFFF0E20000BDE63006002942561676256F00761BFFF0E20044
:2088300000BDE63006002942561676256F00761BFFF0E20000BDE6300600294256167625C1
:208840006F00761BFFF0E20000BDE63006002942561676256F00761BFFF0E20000BDE63058
:2088500006002942561676256F00761BFFF0E20000BDE63006002942561676256F00761B74
:20886000FFF0E20000BDE63006002942561676256F00761BFFF0E20000BDE63006002942C7
:20887000561676256F00761BFFF0E20000BDE63006002942561676256F00761BFFF0E200F4
:2088800000BDE63006002942561676256F00761BFFF0E20000BDE630060029425616762571
:208890006F00761BFFF0E20000BDE63006002942561676256F00761BFFF0E20000BDE63008
:2088A00006002942561676256F00761BFFF0E20000BDE63006002942561676256F00761B24
:2088B000FFF0E20000BDE63006002942561676256F00761BFFF0E20000BDE6300600294277
:2088C000561676256F00761BFFF0E20000BDE63006002942561676256F00761BFFF0E200A4
:2088D00000BDE63006002942561676256F00761BFFF0E20000BDE630060029425616762521
:2088E0006F00761BFFF0E20000BDE63006002942561676256F00761BFFF0E20000BDE630B8
:2088F00006002942561676256F00761BFFF0E20000BDE63006002942561676256F00761BD4
:20890000FFF0E20000BDE63006002942561676256F00761BFFF0E20000BDE6300600294226
:20891000561676256F00761BFFF0E20000BDE63006002942561676256F00761BFFF0E20053
:2089200000BDE63006002942561676256F00761BFFF0E20000BDE6300600294256167625D0
:208930006F00761BFFF0E20000BDE63006002942561676256F00761BFFF0E20000BDE63067
:2089400006002942561676256F00761BFFF0E20000BDE63006002942561676256F00761B83
:20895000FFF0E20000BDE63006002942561676256F00761BFFF0E20000BDE63006002942D6
:20896000561676256F00761BFFF0E20000BDE63006002942561676256F00761BFFF0E20003
:2089700000BDE63006002942561676256F00761BFFF0E20000BDE630060029425616762580
:208980006F00761BFFF0E20000BDE63006002942561676256F00761BFFF0E20000BDE63017
:2089900006002942561676256F00761BFFF0E20000BDE63006002942561676256F00761B33
:2089A000FFF0E20000BDE63006002942561676256F00761BFFF0E20000BDE6300600294286
:2089B000561676256F00761BFFF0E20000BDE63006002942561676256F00761BFFF0E200B3
:2089C00000BDE63006002942561676256F00761BFFF0E20000BDE630060029425616762530
:2089D0006F00761BFFF0E20000BDE63006002942561676256F00761BFFF0E20000BDE630C7
:2089E00006002942561676256F00761BFFF0E20000BDE63006002942561676256F00761BE3
:2089F000FFF0E20000BDE63006002942561676256F0076408A0C9A0A9B0276408A14764045
:208A00008A6500067622761F01C056BF552556BFAA25761AFF6900067622761F01C056BFFF
:208A10006829761AFF690006FE0297429641761F01C043116C027625CC110180FFC66105CB
:208A200076221811FE7F761A0E411EA69221900F80A906A60FA7611676221A11004092412B
:208A3000CD21FFF0900FCAA89621761AFF6976408A0C92119001520160FD76221811FFBFDA
:208A4000761A9242520161035202600976229003CD11FE7FFF86CAA89611761A9242520361
:208A500060127622CC11FE7F1AA9010096118F0005DAFF69A8A976408F96761F01C01A11B4
:208A60000180761AFE82FF6900067622761F01C056BF011A56BF021B761F002CCC35FFF8EE
:208A7000500196351A3400041834FFF7761F01C01A1C0008FF6976780080761F01C01A1C40
:208A800000101A1C04001A1C08001A1C00201A1C01001A1C10001A1C20001A1C40001A1C79
:208A90008000181CFFFB1A1D00011A1D00021A1D00041A1D00081A1D00101A1D00201A1C59
:208AA00000041A1D04001A1D08001A1D10001A1D20001A1D01001A1D02001A1D40001A1D7B
:208AB00080001A2001001A2002001A2004001A2008001A2010001A202000761AFF6900068D
:208AC000FE027622761F002B2820FFFF2821FFFF2822FFFF2823FFFF2824FFFF2825FFFF8B
:208AD0002826FFFF2827FFFF761A761FCFFF9238964192399641923A9641923B9641923CA2
:208AE0009641923D9641923E9641923F9641761F002B402F6D039A016F029A00FE82FF697D
:208AF0000006FE06761F032C921A0A1A5200610556BF01190B1A6F715CADDC845CA47640BD
:208B0000800076408DC87640827876408DD0761F032C0B1A56BF01459245520463233B01D4
:208B10005CADDC840EA481458AA992C461178F00CB1EA8A981458AA99B0192C495A952001F
:208B200097C4610C761F032C56BF01198F00CB1EA8A981458AA90BC46F050A4592455204F9
:208B300064E056BF02459245520463378F00CB1A3B01A8A981458AA992C4602F8F00CB1E67
:208B4000A8A981458AA992C461248F00CB1AA8A981458AA90AC476408DC86F07764084B5F4
:208B50006F09764085506F069245520261F8520361F976408DD03B018F00CB1EA8A981457C
:208B60008AA90BC48F00CB1AA8A981458AA90BC40A459245520464CBFE860006FE0656BF18
:208B700001452842C5AC284137A7E80218B0E203004476408F2176408BB9761F03308A34BC
:208B800002001EC4764085DAE2AF0042E2AF014476408DA1761F03308A34BE0006C46002DF
:208B9000BE017E4576408DC876408F1A9245611B761F03308A34B600BE0006C46002BE01A1
:208BA00092A66002B601761F032C7F189A009318BE00530061029A0152006002BE017E457F
:208BB000924560E7764086E276408F1E9A00FE86000676408A0C9A0A9B0276408A1476404B
:208BC0008A657622761F01C02B1B56BF011A761A7622761F002C1835FFF81834FFF7183487
:208BD000FFFBCC3400C0FFC560FD1834FFFCCC38FFC750189638CC38FFF850039638062021
:208BE000900018A8FFBC1AA994A951031E20062C900018A8FFBC1AA994A951031E2C062EC9
:208BF000900018A8FFBC1AA994A951031E2E761AFF6976408C16F60677003B107626000010
:208C0000762F0000FF6976408E3C76408E8876408C3576408EFF7622761F01BE02001E0233
:208C10001E041E121E14761AFF6900067622761F01BE0200C4261AA9FFFF1AA8FFFF1E2625
:208C200006169B00900F1AA8FFFF1AA9FFF01E1602001AA9FFFFC4281E28060891FF1AA8E3
:208C3000FF001E08761AFF6900068F000C00761F032CA8100200761F003019011E022B06B8
:208C40002B071A0400101A0400200200761F032C1E128F000C08A8008F000C10A808761F45
:208C5000003019011E0A761F0030020019011E12761F00302B0E2B0F761F00302B162B1701
:208C6000761F00301A0C0010761F00301A140010761F00301A0C0020761F00301A140020D8
:208C7000761F032C02001E021E0A0006FE08E2030146E2030044A84206441EE48A42064627
:208C80001EF4E2AF0044E2AF0146E70000087700E68800007700E20300488A428AC4064835
:208C90001ED48A428AC42BF48A428AC42BFC8A428AC41AE400108A428AC41AE400208A422C
:208CA0008AC418E4FBFF8A428AC418E4F7FF8A428AC41AE440008A4202001ED4FE880006C0
:208CB000FE02BFA90F1228AC001756109B0090FF197F1EA7BFA60F1202170FA76207028003
:208CC0000FA76044E71000006F4106A764262DA728A9FFFF9B7FA3A656108AA9CEABCFAACB
:208CD000FF58A8AB6133E8038A49E80F9651E71000407700E5A0AD14652506A663069A007D
:208CE0009B805610560100A6A9A9FF55FF5A06A6CEABCFAA1EA66F16E8038A49E80F965174
:208CF000E71000407700E5A0AD14650C06A6630918A87FFFFF5861069A0028A8BF806FEBE8
:208D0000BE00BDA60F1277007700FE82000628AD0400FF69561F5616561AE61002002940AA
:208D1000761F00002902761B76408F2252006142762228A98F2528A800000901611B76C0ED
:208D20008F2529046F0F9B0024A9DF016C04290424A8DF011EA6F7A1248606A781A1090164
:208D30001EA724A96303FF5C3B0459A9DF010009FFEC28A9FFFF28A8FFFF090161058F3FE0
:208D4000FFFF76408E64761A76408F2428A9FFFF28A8FFFF0901610E76FFFFFF6F06DF0196
:208D5000C3BD1EA73E67C5BE24A9DF0124A8FF5860F776408EC676408E15761BFFF0000587
:208D6000ABBDA8BDA0BDC2BDC3BDE20000BDE20300BDE20301BDE20302BDE20303BDE63087
:208D70000600FE02FF6929425616761F0033922296411822FFBFF6057700762FFFFE56BF2A
:208D80000121762300012910FF6976408AF13B109241761F00339622FE82E2AF03BEE2AF44
:208D900002BEE2AF01BEE2AF00BEE28000BEC5BEC4BE83BE8ABE87BE00033B30FFF1761786
:208DA0007602FE04E2030144E203004276408C35E8024BA0E2AF01428F00CB10E80920004D
:208DB000E302084476408C76761F00301804FFEF7622761F00358F008D5DA80C761A761F37
:208DC00000331A22004076230001FF69FE8400063B10761F00331A2200402910FF69000624
:208DD0003B10761F00331822FFBFF6057700762FFFFE56BF01212910FF690006FE047D44C3
:208DE0007C4397429641761F01C41800CFFFCC00F0FF1AA9040096001A000080CC18FFE14E
:208DF00050069618181C3FFF5603071DFFA6CCA901FFCD1DFE00CAA8961D1800FFBF1A1841
:208E000000C01818FFFE9241900FCD02FFF0CAA896021800FFEF92429603924396041A012E
:208E10004000FE84000677006F00B2BD761F032A59A9923A610D28ABFFFF28AAFFFF28A9B5
:208E2000FFFF28A8FFFF0FAB6103767FFFFF761F032BC53A3E67761F032A063E61041EA7BE
:208E300092A13E67761F032A063C61031EA73E6776408E138BBE00063B10761F0033182087
:208E4000FFFE2B222B242B262B282B2A2B2C2B2E2B302B322B342B362B382B232B252B2705
:208E50002B292B2B2B2D2B2F2B312B332B352B372B39FF690006761F00331A20000128210C
:208E6000FFFF2910FF690006B2BDAABDA2BDFE0882A4D1005ACB6F155CAD2901560303A142
:208E700007A3DC8809025CA483A9020876408EA8064261068A44834676408EA85ACBD90176
:208E800092A254A166EAFE8882BE86BE8BBE0006FE068F00CB22A8428F000D00A844762276
:208E90002B4592455280630D83448A42A0A9C4840902A8421E44C2C50A459245528064F5E6
:208EA000761A761F00331A200001FF69FE8600065200A8AB8EA4610880A9DF8188A7808530
:208EB0007F80000EFFFE88A90FA6610F5300610D9DFF5CA876BFFFFE92859680000EFFFE77
:208EC00092859680000CFFF8A9A4000628ABFFFF28AAFFFF28A9FFFF28A8FFFF0FAB6004B3
:208ED000BE00D4006F0928ABFFFF28AAFFFFA9A488C409028AA992A676408B6E000676227B
:208EE000761F01C01A1C0008FF6976780080761A761F01C456BFE0188F0249E6FF69A8A998
:208EF00076408F960006FF58C5A4610919011EA60200DE817D8719010FA660FB000676224C
:208F0000761F01BECC06FF3F50409606761AFF690006761F032BA83C0006761F032BA83A71
:208F100000060006561F7622B9C028290068761A00408D0729102920FF6900063B10FF69EF
:0A8F2000000600069A010006000694
:208F2500FFC6CAC0000000004040000040400000000000003F8000003F800000000000005F
:208F35003F8000003F800000000000003F8000003F800000000000003F8000003F800000A2
:208F45000000000044FA000044FA00000000A5E33D9BA5E33D9B000000000000BF80000091
:208F55003F80CCCD3DCC0000000000000000000000000000000000000000FFFFCB180000BA
:208F65000000FFFFCB1900000000FFFCCB1A00000000000000000000FFFCCB1E0000000046
:208F7500000000000000FFFFCABA00000001FFFECABC000000000000FFFECABE0000000051
:208F85000000FFFECAFA00008F110000FFFECAFC00008F110000FFFFC0000000000000004A
:028F95000000DA
:088F9600190156C3FFFF00069C
:00000001FF
