:0400000000408935FE
:20800000761BFFF0E20000BDE63006002942561676256F00761BFFF0E20000BDE630060009
:208010002942561676256F00761BFFF0E20000BDE63006002942561676256F00761BFFF0D3
:20802000E20000BDE63006002942561676256F00761BFFF0E20000BDE63006002942561692
:2080300076256F00761BFFF0E20000BDE63006002942561676256F00761BFFF0E20000BDEB
:20804000E63006002942561676256F00761BFFF0E20000BDE63006002942561676256F0007
:20805000761BFFF0E20000BDE63006002942561676256F00761BFFF0E20000BDE6300600B9
:208060002942561676256F00761BFFF0E20000BDE63006002942561676256F00761BFFF083
:20807000E20000BDE63006002942561676256F00761BFFF0E20000BDE63006002942561642
:2080800076256F00761BFFF0E20000BDE63006002942561676256F00761BFFF0E20000BD9B
:20809000E63006002942561676256F00761BFFF0E20000BDE63006002942561676256F00B7
:2080A000761BFFF0E20000BDE63006002942561676256F00761BFFF0E20000BDE630060069
:2080B0002942561676256F00761BFFF0E20000BDE63006002942561676256F00761BFFF033
:2080C000E20000BDE63006002942561676256F00761BFFF0E20000BDE630060029425616F2
:2080D00076256F00761BFFF0E20000BDE63006002942561676256F00761BFFF0E20000BD4B
:2080E000E63006002942561676256F00761BFFF0E20000BDE63006002942561676256F0067
:2080F000761BFFF0E20000BDE63006002942561676256F00761BFFF0E20000BDE630060019
:208100002942561676256F00761BFFF0E20000BDE63006002942561676256F00761BFFF0E2
:20811000E20000BDE63006002942561676256F00761BFFF0E20000BDE630060029425616A1
:2081200076256F00761BFFF0E20000BDE63006002942561676256F00761BFFF0E20000BDFA
:20813000E63006002942561676256F00761BFFF0E20000BDE63006002942561676256F0016
:20814000761BFFF0E20000BDE63006002942561676256F00761BFFF0E20000BDE6300600C8
:208150002942561676256F00761BFFF0E20000BDE63006002942561676256F00761BFFF092
:20816000E20000BDE63006002942561676256F00761BFFF0E20000BDE63006002942561651
:2081700076256F00761BFFF0E20000BDE63006002942561676256F00761BFFF0E20000BDAA
:20818000E63006002942561676256F00761BFFF0E20000BDE63006002942561676256F00C6
:20819000761BFFF0E20000BDE63006002942561676256F00761BFFF0E20000BDE630060078
:2081A0002942561676256F00761BFFF0E20000BDE63006002942561676256F00761BFFF042
:2081B000E20000BDE63006002942561676256F00761BFFF0E20000BDE63006002942561601
:2081C00076256F00761BFFF0E20000BDE63006002942561676256F00761BFFF0E20000BD5A
:2081D000E63006002942561676256F00761BFFF0E20000BDE63006002942561676256F0076
:2081E000761BFFF0E20000BDE63006002942561676256F00761BFFF0E20000BDE630060028
:2081F0002942561676256F00761BFFF0E20000BDE63006002942561676256F00761BFFF0F2
:20820000E20000BDE63006002942561676256F00761BFFF0E20000BDE630060029425616B0
:2082100076256F00761BFFF0E20000BDE63006002942561676256F00761BFFF0E20000BD09
:20822000E63006002942561676256F00761BFFF0E20000BDE63006002942561676256F0025
:20823000761BFFF0E20000BDE63006002942561676256F00761BFFF0E20000BDE6300600D7
:208240002942561676256F00761BFFF0E20000BDE63006002942561676256F00761BFFF0A1
:20825000E20000BDE63006002942561676256F00761BFFF0E20000BDE63006002942561660
:2082600076256F00761BFFF0E20000BDE63006002942561676256F00761BFFF0E20000BDB9
:20827000E63006002942561676256F00761BFFF0E20000BDE63006002942561676256F00D5
:20828000761BFFF0E20000BDE63006002942561676256F00761BFFF0E20000BDE630060087
:208290002942561676256F00761BFFF0E20000BDE63006002942561676256F00761BFFF051
:2082A000E20000BDE63006002942561676256F00761BFFF0E20000BDE63006002942561610
:2082B00076256F00761BFFF0E20000BDE63006002942561676256F00761BFFF0E20000BD69
:2082C000E63006002942561676256F00761BFFF0E20000BDE63006002942561676256F0085
:2082D000761BFFF0E20000BDE63006002942561676256F00761BFFF0E20000BDE630060037
:2082E0002942561676256F00761BFFF0E20000BDE63006002942561676256F00761BFFF001
:2082F000E20000BDE63006002942561676256F00761BFFF0E20000BDE630060029425616C0
:2083000076256F00761BFFF0E20000BDE63006002942561676256F00761BFFF0E20000BD18
:20831000E63006002942561676256F00FE04761F0305E2AF000AE5A0AD146107E2AF0004D3
:20832000E811FC00AD146017E2AF000AE8120500AD146311E801FC00E2030044E2AF000A98
:20833000E88FE0007700E203000AE8020000E20300046F43E2AF000CE5A0AD14610DE2AF09
:208340000002E811FC00AD146017E2AF000CE8120500AD146311E8020000E2030044E2AF79
:20835000000CE88FE0007700E203000CE8020000E20300026F22E2AF0014E8120500AD147B
:208360006311E2AF000AE5A0AD14650CE590E2030044E2AF0014E88FE0007700E20300142D
:208370006F0CE8020200E2030044E2AF0012E88FE0007700E2030012E2AF0044FE84000698
:20838000FE04761F0305E2AF0014E5A0AD14600CE590E2030044E2AF0014E88FE0007700D6
:20839000E20300146F69E2AF000CE5A0AD14610DE2AF0002E8120000AD146017E2AF000C49
:2083A000E8120500AD146311E8020000E2030044E2AF000CE88FE0007700E203000CE80131
:2083B000FC00E20300026F48E2AF0004E8120000AD146013E2AF000AE8120500AD14630D85
:2083C000E801FC00E2030044E2AF0014E88FE0007700E20300146F30E2AF0012E8120500E2
:2083D000AD14630DE8020200E2030044E2AF0012E88FE0007700E20300126F1EE2AF0010B1
:2083E000E8120500AD14630DE8020400E2030044E2AF0010E88FE0007700E20300106F0C57
:2083F000E8020500E2030044E2AF000EE88FE0007700E203000EE2AF0044FE840006761F03
:2084000001C41A0140001A1900101A01200040196CFFF60B77009208761F0305FFC39616DD
:208410009208605256BF010856BF0609E590E2030014E203000AE203000CE2030012E20394
:208420000010E203000EE2030004E20300026F4B56BF05096F4856BF05096F451B160708BE
:20843000690A1B16079E670756BF0109FF69764083806F3992165296690952FA670756BFBC
:208440000209FF69764083166F2E1B1607D0692B1B160898672856BF0409E2AF000AE88F8D
:20845000E0007700E203000A6F1EE2AF000AE88FE0007700E203000A6F1656BF03096F13B9
:2084600056BF05096F10920952036208520361C7520161BF520261C06FF4520461E7520543
:2084700061ED6FEF025E761F0304071283A9020107C5BDA90F127700770077000260E203FD
:2084800000C507128AA90266E68B0000E2AF01C407128AA9E70000088AC4E20300C4026206
:2084900007128AA90201560100C4FF690006FE02761F03048A12F66B2B848A120264071291
:2084A0001EE4026607121EA6022807128AA9C2C4026007121EA6021007128AA9C2C4C41280
:2084B000025007128AA9C2C48A1206121ED48A128AE456BF01C4020807128AA98F40C10018
:2084C000A0C4026807121EA6026607128AA9C2C4026007128AA9E801D418E8089378E20354
:2084D00000C48F00C14AF60D2B848F00C142F6072B84E590761F0305E20300069200600748
:2084E00076408918761F030556BF01002B419A00D400D5009B0076408817761F03052B0803
:2084F0002B09FE8200060006764085079A0A9B027640850F7640856000067622761F01C050
:2085000056BF552556BFAA25761AFF6900067622761F01C056BF6829761AFF690006FE0258
:2085100097429641761F01C043116C027625CC110180FFC6610576221811FE7F761A0E4142
:208520001EA69221900F80A906A60FA7611676221A1100409241CD21FFF0900FCAA89621A8
:20853000761AFF697640850792119001520160FD76221811FFBF761A92425201610352021F
:20854000600976229003CD11FE7FFF86CAA89611761A9242520360127622CC11FE7F1AA9AE
:20855000010096118F0005DAFF69A8A976408972761F01C01A110180761AFE82FF6900060B
:208560007622761F01C056BF011A56BF021B761F002CCC35FFF8500196351A340004183438
:20857000FFF7761F01C01A1C0008FF6976780080761F01C01A1C00101A1C04001A1C080077
:208580001A1C00201A1C01001A1C10001A1C20001A1C40001A1C8000181CFFFB1A1D000120
:208590001A1D00021A1D00041A1D00081A1D00101A1D00201A1C00041A1D04001A1D0800C6
:2085A0001A1D10001A1D20001A1D01001A1D02001A1D40001A1D80001A2001001A20020007
:2085B0001A2004001A2008001A2010001A202000761AFF690006FE027622761F002B2820E9
:2085C000FFFF2821FFFF2822FFFF2823FFFF2824FFFF2825FFFF2826FFFF2827FFFF761A07
:2085D000761FCFFF9238964192399641923A9641923B9641923C9641923D9641923E9641AC
:2085E000923F9641761F002B402F6D039A016F029A00FE82FF6900068F000C00761F030469
:2085F000A8240200761F003019011E022B062B071A0400101A0400200200761F03041E26ED
:208600008F000C08A8148F000C10A81C761F003019011E0A761F0030020019011E12761FDF
:2086100000302B0E2B0F761F00302B162B17761F00301A0C0010761F00301A140010761FCC
:2086200000301A0C0020761F00301A140020761F030402001E161E1E0006FE08E20301466B
:20863000E2030044A84206441EE48A4206461EF4E2AF0044E2AF0146E70000087700E68820
:2086400000007700E20300488A428AC406481ED48A428AC42BF48A428AC42BFC8A428AC488
:208650001AE400108A428AC41AE400208A428AC418E4FBFF8A428AC418E4F7FF8A428AC48E
:208660001AE440008A4202001ED4FE880006764085079A0A9B027640850F76408560762270
:20867000761F01C02B1B56BF011A761A7622761F002C1835FFF81834FFF71834FFFBCC3469
:2086800000C0FFC560FD1834FFFCCC38FFC750189638CC38FFF8500396380620900018A820
:20869000FFBC1AA994A951031E20062C900018A8FFBC1AA994A951031E2C062E900018A81E
:2086A000FFBC1AA994A951031E2E761AFF69764086C2F60677003B1076260000762F00006A
:2086B000FF6976408875764088C1764085EC7622761F01BE02001E021E041E121E14761A47
:2086C000FF6900067622761F01BE0200C4261AA9FFFF1AA8FFFF1E2606169B00900F1AA877
:2086D000FFFF1AA9FFF01E1602001AA9FFFFC4281E28060891FF1AA8FF001E08761AFF6934
:2086E0000006761F030492330A335200610556BF01320B336F0A76408801764083FF7640F2
:2086F0008809761F03040B330006FE0656BF01452842126F28413A83E80218B0E2030044AE
:208700007640894476408667761F03048A1202001EC476408497E2AF0042E2AF01447640E7
:2087100087DA761F03048A12BE0006C46002BE017E45764088017640893D9245611B761FA1
:2087200003048A12B600BE0006C46002BE0192A66002B601761F03047F349A009334BE0078
:20873000530061029A0152006002BE017E45924560E7764084F3764089419A00FE860006B3
:2087400028AD0400FF69561F5616561AE61002002940761F00002902761B764089455200FF
:208750006142762228A9894828A800000901611B76C0894829046F0F9B0024A9DF016C046C
:20876000290424A8DF011EA6F7A1248606A781A109011EA724A96303FF5C3B0459A9DF01CD
:208770000009FFEC28A9FFFF28A8FFFF090161058F3FFFFF7640889D761A7640894728A95A
:20878000FFFF28A8FFFF0901610E76FFFFFF6F06DF01C3BD1EA73E67C5BE24A9DF0124A8E6
:20879000FF5860F7764088FF7640884E761BFFF00005ABBDA8BDA0BDC2BDC3BDE20000BD05
:2087A000E20300BDE20301BDE20302BDE20303BDE6300600FE02FF6929425616761F003308
:2087B000922296411822FFBFF6057700762FFFFE56BF0121762300012910FF69764086E183
:2087C0003B109241761F00339622FE82E2AF03BEE2AF02BEE2AF01BEE2AF00BEE28000BE19
:2087D000C5BEC4BE83BE8ABE87BE00033B30FFF176177602FE04E2030144E203004276404A
:2087E00085ECE8024BA0E2AF01428F00C124E8092000E30208447640862D761F003018045F
:2087F000FFEF7622761F00358F008796A80C761A761F00331A22004076230001FF69FE8461
:2088000000063B10761F00331A2200402910FF6900063B10761F00331822FFBFF60577009F
:20881000762FFFFE56BF01212910FF690006FE047D447C4397429641761F01C41800CFFF56
:20882000CC00F0FF1AA9040096001A000080CC18FFE150069618181C3FFF5603071DFFA62A
:20883000CCA901FFCD1DFE00CAA8961D1800FFBF1A1800C01818FFFE9241900FCD02FFF081
:20884000CAA896021800FFEF92429603924396041A014000FE84000677006F00B2BD761F5F
:20885000030459A9922C610D28ABFFFF28AAFFFF28A9FFFF28A8FFFF0FAB6103767FFFFF84
:20886000761F0304C5363E67761F0304063061041EA792A13E67761F0304062E61031EA7EF
:208870003E677640884C8BBE00063B10761F00331820FFFE2B222B242B262B282B2A2B2C36
:208880002B2E2B302B322B342B362B382B232B252B272B292B2B2B2D2B2F2B312B332B353E
:208890002B372B39FF690006761F00331A2000012821FFFF2910FF690006B2BDAABDA2BD6E
:2088A000FE0882A4D1005ACB6F155CAD2901560303A107A3DC8809025CA483A902087640DD
:2088B00088E1064261068A448346764088E15ACBD90192A254A166EAFE8882BE86BE8BBE0F
:2088C0000006FE068F00C000A8428F000D00A84476222B4592455280630D83448A42A0A9D0
:2088D000C4840902A8421E44C2C50A459245528064F5761A761F00331A200001FF69FE8692
:2088E00000065200A8AB8EA4610880A9DF8188A780857F80000EFFFE88A90FA6610F5300C2
:2088F000610D9DFF5CA876BFFFFE92859680000EFFFE92859680000CFFF8A9A4000628AB9A
:20890000FFFF28AAFFFF28A9FFFF28A8FFFF0FAB6004BE00D4006F0928ABFFFF28AAFFFF23
:20891000A9A488C409028AA992A6764086F500067622761F01C01A1C0008FF6976780080FF
:20892000761A761F01C456BFE0188F0249E6FF69A8A9764089720006761F0304A83800068E
:20893000761F0304A83600060006561F7622B9C028290068761A0040874029102920FF69E1
:1089400000063B10FF69000600069A0100060006BB
:20894800FFFFC12C00000001FFFEC12E000000000000FFFEC130000000000000FFFFC13258
:2089580000000000FFFFC13300000000FFFFC13400000000FFFEC136000089340000FFFE6C
:14896800C138000089340000FFFFC140000000000000000046
:08897200190156C3FFFF0006C6
:00000001FF
