:0400000000408B8FA2
:20800000FE061E44064A1E42064476408B7C1E46FE860006FE04761F0306E2AF0008E5A097
:20801000AD14600CE590E2030044E2AF0008E88FE0007700E20300086F6D0610610E761F3B
:208020000305E2AF0002E8120000AD1460190205761F03060F106514E8020000E203004421
:2080300002011E42061076408000761F03061E10761F0305E801FC00E20300026F4B761FFD
:208040000305E2AF0004E8120000AD1460120205761F03060F0E650DE801FC00E203004414
:20805000E2AF0008E88FE0007700E20300086F32761F0306E2AF0006E8120500AD14630DB6
:20806000E8020200E2030044E2AF0006E88FE0007700E20300066F1EE2AF0004E81205007A
:20807000AD14630DE8020400E2030044E2AF0004E88FE0007700E20300046F0CE8020500F2
:20808000E2030044E2AF0002E88FE0007700E2030002E2AF0044FE840006FE04761F030672
:20809000060E6109761F0305E2AF0004E811FC00AD1460190205761F03060F0E6514E801CD
:2080A000FC00E203004402011E42060E76408000761F03061E0E761F0305E8020000E203B8
:2080B00000046F45761F03060610610E761F0305E2AF0002E811FC00AD1460190205761FDA
:2080C00003060F106514E8020000E203004402011E42061076408000761F03061E10761FDC
:2080D0000305E8020000E20300026F21761F0306E2AF0008E8120500AD14630E060E650C3A
:2080E000E590E2030044E2AF0008E88FE0007700E20300086F0CE8020200E2030044E2AF6D
:2080F0000006E88FE0007700E2030006E2AF0044FE840006FE18761F01C41A0140001A1956
:2081000000101A01200040196CFFF60B77009208761F0306FFC39612761F030506081E4429
:2081100006061E46920E9649761F0304026607128AA98AC406C41E488A46E2AF0148E2AF57
:2081200000C4E6940001AD1462032B496F37020E07468AA9E2AF0048E2AF01C4E69400087F
:20813000AD14640456BF06496F293B015603014907468AA9E2AF01C4E6940008AD146403AB
:208140003B016F103B016F020B495603014907468AA9E2AF01C4E6940008AD1464F66F0ED0
:208150000A4992499C01560301A907468AA9E2AF01C4E6940008AD1463F49249761F030559
:20816000960E3B015603014907468AA906C41E4C92499C01560301A907468AA906C41E4E97
:20817000E2AF004EE2AF014CE6940001AD14601DE2AF004CE2AF0148E6940001AD14630A19
:208180005603014907448AA9761F030606C41E006F4C92499C01560301A907448AA9761FEF
:20819000030606C41E006F41E2AF024EE2AF034EFF69E3228848E7200018764087A8E20345
:2081A0000050E8CFE0007700E2030052924996573B015603015707448AA906C41E549257D2
:2081B0009C01560301A907448AA906C41E56E2AF0154E2AF0056E6940001AD146004E2AF55
:2081C00000546F0CE2AF0050E2AF0252E3004356E70000997700E7100040761F0306E203DD
:2081D0000000021007441E44761F03051B0F03FF67020A0F9210FFE000B356BF011056BF16
:2081E0000A11E590761F0306E203000802001E0E1E10E2030006E2030004E2030002761FB8
:2081F0000305E2030004E2030002FFEF00B556BF0611FFEF00B156BF0611FFEF00AD56BF4D
:208200000611FFEF00A956BF07112B0FFFEF00A4761F0306E2AF0000E81218B0AD14650E92
:20821000E8121BD0AD14630A761F030556BF0311FF697640808DFFEF008FE81227D0AD141B
:208220006510E8022848E2AF0100E80C0000E6940001AD146306761F030556BF01116F7B96
:20823000E2AF0000E8122708AD146513E8022798E2AF0100E80E0000E6940001AD14630962
:20824000761F030556BF0211FF697640800A6F63E590E203000C6F5F761F0304E2AF003648
:20825000E5A0AD146158761F030556BF09112B0FE590761F0306E203000AE8021640E203E2
:20826000000C6F491B0F03E8684656BF0511E590761F0306E203000C6F3E56BF0511E590FB
:20827000761F0306E203000C6F361B0F03E8680A56BF0411E801FC00761F0306E203000A97
:208280006F2AE590761F0306E203000AE8021640E203000C6F2056BF08116F1D92115205CF
:2082900062115205FFE1FF765201FFE1FF625202FFE1FF635203FFE1FF645204FFE1FF6553
:2082A0006FEB520661AA520761BE520861C7520961CD6FE2761F0306E2AF000AE5A0AD14AE
:2082B0006106761F01BF1A0300206F05761F01BF1A050020761F01A1E2C40105E801E118E8
:2082C000761F0306E2AF020CE7000051E80EB850E70000407700E68E00007700761F01A16B
:2082D000BFA90F12960A761F0304025E071283A9020107C5BDA90F12770077007700026007
:2082E000E20300C507128AA90266E68B00000712E2AF01C48AA9E70000088AC4E20300C427
:2082F000026207128AA90201560100C4FF69FE980006FE02761F03048A12F66B2B848A12B8
:20830000026407121EE4026607121EA6022807128AA9C2C4026007121EA6021007128AA9FE
:20831000C2C4C412025007128AA9C2C48A1206121ED48A128AE456BF01C4020807128AA9ED
:208320008F40C100A0C4026807121EA6026607128AA9C2C4026007128AA9E801D418E80855
:208330009378E20300C48F00C180F6132B848F00C142F60F2B84E590761F0305E203000CA8
:208340009200600776408B5E761F030556BF01002B419A00D400D5009B0076408A5D761F56
:2083500003058F00C152A8068F00C162A8082B0E7622761F01BE1808F3FF1A0B0020761A47
:20836000761F01A12805FA00CC00C04050309600180300002B041807FFA028097D002B0AD2
:2083700056BF240B280C0108180DFF3F180EFFF0180FFFC02B102B11921990F01AA9110197
:208380009619CC1ACCFC1AA91101961A181EF80076222B12CC14FFF0500F96141815FFF9FB
:20839000761A761F03052B0F2B102B11FF69FE8200060006761BFFF0E20000BDE6300600C0
:2083A0002942561676256F00761BFFF0E20000BDE63006002942561676256F00761BFFF040
:2083B000E20000BDE63006002942561676256F00761BFFF0E20000BDE630060029425616FF
:2083C00076256F00761BFFF0E20000BDE63006002942561676256F00761BFFF0E20000BD58
:2083D000E63006002942561676256F00761BFFF0E20000BDE63006002942561676256F0074
:2083E000761BFFF0E20000BDE63006002942561676256F00761BFFF0E20000BDE630060026
:2083F0002942561676256F00761BFFF0E20000BDE63006002942561676256F00761BFFF0F0
:20840000E20000BDE63006002942561676256F00761BFFF0E20000BDE630060029425616AE
:2084100076256F00761BFFF0E20000BDE63006002942561676256F00761BFFF0E20000BD07
:20842000E63006002942561676256F00761BFFF0E20000BDE63006002942561676256F0023
:20843000761BFFF0E20000BDE63006002942561676256F00761BFFF0E20000BDE6300600D5
:208440002942561676256F00761BFFF0E20000BDE63006002942561676256F00761BFFF09F
:20845000E20000BDE63006002942561676256F00761BFFF0E20000BDE6300600294256165E
:2084600076256F00761BFFF0E20000BDE63006002942561676256F00761BFFF0E20000BDB7
:20847000E63006002942561676256F00761BFFF0E20000BDE63006002942561676256F00D3
:20848000761BFFF0E20000BDE63006002942561676256F00761BFFF0E20000BDE630060085
:208490002942561676256F00761BFFF0E20000BDE63006002942561676256F00761BFFF04F
:2084A000E20000BDE63006002942561676256F00761BFFF0E20000BDE6300600294256160E
:2084B00076256F00761BFFF0E20000BDE63006002942561676256F00761BFFF0E20000BD67
:2084C000E63006002942561676256F00761BFFF0E20000BDE63006002942561676256F0083
:2084D000761BFFF0E20000BDE63006002942561676256F00761BFFF0E20000BDE630060035
:2084E0002942561676256F00761BFFF0E20000BDE63006002942561676256F00761BFFF0FF
:2084F000E20000BDE63006002942561676256F00761BFFF0E20000BDE630060029425616BE
:2085000076256F00761BFFF0E20000BDE63006002942561676256F00761BFFF0E20000BD16
:20851000E63006002942561676256F00761BFFF0E20000BDE63006002942561676256F0032
:20852000761BFFF0E20000BDE63006002942561676256F00761BFFF0E20000BDE6300600E4
:208530002942561676256F00761BFFF0E20000BDE63006002942561676256F00761BFFF0AE
:20854000E20000BDE63006002942561676256F00761BFFF0E20000BDE6300600294256166D
:2085500076256F00761BFFF0E20000BDE63006002942561676256F00761BFFF0E20000BDC6
:20856000E63006002942561676256F00761BFFF0E20000BDE63006002942561676256F00E2
:20857000761BFFF0E20000BDE63006002942561676256F00761BFFF0E20000BDE630060094
:208580002942561676256F00761BFFF0E20000BDE63006002942561676256F00761BFFF05E
:20859000E20000BDE63006002942561676256F00761BFFF0E20000BDE6300600294256161D
:2085A00076256F00761BFFF0E20000BDE63006002942561676256F00761BFFF0E20000BD76
:2085B000E63006002942561676256F00761BFFF0E20000BDE63006002942561676256F0092
:2085C000761BFFF0E20000BDE63006002942561676256F00761BFFF0E20000BDE630060044
:2085D0002942561676256F00761BFFF0E20000BDE63006002942561676256F00761BFFF00E
:2085E000E20000BDE63006002942561676256F00761BFFF0E20000BDE630060029425616CD
:2085F00076256F00761BFFF0E20000BDE63006002942561676256F00761BFFF0E20000BD26
:20860000E63006002942561676256F00761BFFF0E20000BDE63006002942561676256F0041
:20861000761BFFF0E20000BDE63006002942561676256F00761BFFF0E20000BDE6300600F3
:208620002942561676256F00761BFFF0E20000BDE63006002942561676256F00761BFFF0BD
:20863000E20000BDE63006002942561676256F00761BFFF0E20000BDE6300600294256167C
:2086400076256F00761BFFF0E20000BDE63006002942561676256F00761BFFF0E20000BDD5
:20865000E63006002942561676256F00761BFFF0E20000BDE63006002942561676256F00F1
:20866000761BFFF0E20000BDE63006002942561676256F00761BFFF0E20000BDE6300600A3
:208670002942561676256F00761BFFF0E20000BDE63006002942561676256F00761BFFF06D
:20868000E20000BDE63006002942561676256F00761BFFF0E20000BDE6300600294256162C
:2086900076256F00761BFFF0E20000BDE63006002942561676256F00761BFFF0E20000BD85
:2086A000E63006002942561676256F00761BFFF0E20000BDE63006002942561676256F00A1
:2086B000764086C39A0A9B02764086CB7640871C00067622761F01C056BF552556BFAA25A3
:2086C000761AFF6900067622761F01C056BF6829761AFF690006FE0297429641761F01C004
:2086D00043116C027625CC110180FFC6610576221811FE7F761A0E411EA69221900F80A948
:2086E00006A60FA7611676221A1100409241CD21FFF0900FCAA89621761AFF69764086C32F
:2086F00092119001520160FD76221811FFBF761A9242520161035202600976229003CD1126
:20870000FE7FFF86CAA89611761A9242520360127622CC11FE7F1AA9010096118F0005DA48
:20871000FF69A8A976408BF7761F01C01A110180761AFE82FF6900067622761F01C056BFD5
:20872000011A56BF021B761F002CCC35FFF8500196351A3400041834FFF7761F01C01A1CF7
:208730000008FF6976780080761F01C01A1C00101A1C04001A1C08001A1C00201A1C0100AA
:208740001A1C10001A1C20001A1C40001A1C8000181CFFFB1A1D00011A1D00021A1D000477
:208750001A1D00081A1D00101A1D00201A1C00041A1D04001A1D08001A1D10001A1D2000DA
:208760001A1D01001A1D02001A1D40001A1D80001A2001001A2002001A2004001A20080063
:208770001A2010001A202000761AFF690006FE027622761F002B2820FFFF2821FFFF282218
:20878000FFFF2823FFFF2824FFFF2825FFFF2826FFFF2827FFFF761A761FCFFF92389641D0
:2087900092399641923A9641923B9641923C9641923D9641923E9641923F9641761F002B86
:2087A000402F6D039A016F029A00FE82FF6900063ABDB2BDAABDA2BDFE022901BFA90F1267
:2087B000FF58615B5CA8917F08A800801E4293A4FFD65CA8BFA90F1661675DA8917F08A8C8
:2087C000008059A858A993A5FFD65DA893A471A518A8010097A618A400FF18A500FFDC7FE8
:2087D00092A49EA596A7644D08A9FF01623E93A192A0FF3659A858A90642FF35F60E1FA1F4
:2087E0005BA901A3F60A1FA1562D04A22DA336A0FF40F60B1FA1FF339B00FF30FF540CA245
:2087F00095A3FF4008A70001F61FFF770920FF4008A70001F61FFF77FF5A92A7652208A94A
:20880000FF016313A9A9FF46917F5BA85AA925A695A7FF960CA295A3BDA90F12FE8282BE6C
:2088100086BE8BBE8EBE00069B00FF5708A8FF7FFF5A93A660F228A8800071AA92AB6FED62
:20882000FF2000006FEAFF5A93A418A80100FF965CA8A9A908A8FF7F1CA88000CBA46FDD57
:20883000764086C39A0A9B02764086CB7640871C7622761F01C02B1B56BF011A761A7622FC
:20884000761F002C1835FFF81834FFF71834FFFBCC3400C0FFC560FD1834FFFCCC38FFC799
:2088500050189638CC38FFF8500396380620900018A8FFBC1AA994A951031E20062C900031
:2088600018A8FFBC1AA994A951031E2C062E900018A8FFBC1AA994A951031E2E761AFF6908
:208870007640888DF60677003B1076260000762F0000FF6976408ABB76408B07764088AC89
:2088800076408B727622761F01BE02001E021E041E121E14761AFF6900067622761F01BEA9
:208890000200C4261AA9FFFF1AA8FFFF1E2606169B00900F1AA8FFFF1AA9FFF01E16020019
:2088A0001AA9FFFFC4281E28060891FF1AA8FF001E08761AFF6900068F000C00761F03040B
:2088B000A8240200761F003019011E022B062B071A0400101A0400200200761F03041E262A
:2088C0008F000C08A8148F000C10A81C761F003019011E0A761F0030020019011E12761F1D
:2088D00000302B0E2B0F761F00302B162B17761F00301A0C0010761F00301A140010761F0A
:2088E00000301A0C0020761F00301A140020761F030402001E161E1E0006FE08E2030146A9
:2088F000E2030044A84206441EE48A4206461EF4E2AF0044E2AF0146E70000087700E6885E
:2089000000007700E20300488A428AC406481ED48A428AC42BF48A428AC42BFC8A428AC4C5
:208910001AE400108A428AC41AE400208A428AC418E4FBFF8A428AC418E4F7FF8A428AC4CB
:208920001AE440008A4202001ED4FE880006761F030492330A335200610556BF01320B33D1
:208930006F0A76408A47764080FA76408A4F761F03040B330006FE0656BF01452842126F3E
:2089400028413A83E80218B0E203004476408B9E76408830761F03048A1202001EC47640F7
:2089500082F9E2AF0042E2AF014476408A20761F03048A12BE0006C46002BE017E45764029
:208960008A4776408B979245611B761F03048A12B600BE0006C46002BE0192A66002B60113
:20897000761F03047F349A009334BE00530061029A0152006002BE017E45924560E776401E
:20898000839976408B9B9A00FE86000628AD0400FF69561F5616561AE61002002940761F33
:2089900000002902761B76408B9F52006142762228A98BA228A800000901611B76C08BA2E7
:2089A00029046F0F9B0024A9DF016C04290424A8DF011EA6F7A1248606A781A109011EA7D7
:2089B00024A96303FF5C3B0459A9DF010009FFEC28A9FFFF28A8FFFF090161058F3FFFFF2B
:2089C00076408AE3761A76408BA128A9FFFF28A8FFFF0901610E76FFFFFF6F06DF01C3BDA4
:2089D0001EA73E67C5BE24A9DF0124A8FF5860F776408B4576408A94761BFFF00005ABBD2C
:2089E000A8BDA0BDC2BDC3BDE20000BDE20300BDE20301BDE20302BDE20303BDE63006006D
:2089F000FE02FF6929425616761F0033922296411822FFBFF6057700762FFFFE56BF012192
:208A0000762300012910FF69764089273B109241761F00339622FE82E2AF03BEE2AF02BEF4
:208A1000E2AF01BEE2AF00BEE28000BEC5BEC4BE83BE8ABE87BE00033B30FFF17617760251
:208A2000FE04E2030144E2030042764088ACE8024BA0E2AF01428F00C124E8092000E302E6
:208A30000844764088ED761F00301804FFEF7622761F00358F0089DCA80C761A761F00337E
:208A40001A22004076230001FF69FE8400063B10761F00331A2200402910FF6900063B108F
:208A5000761F00331822FFBFF6057700762FFFFE56BF01212910FF690006FE047D447C43D2
:208A600097429641761F01C41800CFFFCC00F0FF1AA9040096001A000080CC18FFE150063A
:208A70009618181C3FFF5603071DFFA6CCA901FFCD1DFE00CAA8961D1800FFBF1A1800C05A
:208A80001818FFFE9241900FCD02FFF0CAA896021800FFEF92429603924396041A01400032
:208A9000FE84000677006F00B2BD761F030459A9922C610D28ABFFFF28AAFFFF28A9FFFFAF
:208AA00028A8FFFF0FAB6103767FFFFF761F0304C5383E67761F0304063061041EA792A16A
:208AB0003E67761F0304062E61031EA73E6776408A928BBE00063B10761F00331820FFFEFA
:208AC0002B222B242B262B282B2A2B2C2B2E2B302B322B342B362B382B232B252B272B2932
:208AD0002B2B2B2D2B2F2B312B332B352B372B39FF690006761F00331A2000012821FFFFE6
:208AE0002910FF690006B2BDAABDA2BDFE0882A4D1005ACB6F155CAD2901560303A107A31A
:208AF000DC8809025CA483A9020876408B27064261068A44834676408B275ACBD90192A278
:208B000054A166EAFE8882BE86BE8BBE0006FE068F00C000A8428F000D00A84476222B45EA
:208B100092455280630D83448A42A0A9C4840902A8421E44C2C50A459245528064F5761A49
:208B2000761F00331A200001FF69FE8600065200A8AB8EA4610880A9DF8188A780857F8044
:208B3000000EFFFE88A90FA6610F5300610D9DFF5CA876BFFFFE92859680000EFFFE9285E2
:208B40009680000CFFF8A9A4000628ABFFFF28AAFFFF28A9FFFF28A8FFFF0FAB6004BE008F
:208B5000D4006F0928ABFFFF28AAFFFFA9A488C409028AA992A67640893B00067622761F5C
:208B600001C01A1C0008FF6976780080761A761F01C456BFE0188F0249E6FF69A8A97640FA
:208B70008BF700067622761F01BECC06FF3F50409606761AFF690006565C0744FF571E4086
:208B80000006565C0344FF571E400006761F0304A83A0006761F0304A83800060006561F9B
:208B90007622B9C028290068761A0040898629102920FF6900063B10FF69000600069A01D2
:048BA00000060006C5
:208BA200FFFFC14000000000FFF0C15200000000000000003F8000003F8000004080000074
:208BB2004080000040A0000040A000004220FFF0C1620000000043480000437A000045160C
:208BC200CB7D4515400044E75C7244E740004526C0004519FFFFC12C00000001FFFEC12EEC
:208BD200000000000000FFFEC130000000000000FFFFC13200000000FFFFC13300000000B2
:208BE200FFFFC13400000000FFFEC136000000004348FFFEC13800008B8E0000FFFEC13AFA
:0A8BF20000008B8E00000000000060
:088BF700190156C3FFFF00063F
:00000001FF
