:04000000004092CA60
:20800000FE121E4AA048A846E2030044E2AF0144E2AF00C4E6940001AD14621402001E509C
:20801000C4468346E2AF0344E2AF01C4E2AF00C6E320C2D5E720005176408EBEE203004CD3
:208020006F6A064AFF3007468AA9E2AF0044E2AF01C4E6940008AD14633F064A2901FF409F
:208030001E5202001E50064A1E4EBE0129016F140652FF3007468AA9E2AF01C4E694000849
:20804000AD14630406521E4E6F0306521E500650074EFF401E52064E03500FA666EA0650A0
:20805000FF3007468AA90650E2AF00C4FF3007468AA90201E2AF01C40750FF3007468AA9A8
:20806000E2AF0244E32082C4E720005176408EBEE203004C6F20064A19011E50064A190184
:20807000FF3007468AA9064AE2AF00C41901FF3007468AA9064AE2AF01C4FF3007468AA97E
:20808000E2AF0244E32082C4E720005176408EBEE203004C0650FF3007488AA90201E2AF9A
:2080900000C40750FF3007488AA90650E2AF01C4FF3007488AA9E7200008E2AF034CE700D1
:2080A0000018E2AF01C4E7100040FE920006FE02A842761F03088A269B0092DC520060028E
:2080B0009B018A4297CCFE820006761F03088A269B0092DC520060029B0197E4020207260A
:2080C0008AA90ACC8A261BDC01F369022BDC0006FE04A044A8428A44834292C496C5FE84EE
:2080D0000006FE0897489647A846E2030044E5A0AD14650792479B00544863029B0197C493
:2080E000FE880006FE04A044A8428A44834292C496C5FE840006FE0897489647A846E203C3
:2080F0000044E5A0AD14650792489B00544763029B0197C4FE880006FE06A846E203014466
:20810000E2030042E2AF0044E2AF0142E71000407700E20300C4FE860006FE04761F030113
:20811000E2AF003AE8120400AD14600CE590E2030044E2AF003AE88FE0007700E203003A03
:208120006F7AE2AF003EE5A0AD14610DE2AF0036E8120000AD146017E2AF003EE81205000C
:20813000AD146311E8020000E2030044E2AF003EE88FE0007700E203003EE801FC00E2035D
:2081400000366F59E2AF0038E8120000AD146017E2AF003CE8120500AD146311E801FC0040
:20815000E2030044E2AF003CE88FE0007700E203003CE801FC00E20300386F3D761F0302E2
:20816000E2AF0000E8120500AD14630DE8020200E2030044E2AF0000E88FE0007700E203E5
:2081700000006F29E2AF0002E8120500AD14630DE8020400E2030044E2AF0002E88FE00093
:208180007700E20300026F17E2AF0004E8120500AD14630DE8020500E2030044E2AF000489
:20819000E88FE0007700E20300046F05E805FC00E2030044E2AF0044FE840006FE04761F9E
:2081A0000301E2AF003CE5A0AD14610DE2AF0038E811FC00AD146018E2AF003CE812050077
:2081B000AD146312E801FC00E2030044E2AF003CE88FE0007700E203003CE8020000E203E0
:2081C0000038FFEF00B1E2AF0036E811FC00AD146018E2AF003EE8120500AD146312E802E5
:2081D0000000E2030044E2AF003EE88FE0007700E203003EE8020000E2030036FFEF00941F
:2081E000E2AF003AE8120500AD14610DE590E2030044E2AF003AE88FE0007700E203003A30
:2081F000FFEF0082761F0302E2AF0000E8120500AD14610DE8020200E2030044E2AF000000
:20820000E88FE0007700E20300006F6DE2AF0002761F0301E2AF013CE6940001AD14621720
:20821000E2AF003CE8120500AD146111E801FC00E2030044E2AF003CE88FE0007700E203C1
:20822000003CE8020000E20300386F4D761F0302E2AF0002E6940001AD14650DE802040076
:20823000E2030044E2AF0002E88FE0007700E20300026F39E2AF0004761F0301E2AF013E17
:20824000E6940001AD146217E2AF003EE8120500AD146111E8020000E2030044E2AF003E86
:20825000E88FE0007700E203003EE8020000E20300366F19761F0302E2AF0004E6940001E6
:20826000AD14650DE8020500E2030044E2AF0004E88FE0007700E20300046F05E805FC000A
:20827000E2030044E2AF0044FE840006FE04A84202010FD4601692E46114021807428AA99F
:2082800006C41E448A4402010FC4600302021EC4021A07428AA928ABFFFF28AAFFFFA9C41F
:20829000FE840006FE02A84276408276FE820006FE02A84292C4600656BF01C48A42764026
:2082A0008292FE820006FE10764080B56F1006101E4806121E4A6F29060C1E48060E1E4A24
:2082B0006F2406081E48060A1E4A6F1F761F0303E2AF0000E68C000077007700BFA90F128C
:2082C000520161E6520261E96FED061C1E44061E1E466F1806181E44061A1E466F130614D7
:2082D0001E4406161E466F0EE2AF0002E68C000077007700BFA90F12520161E8520261EB77
:2082E0006FEF761F01C41A0140001A1900101A01200040196CFFF60B77009208FFC30EA99E
:2082F000BDA90F127700770077007700E68B0000761F0300E2030008761F01C49209FFC35E
:208300000EA9BDA90F127700770077007700E68B0000761F0300E203000A761F01C4920A55
:20831000FFC30EA9BDA90F127700770077007700E68B0000761F0300E203000C761F01C41D
:20832000920BFFC30EA9BDA90F127700770077007700E68B0000761F0300E203000E761F33
:2083300003039A00E2AF0020761F0300E2AF010EE6940001AD1462029A01964B761F0302EE
:20834000E2AF00448F00C02EFF69931E764080EB924B931E8F00C02FE2AF0046764080D1A7
:20835000761F03009A00E2AF000C761F0303E2AF0122E6940001AD1462029A01964CE801E9
:20836000FC00E2030044761F03029A009313BE00530061029A0152006002BE017E4E931409
:208370009A00BE00530061029A0152006002BE017E4F924E9B0052006104924F61029B01F2
:20838000974D924D6109924C6007924B6005761F030106341E44924D6109924C6007924B89
:208390006105E801FC00E2030044924D6109924C6107924B6005E805FC00E2030044924E96
:2083A0009B0052006106761F0302921461029B01974E924E6109924C6007924B6005E80587
:2083B000FC00E2030044924E6109924C6007924B6105761F030106341E44924E6109924C59
:2083C0006107924B6105E801FC00E2030044761F03029B00921352006104924F61029B0173
:2083D000974E924E6109924C6007924B6005E801FC00E2030044924E6109924C6107924B5C
:2083E0006005761F030106341E44924E6109924C6107924B6105E805FC00E2030044761F69
:2083F00003029B00921352006104921461029B01974E924E6109924C6007924B6105E80528
:20840000FC00E2030044924E6109924C6107924B6005E801FC00E2030044924E6109924C2F
:208410006107924B6105761F030106341E44E2AF00449A00E811FC00AD1460029A013B010E
:2084200085A9BDA90F127700770077007700E6890000761F0300E2030016761F03010644C6
:208430001E34761F03009A01932E761F03015300E2AF01346006761F0300932F60029A0078
:2084400085A9BDA90F12770077007700761F0302E68900008F00C08AE302010A764080FCFE
:20845000924CE2AF0048931F8F00C030764080EB924C931F8F00C031E2AF004A764080D111
:208460009A01761F0300933053006004933160029A003B0185A9BDA90F127700761F03018E
:20847000E2AF01348F00C08CE6890000761F0302E300410C764080FC761F0303E2AF00288C
:20848000761F0302E2AF010CE70000087700E2030048761F0303E2AF0126761F0302E2AF93
:20849000000AE7000009E2AF0348E71000C87700E2030048761F03088A2692E46109064815
:2084A000761F03001E10060A1E1206081E14761F0300E2AF0016E5A0AD146106761F01BF35
:2084B0001A0A00046F05761F01BF1A0C0004924B761F0302961E924C9613924B9614924C7A
:2084C000961FFE900006E20304BDE20305BDFE0C761F0303E2AF0006761F0301E2AF011689
:2084D000E6940001AD14610C02010F02600356BF0105761F03030606761F03011E16920546
:2084E00061102B058A180201BE000FC46002BE017E4B924B610356BF01DC8A1806161EE4C8
:2084F0008A1802010FC461252BD48A181EC48A18E801FC00E20300F4020807188AA9E590BA
:20850000E20300C48318C4E5020A07188AA9C2C48A1856BF01D48A182BDC8A18E801FC00CE
:20851000E20300F4020807188AA9E590E20300C48A1892DC61082BDC8318C4E5020A071809
:208520008AA9C2C48A1806F41E4A020807188AA906C41E46020A07188AA906C41E48E8017D
:20853000FC00E2AF014A76408EBEE6CF0005E2AF0446E2AF014AE801FC0076408EBEE8CF42
:20854000E029761F0300E3030A14E70000107700E71000407700E2030028E2AF0048E2AFE3
:20855000014AE7000008761F0301E88FE0008A18E20300F4761F03000208C428761F03013F
:2085600007188AA9C2C4761F03021B1001FF67020A109215FFE000F056BF011556BF071608
:208570002B10E590761F0301E203003AE203003CE203003E761F0302E2030000E2030002D9
:20858000E2030004761F0301E2030038E2030036761F0300E805FC00E2030018761F030209
:20859000E590E2030006761F0300E203001AFFEF00DA56BF0316E2AF0006E88FE000770079
:2085A000E2030006FFEF00CF56BF0316E2AF0006E88FE0007700E2030006FFEF00C4E2AF52
:2085B000000EE5A0AD14FFE000BE56BF0516E805FC00761F0300E2030018FFEF00B456BF55
:2085C0000316E2AF0006E88FE0007700E2030006FFEF00A9761F0300E2AF0028E8122178B7
:2085D000AD14640BE80225D8E2AF0128E80C0000E6940001AD146507761F030256BF061653
:2085E000FFEF0091E805FC00E2030018FFEF008B761F0300E8022830E2AF0128E80B000016
:2085F000E6940001AD14650C761F030256BF0116E8020600761F0300E20300186F73E2AF00
:208600000028E81223D0AD14630C761F030256BF04167640819E761F0300E20300186F6211
:20861000E81223D0AD14645EE8022830E80B0000E6940001AD146256761F030256BF0216EA
:208620007640810D761F0300E20300186F4B1B10012C680A56BF0516E805FC00761F03002C
:20863000E20300186F3FE590761F0301E203003AE203003CE203003E761F0302E20300008F
:20864000E2030002E2030004761F0301E2030038E2030036761F0300E805FC00E2030018FB
:20865000761F0302E590E2030006761F0300E203001A6F1892165204620E5204FFE1FF61EE
:208660005201FFE1FF385202FFE1FF405203FFE1FF486FBE5205FFE1FF5F5206FFE1FF7A2E
:208670006FB7761F03008F00C0FA8F40C0EA0207E2AF001876408000E203004A761F0302B9
:208680001B1101FF67020A11921AFFE000C556BF011A56BF041B2B11E8021CB0761F0300EC
:20869000E2030020FFEF00D356BF091BFFEF00CF56BF091BFFEF00CBE2AF000EE5A0AD1437
:2086A000600556BF091BFFEF00C2E590761F0300E2030022FFEF00BB1B11012CFFE800B7B8
:2086B00056BF091BFFEF00B3761F0300E2AF0020E8B00000E2AF0110E6940001AD14FFE52D
:2086C00000A6E2AF0020E89000007700E6940001AD14FFE3009C761F030256BF071B2B118D
:2086D000E801FC00761F0300E2030022E590E203002AFFEF008C761F0300E2AF0010E816D1
:2086E0000000AD14650BE8120000AD146307761F030256BF081B2B116F79E590E2030020B4
:2086F000E801FC00E203002A6F7192115232680956BF031BE590761F0300E20300226F66E2
:20870000E801FC00761F0300E2030022E590E203002A6F5C92115228685956BF051B064A23
:20871000761F03001E206F52761F0300E2AF0020E8121550AD14600C761F030256BF021B11
:20872000E8021AE0761F0300E20300206F3FE8161100AD14600C761F030256BF011BE80615
:208730001950761F0300E20300206F30E2AF004AE815FC00AD14612A761F030256BF061B94
:20874000E590761F0300E2030020E801FC00E203002A6F1C921B520562115205FFE1FF6675
:208750005201FFE1FF435202FFE1FF445203FFE1FF455204FFE1FF526FB85206FFE1FF7D42
:2087600052076194520861A76FB0761F03021B1201FF67020A12921C607E56BF011C56BF0B
:20877000021D2B12E590761F0300E2030026E8021240E20300246F7792125228681056BF9F
:20878000041DE590761F0300E2030024E801FC00E2030026E590E203002C6F65E590761F4E
:208790000300E20300266F5F1B12012C681056BF041DE590761F0300E2030024E801FC00EA
:2087A000E2030026E590E203002C6F4DE590761F0300E2030026E8021240E20300246F435D
:2087B00092125228680A56BF011D2B12E590761F0300E20300266F37E8021240761F030017
:2087C000E2030024E801FC00E203002C6F2C761F0300E2AF0022E811FC00AD146011761FF8
:2087D000030256BF031D2B12E8021240761F0300E2030024E801FC00E203002C6F14E59047
:2087E000E2030024E801FC00E2030026E590E203002C6F09921D52016190520261A65203DF
:2087F00061C06FD6E2AF0026E5A0AD146106761F01BF1A0300016F05761F01BF1A05000143
:20880000761F0300E2AF0010E2AF0120E72000087700E203004A761F0304E2AF014AE2AFAF
:20881000000CE6940001AD146507E72000087700E203004A6F10E2AF000AE6940001AD1489
:208820006405E590E203004A6F06E72000087700E203004AE2AF010EE70000087700E20316
:20883000004A9A00E5A0AD1465029A013B0185A9BDA90F127700770077007700E6890000C0
:20884000761F0300E203001CE5A0AD146106761F01BF1A0300086F05761F01BF1A05000868
:20885000E2AF004AE6950000E2030044E801F801E6940001AD14630AE8121380AD14630647
:20886000E8021380E20300446F11E811F800AD146205E590E20300446F09E8121640AD1492
:208870006405E8021640E2030044761F01A3E2AF0244E2C40105E801E118E7000051E80E4A
:20888000B850E70000407700E68E000077007700BFA90F12960A761F0300E2AF0224761FC3
:2088900001A5E2C40105E801E118E7000051E80EB850E70000407700E68E0000770077005E
:2088A000BFA90F12960A761F03029219527F670592199C0190FF96199217603256BF01171F
:2088B00056BF03186F33E590761F0300E203001E6F2D92195264680956BF0118E590761F20
:2088C0000300E203001E6F22E8021240761F0300E203001E6F1B761F0300E2AF001AE81164
:2088D000FC00AD146013761F030256BF02182B19E8021240761F0300E203001E6F07921854
:2088E000520161D2520261D66FE7761F01A2E2C40105E801E118761F0300E2AF021EE7001B
:2088F0000051E80EB850E70000407700E68E00007700761F01A2BFA90F12960A761F030097
:20890000E2AF002AE2AF012CE7100040761F0302E203000EFE8CE2AF05BEE2AF04BE0006E3
:20891000FE02761F03088A26F6052B848F00C008F6292B848F00C040F6612B84E590761F89
:208920000302E2030008761F030092006007764092AD761F030056BF01002B419A03D40034
:20893000D50028A8104576409194761F030156BF010002001E0219011E1A2B00761F03026A
:2089400056BF0120761F030102010F02600356BF0105761F03030606761F03011E162B0413
:2089500002011E021E1A02001E1CBE0002010F1C6002BE017E429242610356BF011F06161A
:208960001E208F00C05CA81856BF01042B057622761F01BE1808FFFC1A0B0001761A7622AF
:208970001808FF3F1A0B0008761A761F01A32805FA00CC00C04050309600180300002B0440
:208980001807FFA028097D002B0A56BF240B280C0108180DFF3F180EFFF0180FFFC02B101C
:208990002B11921990F01AA911019619CC1ACCFC1AA91101961A181EF80076222B12CC14C6
:2089A000FFF0500F96141815FFF9761A761F01A52805FA00CC00C0405030960018030000AB
:2089B0002B041807FFA028097D002B0A56BF240B280C0108180DFF3F180EFFF0180FFFC0F8
:2089C0002B102B11921990F01AA911019619CC1ACCFC1AA91101961A181EF80076222B123B
:2089D000CC14FFF0500F96141815FFF9761A761F01A22805FA00CC00C0405030960018039E
:2089E00000002B041807FFA028097D002B0A56BF240B280C0108180DFF3F180EFFF0180F87
:2089F000FFC02B102B11921990F01AA911019619CC1ACCFC1AA91101961A181EF800762289
:208A00002B12CC14FFF0500F96141815FFF9761A7622761F01BE1816FFCF1A1A0004761ADC
:208A1000761F01A42805FA00CC00C04050309600180300002B041807FFA028094B00280A4D
:208A2000C80056BF240B280C0108180DFF3F180EFFF0180FFFC02B102B11921990F01AA92A
:208A300011019619CC1ACCFC1AA91101961A181EF80076222B12CC14FFF0500F961418152A
:208A4000FFF9761A761F03039204761F0302961E761F03049216761F03029613761F0304EC
:208A50009217761F03029614761F03030624761F03011E34761F03040610761F03021E0AF5
:208A6000761F03039205761F0302961F761F03040612761F03021E0C761F03040614761FB2
:208A700003021E0E8F40C118FF698F00C02E764080E28F00C02F8F40C119764080C88F005C
:208A8000C0308F40C11A764080E28F00C0318F40C11B764080C8761F03018A1802010FC4EA
:208A9000600BE801FC00E20300F4020807188AA9E590E20300C4761F03022B102B152B16CD
:208AA0002B112B1A2B1B2B122B1C2B1D2B192B172B18FE8200068F00C0407640829800066F
:208AB000761BFFF0E20000BDE63006002942561676256F00761BFFF0E20000BDE63006004F
:208AC0002942561676256F00761BFFF0E20000BDE63006002942561676256F00761BFFF019
:208AD000E20000BDE63006002942561676256F00761BFFF0E20000BDE630060029425616D8
:208AE00076256F00761BFFF0E20000BDE63006002942561676256F00761BFFF0E20000BD31
:208AF000E63006002942561676256F00761BFFF0E20000BDE63006002942561676256F004D
:208B0000761BFFF0E20000BDE63006002942561676256F00761BFFF0E20000BDE6300600FE
:208B10002942561676256F00761BFFF0E20000BDE63006002942561676256F00761BFFF0C8
:208B2000E20000BDE63006002942561676256F00761BFFF0E20000BDE63006002942561687
:208B300076256F00761BFFF0E20000BDE63006002942561676256F00761BFFF0E20000BDE0
:208B4000E63006002942561676256F00761BFFF0E20000BDE63006002942561676256F00FC
:208B5000761BFFF0E20000BDE63006002942561676256F00761BFFF0E20000BDE6300600AE
:208B60002942561676256F00761BFFF0E20000BDE63006002942561676256F00761BFFF078
:208B7000E20000BDE63006002942561676256F00761BFFF0E20000BDE63006002942561637
:208B800076256F00761BFFF0E20000BDE63006002942561676256F00761BFFF0E20000BD90
:208B9000E63006002942561676256F00761BFFF0E20000BDE63006002942561676256F00AC
:208BA000761BFFF0E20000BDE63006002942561676256F00761BFFF0E20000BDE63006005E
:208BB0002942561676256F00761BFFF0E20000BDE63006002942561676256F00761BFFF028
:208BC000E20000BDE63006002942561676256F00761BFFF0E20000BDE630060029425616E7
:208BD00076256F00761BFFF0E20000BDE63006002942561676256F00761BFFF0E20000BD40
:208BE000E63006002942561676256F00761BFFF0E20000BDE63006002942561676256F005C
:208BF000761BFFF0E20000BDE63006002942561676256F00761BFFF0E20000BDE63006000E
:208C00002942561676256F00761BFFF0E20000BDE63006002942561676256F00761BFFF0D7
:208C1000E20000BDE63006002942561676256F00761BFFF0E20000BDE63006002942561696
:208C200076256F00761BFFF0E20000BDE63006002942561676256F00761BFFF0E20000BDEF
:208C3000E63006002942561676256F00761BFFF0E20000BDE63006002942561676256F000B
:208C4000761BFFF0E20000BDE63006002942561676256F00761BFFF0E20000BDE6300600BD
:208C50002942561676256F00761BFFF0E20000BDE63006002942561676256F00761BFFF087
:208C6000E20000BDE63006002942561676256F00761BFFF0E20000BDE63006002942561646
:208C700076256F00761BFFF0E20000BDE63006002942561676256F00761BFFF0E20000BD9F
:208C8000E63006002942561676256F00761BFFF0E20000BDE63006002942561676256F00BB
:208C9000761BFFF0E20000BDE63006002942561676256F00761BFFF0E20000BDE63006006D
:208CA0002942561676256F00761BFFF0E20000BDE63006002942561676256F00761BFFF037
:208CB000E20000BDE63006002942561676256F00761BFFF0E20000BDE630060029425616F6
:208CC00076256F00761BFFF0E20000BDE63006002942561676256F00761BFFF0E20000BD4F
:208CD000E63006002942561676256F00761BFFF0E20000BDE63006002942561676256F006B
:208CE000761BFFF0E20000BDE63006002942561676256F00761BFFF0E20000BDE63006001D
:208CF0002942561676256F00761BFFF0E20000BDE63006002942561676256F00761BFFF0E7
:208D0000E20000BDE63006002942561676256F00761BFFF0E20000BDE630060029425616A5
:208D100076256F00761BFFF0E20000BDE63006002942561676256F00761BFFF0E20000BDFE
:208D2000E63006002942561676256F00761BFFF0E20000BDE63006002942561676256F001A
:208D3000761BFFF0E20000BDE63006002942561676256F00761BFFF0E20000BDE6300600CC
:208D40002942561676256F00761BFFF0E20000BDE63006002942561676256F00761BFFF096
:208D5000E20000BDE63006002942561676256F00761BFFF0E20000BDE63006002942561655
:208D600076256F00761BFFF0E20000BDE63006002942561676256F00761BFFF0E20000BDAE
:208D7000E63006002942561676256F00761BFFF0E20000BDE63006002942561676256F00CA
:208D8000761BFFF0E20000BDE63006002942561676256F00761BFFF0E20000BDE63006007C
:208D90002942561676256F00761BFFF0E20000BDE63006002942561676256F00761BFFF046
:208DA000E20000BDE63006002942561676256F00761BFFF0E20000BDE63006002942561605
:208DB00076256F00761BFFF0E20000BDE63006002942561676256F00761BFFF0E20000BD5E
:208DC000E63006002942561676256F0076408DD99A0A9B0276408DE176408E320006762201
:208DD000761F01C056BF552556BFAA25761AFF6900067622761F01C056BF6829761AFF6930
:208DE0000006FE0297429641761F01C043116C027625CC110180FFC6610576221811FE7F43
:208DF000761A0E411EA69221900F80A906A60FA7611676221A1100409241CD21FFF0900F1A
:208E0000CAA89621761AFF6976408DD992119001520160FD76221811FFBF761A92425201FB
:208E100061035202600976229003CD11FE7FFF86CAA89611761A9242520360127622CC115D
:208E2000FE7F1AA9010096118F0005DAFF69A8A97640936C761F01C01A110180761AFE825C
:208E3000FF6900067622761F01C056BF011A56BF021B761F002CCC35FFF8500196351A3441
:208E400000041834FFF7761F01C01A1C0008FF6976780080761F01C01A1C00101A1C04008C
:208E50001A1C08001A1C00201A1C01001A1C10001A1C20001A1C40001A1C8000181CFFFB41
:208E60001A1D00011A1D00021A1D00041A1D00081A1D00101A1D00201A1C00041A1D0400F4
:208E70001A1D08001A1D10001A1D20001A1D01001A1D02001A1D40001A1D80001A2001002B
:208E80001A2002001A2004001A2008001A2010001A202000761AFF690006FE027622761F47
:208E9000002B2820FFFF2821FFFF2822FFFF2823FFFF2824FFFF2825FFFF2826FFFF282749
:208EA000FFFF761A761FCFFF9238964192399641923A9641923B9641923C9641923D9641EC
:208EB000923E9641923F9641761F002B402F6D039A016F029A00FE82FF6900063ABDB2BDBA
:208EC000AABDA2BDFE022901BFA90F12FF58615B5CA8917F08A800801E4293A4FFD65CA852
:208ED000BFA90F1661675DA8917F08A8008059A858A993A5FFD65DA893A471A518A80100C6
:208EE00097A618A400FF18A500FFDC7F92A49EA596A7644D08A9FF01623E93A192A0FF3610
:208EF00059A858A90642FF35F60E1FA15BA901A3F60A1FA1562D04A22DA336A0FF40F60BA9
:208F00001FA1FF339B00FF30FF540CA295A3FF4008A70001F61FFF770920FF4008A70001CA
:208F1000F61FFF77FF5A92A7652208A9FF016313A9A9FF46917F5BA85AA925A695A7FF962D
:208F20000CA295A3BDA90F12FE8282BE86BE8BBE8EBE00069B00FF5708A8FF7FFF5A93A674
:208F300060F228A8800071AA92AB6FEDFF2000006FEAFF5A93A418A80100FF965CA8A9A917
:208F400008A8FF7F1CA88000CBA46FDDFE02761F0302923E0A3E5200610556BF013B0B3EE0
:208F50006F295CADDC825CA4764080A77640917E764082A376409186761F03020B3E924102
:208F60006109923D0A3D5200610556BF013B0B3D6F11923D610F923F600D0A3F7640917E15
:208F7000764084C36F0176409186761F03020B3D0B3FFE820006FE0656BF01452842C5ACBB
:208F8000284137A7E80218B0E2030044764092D976408FC6761F03088A2602001EC4764099
:208F90008910E2AF0042E2AF014476409157761F03088A26BE0006C46002BE017E4576406F
:208FA000917E764092D29245611B761F03088A26B600BE0006C46002BE0192A66002B60135
:208FB000761F03027F3A9A00933ABE00530061029A0152006002BE017E45924560E77640CE
:208FC0008AAB764092D69A00FE86000676408DD99A0A9B0276408DE176408E327622761FF6
:208FD00001C02B1B56BF011A761A7622761F002C1835FFF81834FFF71834FFFBCC3400C0D5
:208FE000FFC560FD1834FFFCCC38FFC750189638CC38FFF8500396380620900018A8FFBCBC
:208FF0001AA994A951031E20062C900018A8FFBC1AA994A951031E2C062E900018A8FFBCB5
:209000001AA994A951031E2E761AFF6976409023F60677003B1076260000762F0000FF69E8
:20901000764091F27640923E76409042764092957622761F01BE02001E021E041E121E148A
:20902000761AFF6900067622761F01BE0200C4261AA9FFFF1AA8FFFF1E2606169B00900F3F
:209030001AA8FFFF1AA9FFF01E1602001AA9FFFFC4281E28060891FF1AA8FF001E08761A70
:20904000FF6900068F000C00761F0302A8320200761F003019011E022B062B071A04001001
:209050001A0400200200761F03021E348F000C08A8228F000C10A82A761F003019011E0AE3
:20906000761F0030020019011E12761F00302B0E2B0F761F00302B162B17761F00301A0C74
:209070000010761F00301A140010761F00301A0C0020761F00301A140020761F0302020013
:209080001E241E2C0006FE08E2030146E2030044A84206441EE48A4206461EF4E2AF0044AE
:20909000E2AF0146E70000087700E68800007700E20300488A428AC406481ED48A428AC4FC
:2090A0002BF48A428AC42BFC8A428AC41AE400108A428AC41AE400208A428AC418E4FBFFE0
:2090B0008A428AC418E4F7FF8A428AC41AE440008A4202001ED4FE88000628AD0400FF69AF
:2090C000561F5616561AE61002002940761F00002902761B764092DA52006142762228A90D
:2090D00092DD28A800000901611B76C092DD29046F0F9B0024A9DF016C04290424A8DF01DA
:2090E0001EA6F7A1248606A781A109011EA724A96303FF5C3B0459A9DF010009FFEC28A958
:2090F000FFFF28A8FFFF090161058F3FFFFF7640921A761A764092DC28A9FFFF28A8FFFFA5
:209100000901610E76FFFFFF6F06DF01C3BD1EA73E67C5BE24A9DF0124A8FF5860F77640C4
:20911000927C764091CB761BFFF00005ABBDA8BDA0BDC2BDC3BDE20000BDE20300BDE2034B
:2091200001BDE20302BDE20303BDE6300600FE02FF6929425616761F003392229641182240
:20913000FFBFF6057700762FFFFE56BF0121762300012910FF6976408F463B109241761F9D
:2091400000339622FE82E2AF03BEE2AF02BEE2AF01BEE2AF00BEE28000BEC5BEC4BE83BEFC
:209150008ABE87BE00033B30FFF176177602FE04E2030144E203004276409042E8024BA05F
:20916000E2AF01428F00C0B2E8092000E302084476409083761F00301804FFEF7622761F13
:2091700000358F009113A80C761A761F00331A22004076230001FF69FE8400063B10761F85
:2091800000331A2200402910FF6900063B10761F00331822FFBFF6057700762FFFFE56BF45
:2091900001212910FF690006FE047D447C4397429641761F01C41800CFFFCC00F0FF1AA906
:2091A000040096001A000080CC18FFE150069618181C3FFF5603071DFFA6CCA901FFCD1DC0
:2091B000FE00CAA8961D1800FFBF1A1800C01818FFFE9241900FCD02FFF0CAA89602180035
:2091C000FFEF92429603924396041A014000FE84000677006F00B2BD761F030459A9921C41
:2091D000610D28ABFFFF28AAFFFF28A9FFFF28A8FFFF0FAB6103767FFFFF761F0304C5223F
:2091E0003E67761F0304062061041EA792A13E67761F0304061E61031EA73E67764091C968
:2091F0008BBE00063B10761F00331820FFFE2B222B242B262B282B2A2B2C2B2E2B302B32CB
:209200002B342B362B382B232B252B272B292B2B2B2D2B2F2B312B332B352B372B39FF6997
:209210000006761F00331A2000012821FFFF2910FF690006B2BDAABDA2BDFE0882A4D10015
:209220005ACB6F155CAD2901560303A107A3DC8809025CA483A902087640925E06426106B1
:209230008A4483467640925E5ACBD90192A254A166EAFE8882BE86BE8BBE0006FE068F007D
:20924000C126A8428F000D00A84476222B4592455280630D83448A42A0A9C4840902A8427B
:209250001E44C2C50A459245528064F5761A761F00331A200001FF69FE8600065200A8AB9A
:209260008EA4610880A9DF8188A780857F80000EFFFE88A90FA6610F5300610D9DFF5CA8D5
:2092700076BFFFFE92859680000EFFFE92859680000CFFF8A9A4000628ABFFFF28AAFFFF50
:2092800028A9FFFF28A8FFFF0FAB6004BE00D4006F0928ABFFFF28AAFFFFA9A488C40902C4
:209290008AA992A676408F7B00067622761F01BECC063FFF1AA940009606CC07FF3F504051
:2092A0009607CC06F3FF1AA904009606CC07FFF350049607761AFF6900067622761F01C048
:2092B0001A1C0008FF6976780080761A761F01C456BFE0188F0249E6FF69A8A97640936C65
:2092C0000006761F0304A8240006761F0304A82200060006561F7622B9C028290068761AD9
:1A92D000004090BD29102920FF6900063B10FF69000600069A0100060006A1
:2092DD00FFA4C0C00000000040400000404000000000999A3E9900003F8000003F800000C6
:2092ED00000000003F8000003F800000000000003F8000003F800000000000003F800000A6
:2092FD003F8000000000000044FA000044FA00000000A5E33D9BA5E33D9B0000BF80000017
:20930D00C3DC8000C3930000C32A0000C220000042AA0000435C000043D70000BF80000018
:20931D00000000003F80000040000000404000004080000040A0000040C00000BF00000052
:20932D003F0000003F80000000000000000000000000000000000000000000000000FFFF24
:20933D00C0BA00000000FFFFC0BB00000000FFFEC0BC000000000000FFFEC0BE0000000029
:20934D000000FFFFC11C00000001FFFEC11E000000000000FFFEC120000000000000FFFE6D
:1E935D00C122000092C90000FFFEC124000092C90000FFFFC0000000000000000000B9
:08936C00190156C3FFFF0006C2
:00000001FF
