:0400000000408BBD74
:20800000FE061E44064A1E42064476408BAA1E46FE860006FE02A8420266761F030D072AFF
:208010008AA99B0092C4520060029B018A4297D4FE8200060265761F030D072A8AA992C459
:20802000600C0266072A8AA9BE0092C46002BE010267072A8AA97EC40264072A8AA90AD41C
:208030000266072A8AA992C4526369050266072A8AA92BC40006FE04E8020500E203004410
:20804000761F0307E2AF001EE5A0AD14600CE590E2030044E2AF001EE88FE0007700E20320
:20805000001E6F5A062E610AE2AF001AE8120000AD14601502050F2E6512E8020000E20325
:20806000004402011E42062E76408000761F03071E2EE801FC00E203001A6F3EE2AF001CC6
:20807000E8120000AD14601502050F2C6512E801FC00E203004402011E42062C764080002E
:20808000761F03071E2CE801FC00E203001C6F24E2AF0020E8120500AD14630DE8020200B1
:20809000E2030044E2AF0020E88FE0007700E20300206F12E2AF0022E8120500AD14630CC0
:2080A000E8020400E2030044E2AF0022E88FE0007700E2030022E2AF0044FE840006FE04C2
:2080B000761F0307062C610AE2AF001CE811FC00AD14601502050F2C6512E801FC00E20319
:2080C000004402011E42062C76408000761F03071E2CE8020000E203001C6F3AE2AF001A69
:2080D000E811FC00AD14601502050F2E6512E8020000E203004402011E42062E76408000CA
:2080E000761F03071E2EE8020000E203001A6F20E2AF001EE8120500AD14630FE5A0AD14F6
:2080F000650CE590E2030044E2AF001EE88FE0007700E203001E6F0CE8020200E203004451
:20810000E2AF0020E88FE0007700E2030020E2AF0044FE840006FE187640801A0267072A7E
:208110008AA992C46107761F03070618761F03001E00761F0307923452FF670592349C0166
:2081200090FF96349232607056BF013256BF0733E590E203001E02001E2C1E2EE2030020A6
:20813000E2030022E203001CE203001A6F6E92345296686B56BF03336F689234529668652D
:2081400056BF03336F6256BF05336F5F92345296685C56BF03336F59761F0308E2AF000032
:20815000E8121E40AD146351761F030756BF06336F4C761F0300E8022800E2AF0100E8096D
:208160000000E6940001AD146507761F030756BF01332B346F3AE2AF0000E5A0AD14650D1E
:20817000E81223D0AD146309761F030756BF04332B34764080AF6F29E81223D0AD146425D7
:20818000E8022800E8090000E6940001AD14621D761F030756BF02332B347640803B6F15E4
:2081900056BF05336F1292335204620A520461AF5201619E520261A2520361A66FF2520557
:2081A00061AC520661B76FED761F03071B3101FF67020A319235602956BF013556BF02366F
:2081B0002B316F3456BF07362B316F301B31012C682D56BF07362B316F2956BF05362B3163
:2081C0006F2556BF06362B316F2192315246681E56BF01366F1B9231520A681856BF03362A
:2081D0006F1556BF04366F1292365204620A520461E9520161D8520261DA520361DF6FF200
:2081E000520561E4520661E86FED06261E4406241E4692309649761F030D026A072A8AA9B4
:2081F0008AC406C41E488A46E2AF0148E2AF00C4E6940001AD1462032B496F37023A0746AE
:208200008AA9E2AF0048E2AF01C4E6940008AD14640456BF1C496F293B0156030149074613
:208210008AA9E2AF01C4E6940008AD1464033B016F103B016F020B495603014907468AA93C
:20822000E2AF01C4E6940008AD1464F66F0E0A4992499C01560301A907468AA9E2AF01C42A
:20823000E6940008AD1463F49249761F030796303B015603014907468AA906C41E4C9249E6
:208240009C01560301A907468AA906C41E4EE2AF004EE2AF014CE6940001AD14601DE2AFC1
:20825000004CE2AF0148E6940001AD14630A5603014907448AA9761F030006C41E026F4BE2
:2082600092499C01560301A907448AA9761F030006C41E026F40E2AF024EE2AF034EE3220C
:208270008848E72000187640880AE2030050E8CFE0007700E2030052924996573B015603E0
:20828000015707448AA906C41E5492579C01560301A907448AA906C41E56E2AF0154E2AF10
:208290000056E6940001AD146004E2AF00546F0CE2AF0050E2AF0252E3004356E7000099B6
:2082A0007700E7100040761F0300E2030002023C07441E440267761F030D072A8AA992C4DE
:2082B0006105761F030006021E04025E761F030D072A83A9020107C5BDA90F1277007700E0
:2082C00077000260E20300C5072A8AA9026AE68B0000E2AF01C4072A8AA9E70000088AC4E3
:2082D000E20300C40262072A8AA90201560100C4FE980006FE0C761F030506001E42060848
:2082E0001E44062C1E46761F030606101E48E2AF0042E2AF0144E7100040E2AF0146E710BD
:2082F0000040E2AF0148E7100040E2AF0134E71000407700E203004A761F0307064A1E1855
:20830000761F030506021E0006041E0206061E04761F03000604761F03051E062B4B924B8C
:20831000521163453B019C018F00C148560301A9560100A4C4C45603014B8F00C1485601B7
:2083200000A4C2C4924B9C018F00C16C560301A9560100A4C4C45603014B8F00C16C56019F
:2083300000A4C2C4924B9C018F00C190560301A9560100A4C4C45603014B8F00C190560147
:2083400000A4C2C4924B9C018F00C1B4560301A9560100A4C4C45603014B8F00C1B45601EF
:2083500000A4C2C40A4B924B521164BE0642761F03051E2A761F030606441E0E06461E324F
:208360000648761F03071E16FE8C0006FE02761F030D8A2AF6712B848A2A0268072A1EE48C
:20837000026A072A1EA60228072A8AA9C2C40260072A1EA60210072A8AA9C2C4C42A0250E5
:20838000072A8AA9C2C48A2A062A1ED48A2A8AE456BF01C40208072A8AA98F40C358A0C465
:20839000026C072A1EA6026A072A8AA9C2C40260072A8AA9E801E118E80EB850E20300C4C5
:2083A0008F00C000F6052B848F00C140F6B72B84E590761F0307E203002A761F030806020D
:2083B000761F03001E00761F03078F00C040A8248F00C080A8262B301E18761F0308062009
:2083C000761F03051E001E021E041E062B419241521263283B01761F0308C42256030141F1
:2083D0008F00C148560100A4C2C4C424560301418F00C16C560100A4C2C4C426560301412F
:2083E0008F00C190560100A4C2C4C428560301418F00C1B4560100A4C2C40A41924152128E
:2083F00064DB761F03072B342B322B332B312B352B36FE8200060006761BFFF0E20000BDAD
:20840000E63006002942561676256F00761BFFF0E20000BDE63006002942561676256F0043
:20841000761BFFF0E20000BDE63006002942561676256F00761BFFF0E20000BDE6300600F5
:208420002942561676256F00761BFFF0E20000BDE63006002942561676256F00761BFFF0BF
:20843000E20000BDE63006002942561676256F00761BFFF0E20000BDE6300600294256167E
:2084400076256F00761BFFF0E20000BDE63006002942561676256F00761BFFF0E20000BDD7
:20845000E63006002942561676256F00761BFFF0E20000BDE63006002942561676256F00F3
:20846000761BFFF0E20000BDE63006002942561676256F00761BFFF0E20000BDE6300600A5
:208470002942561676256F00761BFFF0E20000BDE63006002942561676256F00761BFFF06F
:20848000E20000BDE63006002942561676256F00761BFFF0E20000BDE6300600294256162E
:2084900076256F00761BFFF0E20000BDE63006002942561676256F00761BFFF0E20000BD87
:2084A000E63006002942561676256F00761BFFF0E20000BDE63006002942561676256F00A3
:2084B000761BFFF0E20000BDE63006002942561676256F00761BFFF0E20000BDE630060055
:2084C0002942561676256F00761BFFF0E20000BDE63006002942561676256F00761BFFF01F
:2084D000E20000BDE63006002942561676256F00761BFFF0E20000BDE630060029425616DE
:2084E00076256F00761BFFF0E20000BDE63006002942561676256F00761BFFF0E20000BD37
:2084F000E63006002942561676256F00761BFFF0E20000BDE63006002942561676256F0053
:20850000761BFFF0E20000BDE63006002942561676256F00761BFFF0E20000BDE630060004
:208510002942561676256F00761BFFF0E20000BDE63006002942561676256F00761BFFF0CE
:20852000E20000BDE63006002942561676256F00761BFFF0E20000BDE6300600294256168D
:2085300076256F00761BFFF0E20000BDE63006002942561676256F00761BFFF0E20000BDE6
:20854000E63006002942561676256F00761BFFF0E20000BDE63006002942561676256F0002
:20855000761BFFF0E20000BDE63006002942561676256F00761BFFF0E20000BDE6300600B4
:208560002942561676256F00761BFFF0E20000BDE63006002942561676256F00761BFFF07E
:20857000E20000BDE63006002942561676256F00761BFFF0E20000BDE6300600294256163D
:2085800076256F00761BFFF0E20000BDE63006002942561676256F00761BFFF0E20000BD96
:20859000E63006002942561676256F00761BFFF0E20000BDE63006002942561676256F00B2
:2085A000761BFFF0E20000BDE63006002942561676256F00761BFFF0E20000BDE630060064
:2085B0002942561676256F00761BFFF0E20000BDE63006002942561676256F00761BFFF02E
:2085C000E20000BDE63006002942561676256F00761BFFF0E20000BDE630060029425616ED
:2085D00076256F00761BFFF0E20000BDE63006002942561676256F00761BFFF0E20000BD46
:2085E000E63006002942561676256F00761BFFF0E20000BDE63006002942561676256F0062
:2085F000761BFFF0E20000BDE63006002942561676256F00761BFFF0E20000BDE630060014
:208600002942561676256F00761BFFF0E20000BDE63006002942561676256F00761BFFF0DD
:20861000E20000BDE63006002942561676256F00761BFFF0E20000BDE6300600294256169C
:2086200076256F00761BFFF0E20000BDE63006002942561676256F00761BFFF0E20000BDF5
:20863000E63006002942561676256F00761BFFF0E20000BDE63006002942561676256F0011
:20864000761BFFF0E20000BDE63006002942561676256F00761BFFF0E20000BDE6300600C3
:208650002942561676256F00761BFFF0E20000BDE63006002942561676256F00761BFFF08D
:20866000E20000BDE63006002942561676256F00761BFFF0E20000BDE6300600294256164C
:2086700076256F00761BFFF0E20000BDE63006002942561676256F00761BFFF0E20000BDA5
:20868000E63006002942561676256F00761BFFF0E20000BDE63006002942561676256F00C1
:20869000761BFFF0E20000BDE63006002942561676256F00761BFFF0E20000BDE630060073
:2086A0002942561676256F00761BFFF0E20000BDE63006002942561676256F00761BFFF03D
:2086B000E20000BDE63006002942561676256F00761BFFF0E20000BDE630060029425616FC
:2086C00076256F00761BFFF0E20000BDE63006002942561676256F00761BFFF0E20000BD55
:2086D000E63006002942561676256F00761BFFF0E20000BDE63006002942561676256F0071
:2086E000761BFFF0E20000BDE63006002942561676256F00761BFFF0E20000BDE630060023
:2086F0002942561676256F00761BFFF0E20000BDE63006002942561676256F00761BFFF0ED
:20870000E20000BDE63006002942561676256F00761BFFF0E20000BDE630060029425616AB
:2087100076256F00764087259A0A9B027640872D7640877E00067622761F01C056BF5525F4
:2087200056BFAA25761AFF6900067622761F01C056BF6829761AFF690006FE029742964115
:20873000761F01C043116C027625CC110180FFC6610576221811FE7F761A0E411EA6922159
:20874000900F80A906A60FA7611676221A1100409241CD21FFF0900FCAA89621761AFF6905
:208750007640872592119001520160FD76221811FFBF761A924252016103520260097622D4
:208760009003CD11FE7FFF86CAA89611761A9242520360127622CC11FE7F1AA901009611E5
:208770008F0005DAFF69A8A976408CAE761F01C01A110180761AFE82FF6900067622761F25
:2087800001C056BF011A56BF021B761F002CCC35FFF8500196351A3400041834FFF7761FB8
:2087900001C01A1C0008FF6976780080761F01C01A1C00101A1C04001A1C08001A1C00208A
:2087A0001A1C01001A1C10001A1C20001A1C40001A1C8000181CFFFB1A1D00011A1D00021B
:2087B0001A1D00041A1D00081A1D00101A1D00201A1C00041A1D04001A1D08001A1D100096
:2087C0001A1D20001A1D01001A1D02001A1D40001A1D80001A2001001A2002001A200400EE
:2087D0001A2008001A2010001A202000761AFF690006FE027622761F002B2820FFFF2821BE
:2087E000FFFF2822FFFF2823FFFF2824FFFF2825FFFF2826FFFF2827FFFF761A761FCFFFC9
:2087F0009238964192399641923A9641923B9641923C9641923D9641923E9641923F964145
:20880000761F002B402F6D039A016F029A00FE82FF6900063ABDB2BDAABDA2BDFE022901CF
:20881000BFA90F12FF58615B5CA8917F08A800801E4293A4FFD65CA8BFA90F1661675DA89E
:20882000917F08A8008059A858A993A5FFD65DA893A471A518A8010097A618A400FF18A521
:2088300000FFDC7F92A49EA596A7644D08A9FF01623E93A192A0FF3659A858A90642FF35FD
:20884000F60E1FA15BA901A3F60A1FA1562D04A22DA336A0FF40F60B1FA1FF339B00FF3021
:20885000FF540CA295A3FF4008A70001F61FFF770920FF4008A70001F61FFF77FF5A92A720
:20886000652208A9FF016313A9A9FF46917F5BA85AA925A695A7FF960CA295A3BDA90F1294
:20887000FE8282BE86BE8BBE8EBE00069B00FF5708A8FF7FFF5A93A660F228A8800071AADB
:2088800092AB6FEDFF2000006FEAFF5A93A418A80100FF965CA8A9A908A8FF7F1CA8800019
:20889000CBA46FDDFE04761F0307923A0A3A5200610556BF01390B3A6F295CADDC835CA410
:2088A0007640800A76408AC87640810B76408AD0761F03070B3A92416109923F0A3F520091
:2088B000610556BF01390B3F6F11923F610F923B600D0A3C76408AC8764082DA6F01764028
:2088C0008AD0761F03070B3F0B3CFE840006FE0656BF01452842D70A28413C23E80218B062
:2088D000E203004476408BCC7640898D761F030D8A2A02001EC476408366E2AF0042E2AF46
:2088E000014476408AA1761F030D8A2ABE0006C46002BE017E4576408AC876408BC59245A8
:2088F000611B761F030D8A2AB600BE0006C46002BE0192A66002B601761F03077F389A00F3
:208900009338BE00530061029A0152006002BE017E45924560E7764083FB76408BC99A0051
:20891000FE8600068F000C00761F0309A8100200761F003019011E022B062B071A04001037
:208920001A0400200200761F03091E128F000C08A8008F000C10A808761F003019011E0A79
:20893000761F0030020019011E12761F00302B0E2B0F761F00302B162B17761F00301A0CAB
:208940000010761F00301A140010761F00301A0C0020761F00301A140020761F0309020043
:208950001E021E0A0006FE08E2030146E2030044A84206441EE48A4206461EF4E2AF004429
:20896000E2AF0146E70000087700E68800007700E20300488A428AC406481ED48A428AC433
:208970002BF48A428AC42BFC8A428AC41AE400108A428AC41AE400208A428AC418E4FBFF17
:208980008A428AC418E4F7FF8A428AC41AE440008A4202001ED4FE880006764087259A0A21
:208990009B027640872D7640877E7622761F01C02B1B56BF011A761A7622761F002C18356B
:2089A000FFF81834FFF71834FFFBCC3400C0FFC560FD1834FFFCCC38FFC750189638CC380C
:2089B000FFF8500396380620900018A8FFBC1AA994A951031E20062C900018A8FFBC1AA9CC
:2089C00094A951031E2C062E900018A8FFBC1AA994A951031E2E761AFF69764089E8F606C2
:2089D00077003B1076260000762F0000FF6976408B0776408B53764089127622761F01BE03
:2089E00002001E021E041E121E14761AFF6900067622761F01BE0200C4261AA9FFFF1AA878
:2089F000FFFF1E2606169B00900F1AA8FFFF1AA9FFF01E1602001AA9FFFFC4281E28060826
:208A000091FF1AA8FF001E08761AFF69000628AD0400FF69561F5616561AE61002002940EE
:208A1000761F00002902761B76408BCD52006142762228A98BD028A800000901611B76C0A2
:208A20008BD029046F0F9B0024A9DF016C04290424A8DF011EA6F7A1248606A781A10901C0
:208A30001EA724A96303FF5C3B0459A9DF010009FFEC28A9FFFF28A8FFFF090161058F3FE3
:208A4000FFFF76408B2F761A76408BCF28A9FFFF28A8FFFF0901610E76FFFFFF6F06DF012A
:208A5000C3BD1EA73E67C5BE24A9DF0124A8FF5860F776408B9176408AE0761BFFF00005FB
:208A6000ABBDA8BDA0BDC2BDC3BDE20000BDE20300BDE20301BDE20302BDE20303BDE6308A
:208A70000600FE02FF6929425616761F0033922296411822FFBFF6057700762FFFFE56BF2D
:208A80000121762300012910FF69764088923B109241761F00339622FE82E2AF03BEE2AFA8
:208A900002BEE2AF01BEE2AF00BEE28000BEC5BEC4BE83BE8ABE87BE00033B30FFF1761789
:208AA0007602FE04E2030144E203004276408912E8024BA0E2AF01428F00C250E80920003F
:208AB000E302084476408953761F00301804FFEF7622761F00358F008A5DA80C761A761F63
:208AC00000331A22004076230001FF69FE8400063B10761F00331A2200402910FF69000627
:208AD0003B10761F00331822FFBFF6057700762FFFFE56BF01212910FF69000677006F00A3
:208AE000B2BD761F030859A99230610D28ABFFFF28AAFFFF28A9FFFF28A8FFFF0FAB6103D9
:208AF000767FFFFF761F0308C5363E67761F0308063461041EA792A13E67761F030806327F
:208B000061031EA73E6776408ADE8BBE00063B10761F00331820FFFE2B222B242B262B2892
:208B10002B2A2B2C2B2E2B302B322B342B362B382B232B252B272B292B2B2B2D2B2F2B31BD
:208B20002B332B352B372B39FF690006761F00331A2000012821FFFF2910FF690006B2BDE3
:208B3000AABDA2BDFE0882A4D1005ACB6F155CAD2901560303A107A3DC8809025CA483A944
:208B4000020876408B73064261068A44834676408B735ACBD90192A254A166EAFE8882BE1F
:208B500086BE8BBE0006FE068F00C258A8428F000D00A84476222B4592455280630D83446B
:208B60008A42A0A9C4840902A8421E44C2C50A459245528064F5761A761F00331A200001D6
:208B7000FF69FE8600065200A8AB8EA4610880A9DF8188A780857F80000EFFFE88A90FA606
:208B8000610F5300610D9DFF5CA876BFFFFE92859680000EFFFE92859680000CFFF8A9A41D
:208B9000000628ABFFFF28AAFFFF28A9FFFF28A8FFFF0FAB6004BE00D4006F0928ABFFFF88
:208BA00028AAFFFFA9A488C409028AA992A6764088C70006565C0744FF571E400006565C62
:208BB0000344FF571E400006761F0308A8380006761F0308A83600060006561F7622B9C00E
:208BC00028290068761A00408A0729102920FF6900063B10FF69000600069A010006000625
:208BD000FFC4C04000000000000000003F8000003F80000040400000404000004080000084
:208BE0004080000040C0000040C0000040E0000040E0000041100000411000004120000072
:208BF0004120000041400000414000004150000041500000417000004170000041800000BD
:208C00004180000041AC666641BA666641C4666641CC999A41D5666641E0000041F0FFC40B
:208C1000C0800000000044E1000044E10000000000000000000044E1000044E10000000070
:208C200000000000C0004528C00045280000000000000000000043480000434800000000C4
:208C300000000000000044E1000044E10000000000000000000044E1000044E10000000090
:208C400000000000000000000000000000000000000000000000000000000000FFD1C20082
:208C500000000000000000003F800000C3DC8000C3930000C32A0000C220000042AA000015
:208C6000435C000043D70000000000003F80000040000000404000004080000040A000001C
:208C700040C000000000000000000000000000000000000000000004001200120012001298
:208C8000FFFFC1F800000000FFFFC1F900000000FFFDC1FA0000000000000000FFFDC1FDF4
:208C90000000000000000000FFFFC23000000001FFFEC232000000000000FFFEC2340000EF
:1C8CA00000000000FFFEC23600008BBC0000FFFEC23800008BBC0000000000003E
:088CAE00190156C3FFFF000687
:00000001FF
